:10206200AF83E582900001F0EFA3F0900001E0FE63
:10207200A3E0FF90007A740FF0E4A3F08E828F83C6
:10208200123254AE82AF837C007D00C3EC9EED9F82
:1020920050070CBC00F50D80F222D293C29322D2DB
:1020A20094D2932212209C2094FD22C293D294D2E5
:1020B20093C29422D294D293C294C29322C294D253
:1020C20093D294C29322E582900003F0C2937F00E0
:1020D200900003E030E704D2948002C294C0071259
:1020E200209CD007900003E025E0F00FBF080040DD
:1020F200DFC29422900004E4F0D2947F00D2939045
:102102000004E025E0F030940A900004E043E0018E
:10211200F08008900004E053E0FEF0C2930FBF0885
:102122000040DA900004E0F58222AF83E58290005D
:1021320006F0EFA3F0900006E0FEA3E0FF90000897
:10214200EEF0EFA2E7CE33CE33CE5401FF9000067D
:10215200EEF0EFA3F0900006E0FEA3E074A04E5470
:10216200AEFFC0071220B6D0078F821220C81220FD
:10217200A6900008E0F5821220C81220A690000561
:10218200E0F5821220C81220A60220BFAF83E582AA
:10219200900009F0EFA3F0900009E0FEA3E0FF90A9
:1021A200000BEEF0EFA2E7CE33CE33CE5401FF9018
:1021B2000009EEF0EFA3F0900009E0FEA3E074A0A6
:1021C2004E54AEFFC0071220B6D0078F82C007124E
:1021D20020C81220A690000BE0F5821220C812201F
:1021E200A6D007430701C0071220B6D0078F82127C
:1021F20020C81220A61220F6AF82C0071220AD120C
:1022020020BFD0078F822290000C740AF090000D3C
:10221200740DF090000E7449F090000F7432F0903B
:1022220000107443F09000117420F0900012744575
:10223200F0900013F09000147450F0900015745256
:10224200F0900016744FF0900017744DF090001843
:102252007420F09000197448F090001A7465F090A0
:10226200001B7478F090001C7464F090001D74756B
:10227200F090001E746DF090001F7470F0900020BA
:10228200E4F0900021F0A3F074E2C0E0743BC0E0FF
:102292001233E5158115817F0090000AC007122DC7
:1022A2009590000D122D95900021E0FDA3E0FE8D8A
:1022B200018E027B007C0090004E7403F089828ABA
:1022C200838BF0ECC006C005122EF090003A122D5E
:1022D20095D005D006D0078D088E097C00C00790E6
:1022E2000020C007C004122D95D0048C027B00A8E8
:1022F20008A909EA28FAEB39FB8A828B83C004C059
:1023020001C00012218EAB82D000D001D004D007D0
:102312008B027B007E007F0090004E7402F08A8266
:102322008B838EF0EFC007C004C001C000122EF0F4
:10233200D000D001D004D0070CBC1000D007409DC3
:10234200741028F8E439F9900021E8F0E9A3F00FBD
:10235200BF8000500302229B221220B67F00D2943B
:10236200C00712209CD0070FBF090040F10220BF16
:10237200E582900023F0E0FF20E706900023EFF4CF
:10238200F01220B67582701220C81220A690002387
:10239200E0F5821220C81220A60220BF1220B675D4
:1023A20082711220C81220A61220F6AF82C0071234
:1023B20020AD1220BFD0078F82229000247401F03A
:1023C200E4A3F0900026F0A3F0900024E0F5F0A33F
:1023D200E045F07003022668900024E4F0A3F07F49
:1023E20000EF2428FDE43400FEC007C006C0051239
:1023F2002DB4AB82D005D0068D828E83EBF07E00A9
:102402008B828E83122D95D0070FBF030040D27F9F
:1024120000BF0002800EBF0102805FBF02030225DF
:102422007202265CEF2428F582E43400F583E0FE94
:10243200BE30004026EE24C84021EF75F002A424ED
:102442002BF582740035F0F5837D00EE24D0FEED8D
:1024520034FFFDEEF0EDA3F002265CC00774F6C077
:10246200E0743BC0E01233E515811581D00790007E
:10247200247401F0E4A3F002265CEF2428FDE43486
:1024820000FE8D828E83E0FCBC30004005EC24C649
:1024920050268D828E83E0FCBC41004005EC24B9BD
:1024A20050168D828E83E0FCBC61005003022553DE
:1024B200EC249950030225538D828E83E0FCBC30BC
:1024C200004026EC24C64021EF75F002A4242BF52F
:1024D20082740035F0F5837B00EC24D0FCEB34FFF2
:1024E200FBECF0EBA3F002265C8D828E83E0FCBC59
:1024F20041004026EC24B94021EF75F002A4242BC0
:10250200F582740035F0F5837B00EC24C9FCEB34D2
:10251200FFFBECF0EBA3F002265C8D828E83E0FEE3
:10252200BE6100500302265CEE2499500302265C31
:10253200EF75F002A4242BF582740035F0F5837D4B
:1025420000EE24A9FEED34FFFDEEF0EDA3F002262D
:102552005CC00774F6C0E0743BC0E01233E515813D
:102562001581D0079000247401F0E4A3F002265CE8
:10257200EF2428FDE43400FE8D828E83E0FCBC3023
:10258200004005EC24C650268D828E83E0FCBC41BF
:10259200004005EC24B950168D828E83E0FCBC61AC
:1025A200005003022640EC249950030226408D82FB
:1025B2008E83E0FCBC30004025EC24C64020EF7541
:1025C200F002A4242BF582740035F0F5837B00EC35
:1025D20024D0FCEB34FFFBECF0EBA3F0807C8D828B
:1025E2008E83E0FCBC41004025EC24B94020EF750D
:1025F200F002A4242BF582740035F0F5837B00EC05
:1026020024C9FCEB34FFFBECF0EBA3F0804C8D8291
:102612008E83E0FEBE61004041EE2499403CEF759E
:10262200F002A4242BF582740035F0F5837D00EED0
:1026320024A9FEED34FFFDEEF0EDA3F0801CC007EF
:1026420074F6C0E0743BC0E01233E515811581D009
:10265200079000247401F0E4A3F00FBF03005003BD
:102662000224130223CB7F00EF75F002A4242BF582
:1026720082740035F0F583E0FDA3E0FE8F037C0059
:102682007402C39BFBE49CFC8B828C83C007C00654
:10269200C005123686A982AA83ABF0FC900083E9BA
:1026A200F0EAA3F0EBA3F0ECA3F090000075F08049
:1026B200744112350E85820A85830B85F00CF50D67
:1026C200D005D0068D828E83123693A882AC83AD5C
:1026D200F0FEC00AC00BC00CC00D88828C838DF046
:1026E200EE1232E185820A85830B85F00CF50DE549
:1026F2008124FCF581900026E0F9A3E0FA89828A20
:1027020083123693A882A983AAF0FEC00AC00BC026
:102712000CC00D888289838AF0EE12362DAB82AC12
:1027220083ADF0FEE58124FCF5818B828C838DF0F4
:10273200EE12369FE5828583F0D007900026F0E501
:10274200F0A3F00FBF0300500302266A900026E0B8
:10275200FEA3E08E82F58322AF83E582900031F002
:10276200EFA3F0900031E0FEA3E08E04A2E7CC33A9
:10277200CC33CC540174FE5C44A0FD4304A1C006DA
:10278200C005C0041220B6D004D0058D82C0041248
:1027920029D0D004D0068E82C0041229D0122A96E3
:1027A200D0048C821229D0122A41AF827E00C00747
:1027B200C0061229B81220BFD006D0078F828E839E
:1027C20022900033E4F0A3F0900035F0A3F07424DB
:1027D200C0E0743CC0E01233E5158115811223BCC0
:1027E200AE82AF83C007C0067453C0E0743CC0E041
:1027F2001233E5158115811223BCAC82AD83D0065C
:10280200D007C3EC9EED9F402A9000357401F0E49E
:10281200A3F0C007C006C005C0047483C0E0743CC6
:10282200C0E01233E515811581D004D005D006D061
:1028320007801FC007C006C005C0047493C0E074BF
:102842003CC0E01233E515811581D004D005D006D5
:10285200D007900035E0FAA3E0FBBA0105BB000205
:102862008001228E028F038A008B01C3EC98ED99BE
:10287200500122E8B5065BE9B50757C004C0058ED2
:10288200828F83C007C006C003C00212275AAC82DF
:10289200AD83D002D003D006D007C007C006C00562
:1028A200C004C003C002C004C005C006C00774D083
:1028B200C0E0743CC0E01233E5E58124FAF581D032
:1028C20002D003D004D005D006D007D005D0040230
:1028D2002998900033E0F50EA3E0F50F740FB50EC2
:1028E20006E4B50F028057C004C00588828983C000
:1028F20007C006C003C00212275AAC82AD83D002C1
:10290200D003C005C004C003C002C004C00574DC0B
:10291200C0E0743CC0E01233E5E58124FCF581D0CF
:1029220002D003D004D005D006D007900033740142
:10293200250EF0E4350FA3F0D005D0048058740FB3
:10294200B50E06E4B50F028002804B88828983C0EF
:1029520007C006C005C004C003C00212275AA882DD
:10296200A983D002D003C003C002C000C001C002CC
:10297200C00374D0C0E0743CC0E01233E5E58124AA
:10298200FAF581D002D003D004D005D006D007904A
:102992000033E4F0A3F00ABA00010B022869C293E3
:1029A2009000E6122062C2949000E6122062D29356
:1029B2009000E6022062C2939000E6122062D29456
:1029C2009000E6122062D2939000E6022062E58235
:1029D200900037F0E0FF7E00C2939000E6C007C08F
:1029E20006122062D006D0078F047D008EF005F01B
:1029F2008006EC2CFCED33FDD5F0F7EC30E704D289
:102A0200948002C2949000E6C007C006122062D2EF
:102A1200939001CC122062D006D0070EBE0800406F
:102A2200B7C293D2949001CC122062D2939001CC7F
:102A3200122062A294E433FE7F008E828F83229062
:102A42000038E4F07F00C293D2949001CCC0071208
:102A52002062D2939000E6122062D007A294A29440
:102A6200E433FE8F057407C39DFD8DF005F0EE8003
:102A72000225E0D5F0FBFD900038E04DF09000E635
:102A8200C007122062D0070FBF080040B99000387B
:102A9200E0F58222C2939000E6122062D294900066
:102AA200E6122062D2939000E6122062C294900055
:042AB200E6022062B6
:103BE2000A0D69326320656570726F6D2064756DB0
:103BF200700A0D000A0D496E76616C696420496E87
:103C020070757420627920757365722120506C651D
:103C120061736520656E74657220616761696E0A01
:103C22000D000A0D456E7465722074686520464960
:103C320052535420616464726573732062657477B1
:103C420065656E20307830302D30783766660A0D23
:103C5200000A0D456E7465722074686520534543F1
:103C62004F4E442061646472657373206265747799
:103C720065656E20307830302D30783766660A0DF3
:103C8200000A0D56616C696420696E7075740A0DC4
:103C9200000A0D496E76616C696420456E74726922
:103CA20065732120506C6561736520656E74657261
:103CB200206164647265737320666F722068657830
:103CC2002064756D7020616761696E0A0D000A0DCE
:103CD20025783E3E202020257800202020257800CF
:03200000022006B5
:03205F0002200359
:03200300022ABDF1
:102AB600438E0C9000002274E2C0E0743CC0E01229
:102AC60033E5158115817433C0E0743DC0E01233DF
:102AD600E5158115817451C0E0743DC0E01233E5FF
:102AE60015811581746EC0E0743DC0E01233E515A2
:102AF600811581747EC0E0743DC0E01233E5158116
:102B060015817492C0E0743DC0E01233E51581155D
:102B16008174A2C0E0743DC0E01233E515811581D1
:102B260074B1C0E0743DC0E01233E51581158174BF
:102B3600C4C0E0743DC0E01233E51581158174D53B
:102B4600C0E0743DC0E01233E5158115811220A165
:102B56007428C0E0743EC0E01233E5158115811279
:102B66002DC2AE828E057F008D828F83C006122D08
:102B760095D006BE01028003022BFF7462C0E0748A
:102B86003EC0E01233E515811581747EC0E0743EC7
:102B9600C0E01233E5158115817582101230DDAD66
:102BA60082C005748DC0E0743EC0E01233E5158125
:102BB60015817582101230DDAC82AF83D0058C0290
:102BC6008F03C374FF9A74079B5010749FC0E07400
:102BD6003EC0E01233E51581158122900005EDF027
:102BE6008C828F8312212C74B3C0E0743EC0E01235
:102BF60033E515811581022B53BE02028003022C98
:102C0600C574C8C0E0743EC0E01233E51581158175
:102C160074E3C0E0743EC0E01233E515811581759A
:102C260082101230DDAD82AF838D038F04C374FF33
:102C36009B74079C5010749FC0E0743EC0E0123332
:102C4600E515811581228D828F83C007C00512216B
:102C56008EAC82C00474F9C0E0743EC0E01233E565
:102C660015811581740EC0E0743FC0E01233E5157E
:102C76008115817420C0E0743FC0E01233E51581F0
:102C86001581D004D005D0077B007A0090004E74E1
:102C960003F08D828F838BF0EAC004122EF0900031
:102CA6003A122D95D0047F007D007B0090004E7473
:102CB60002F08C828F838DF0EB122EF0022B53BE26
:102CC6000315742EC0E0743FC0E01233E51581157C
:102CD600811227C3022B53BE0415743BC0E0743F18
:102CE600C0E01233E51581158112235B022B53BE1A
:102CF6000539744CC0E0743FC0E01233E515811508
:102D060081745BC0E0743FC0E01233E51581158124
:102D16007582101230DD122372746AC0E0743FC0EF
:102D2600E01233E515811581022B53BE06401223AE
:102D36009EAF82C007747DC0E0743FC0E01233E5E9
:102D4600158115817420C0E0743FC0E01233E5158B
:102D5600811581D0077D007C007B0090004E7402B7
:102D6600F08F828D838CF0EB122EF0022B53BE0770
:102D760015748BC0E0743FC0E01233E515811581F0
:0F2D8600122209022B53BE3F03022ABD022B5318
:103CE2000A0D2A2A2A2A2A2A2A2A2A2A2A2A2A2A6F
:103CF2002A2A2A2A2A2A2A2A2A2A2A2A2A2A2A2A22
:103D02002A2A2A2A2A2A2A2A48454C4C4F203A296A
:103D12002A2A2A2A2A2A2A2A2A2A2A2A2A2A2A2A01
:103D22002A2A2A2A2A2A2A2A2A2A2A2A2A2A2A0D0E
:103D3200000A0D312E20577269746520427974652C
:103D4200206F6E746F20454550524F4D0A0D000A88
:103D52000D322E20526561642042797465206F6EA7
:103D6200746F20454550524F4D0A0D000A0D332EF7
:103D7200204865782044756D700A0D000A0D342EB6
:103D820020526573657420454550524F4D0A0D000F
:103D92000A0D352E20494F2057726974650A0D00AD
:103DA2000A0D362E20494F20526561640A0D000A21
:103DB2000D372E20454550524F4D2044756D700AE7
:103DC2000D000A0D3F2E20476F746F206D656E75D2
:103DD2000A0D000D2A2A2A2A2A2A2A2A2A2A2A2AC5
:103DE2002A2A2A2A2A2A2A2A2A2A2A2A2A2A2A2A31
:103DF2002A2A2A2A2A2A2A2A2A2A2A2A2A2A2A2A21
:103E02002A2A2A2A2A2A2A2A2A2A2A2A2A2A2A2A10
:103E12002A2A2A2A2A2A2A2A2A2A2A2A2A2A2A2A00
:103E22002A2A2A2A0D000A0D456E74657220612025
:103E32006E756D6265722066726F6D206D656E754E
:103E4200206F72207072657373203520746F207337
:103E52006565206D656E7520616761696E0A0D008A
:103E62000A0D496E20577269746520427974652083
:103E7200436F6E646974696F6E0A0D000A0D456EB8
:103E820074657220646174610A0D000A0D456E74D6
:103E9200657220416464726573730A0D000A0D69CC
:103EA2006E76616C696420616464726573730A0D75
:103EB200000A0D57726974696E6720427974652E23
:103EC2002E2E2E0A0D000A0D496E205265616420C5
:103ED2004279746520436F6E646974696F6E0A0D6E
:103EE200000A0D456E7465722041646472657373D5
:103EF200207478740A0D000A0D52656164696E6758
:103F020020427974652E2E2E2E0A0D000A0D52655E
:103F1200616420636F6D706C6574650A0D000A0D33
:103F22004461746120726561640A0D000A0D48657E
:103F3200782044756D700A0D000A0D526573657420
:103F420020454550524F4D0A0D000A0D7772697493
:103F520065206D6F64650A0D000A0D456E74657209
:103F620020446174610A0D000A0D5772697465205C
:103F7200636F6D706C6574650A0D000A0D526561A0
:103F820064206D6F64650A0D000A0D454550524F5D
:093F92004D2044756D700A0D000C
:102D9500AF83E582900039F0EFA3F03099FD900004
:102DA50039E0FEA3E0FF8E99C2998E828F832210AF
:102DB500980280FBAE997F008E828F832290003B24
:102DC500E4F0A3F090003DF090003DE0FF243EFDCF
:102DD500E43400FEC007C006C005122DB4AB82ACBA
:102DE50083D005D006D0078D828E83EBF0EB700380
:102DF500022E6F8D828E83E0FCBC0D02806C8D826D
:102E05008E83E0FDBD081C900008C007122D95902B
:102E15000020122D95900008122D95D007EF1490E3
:102E2500003DF090003DE0FF243EFDE43400FE8DC2
:102E3500828E83E0FCBC3000408EEC24C640897B4A
:102E4500008C828B83C007C006C005122D95D00566
:102E5500D006D0078D828E83E024D0FC8D828E83B0
:102E6500F090003DEF04F0022DCD90003DE0FF7D98
:102E7500007E008F037C00C3ED9BEE64808CF063C5
:102E8500F08095F0505990003BE0FBA3E0FC9000EA
:102E950081EBF0ECA3F090000AC007C006C0051254
:102EA50034EEAB82AC83D005D006D00790003BEB67
:102EB500F0ECA3F0ED243EF582EE3400F583E0FC62
:102EC5007B0090003BE0F9A3E0FAEC29F9EB3AFA34
:102ED50090003BE9F0EAA3F00DBD00970E809490B9
:102EE500003BE0FEA3E08E82F58322AF82AE83AD88
:102EF500F0FC90004FEFF0EEA3F0EDA3F0ECA3F0A3
:102F050090004EE0FF90004FE0FBA3E0FCA3E0FD46
:102F1500A3E0FEC3740F9BE49CE49DE49E9200C372
:102F250074FF9BE49CE49DE49E9201C374FF9B7433
:102F35000F9CE49DE49E9202C374818FF063F08040
:102F450095F0503BBF02028026BF03028012BF04EA
:102F55002B200228900030C007122D95D007801C29
:102F6500200119900030C007122D95D007800D2043
:102F7500000A900030C007122D95D0071F80B9EFC9
:102F8500FD3395E0FEED2453F510EE3400F5119078
:102F9500004FE0F512A3E0F513A3E0F514A3E0F567
:102FA50015740F5512F87C0088828C83C007123087
:102FB50040AE82D007851082851183EEF0AB12E515
:102FC50013C4CBC4540F6BCB540FCB6BCBFCE514A4
:102FD500C454F04CFCAD14E515C4CDC4540F6DCDEF
:102FE500540FCD6DCDFE90004FEBF0ECA3F0EDA3AB
:102FF500F0EEA3F00F90004FE0F5F0A3E042F0A350
:10300500E042F0A3E045F06003022F84EF14900046
:103015005DF0E0FFEF20E722EFFD3395E0FEED24C4
:1030250053F582EE3400F583E0FE7D008E828D83BC
:10303500C007122D95D0071F80DA22AF83E5829055
:10304500005EF0EFA3F090005EE0FEA3E0FF30E746
:10305500030230D9C3740F9E74808FF063F080959E
:10306500F050030230D9EE240A83F582EE2414834E
:10307500F583E4739D99A1A5A9ADB1B5B9BDC1C548
:10308500C9CDD1D5303030303030303030303030BF
:10309500303030307582312275823022758232228D
:1030A50075823322758234227582352275823622E5
:1030B50075823722758238227582392275824122BE
:1030C5007582422275824322758244227582452289
:1030D5007582462275823022E582900060F090006C
:1030E50061E4F0900076F0900077F0A3F090006135
:1030F500E0FFBF0D03023186122DB4AE82AF83907F
:103105000061EEF0BE30004005EE24C65014BE61ED
:10311500004005EE2499500ABE41004041EE24B915
:10312500403C8E057F008D828F83C006122D95D081
:1031350006900076E0FF2462FCE43400FD8E82C038
:1031450007C005C0041231FAAB82D004D005D00700
:103155008C828D83EBF0900076EF04F0808FBE08B3
:103165000280030230F2900008122D959000201283
:103175002D95900008122D95900076E014F0023000
:10318500F2900060E0FF900076E0FE7D00C3ED9ECA
:103195005057900077E0FBA3E0FC900081EFF0E44E
:1031A500A3F08B828C83C007C006C0051234EEE500
:1031B500828583F0D005D006D007900077F0E5F042
:1031C500A3F0ED2462F582E43400F583E0FC7B0096
:1031D500900077E0F9A3E0FAEC29F9EB3AFA9000D0
:1031E50077E9F0EAA3F00D80A4900077E0FEA3E074
:1031F5008E82F58322E582900079F0E0FFBF3000F2
:10320500400EEF24C64009EF24D0900079F08038B5
:10321500900079E0FFBF61004013EF2499400EEF65
:10322500249F900079F0E0FF240AF0801B9000793C
:10323500E0FFBF41004011EF2499400CEF24BF90FF
:103245000079F0E0FF240AF0900079E0F58222AFE2
:1032550083E58290007CF0EFA3F090007EE4F0A37C
:10326500F090007AE0FEA3E0FF7D1090007CE0FB8B
:10327500A3E0FC900080235401F0EB2BFBEC33FC26
:1032850090007CEBF0ECA3F090007EE0FBA3E0FC6B
:10329500EB2BFBEC33FC90007EEBF0ECA3F0900005
:1032A50080E0600890007EE043E001F090007EE061
:1032B500FBA3E0FCC3EB9EEC9F401390007EEBC3A9
:1032C5009EF0EC9FA3F090007CE043E001F0DD9BD5
:1032D50090007CE0FEA3E08E82F58322123384BC4D
:1032E50000030236CBEF60FA30D502B2D1E583B4E4
:1032F500FF030236E1E582B4FF030236E125834090
:10330500072482400B0236CB24831450030236E196
:10331500F582EA8DF0A4A8F0EA8EF0A428F8E43549
:10332500F0F9EB8DF0A428E935F0F9E433CA8FF014
:10333500A429F9EA35F0FAEBF88EF0A429F9EA3573
:10334500F0FAE433FBEC8DF0A429F9EA35F0FAE460
:103355003BFBE88FF0A42AFAEB35F0FBE433CCFD18
:103365008EF0A42AFAEB35F0FBE43CFCED8FF0A4DB
:103375002BFBEC35F0FC20E7031233B20236AAAA88
:1033850082AB83A2F73392D1F5826002D2F7ACF01B
:10339500E58124F9F8E6FD08E6FE0886F008E6A2D0
:0D33A500F73392D5F5836002D2F7AFF02226
:06203500E478FFF6D8FD7F
:1033B2007804EC7011E58224F8500AF582E4C9CA57
:1033C200CBFCD8EF22EC7820058220E713D58201CE
:1033D20022C3E933F9EA33FAEB33FBEC33FCD8EAE4
:0333E2001582222F
:102013007900E94400601B7A00904013788B75A027
:1020230000E493F2A308B8000205A0D9F4DAF2752C
:02203300A0FF0C
:1033E500C016858116E51624FDF886831886821891
:1033F500E493A324DB600C242560051234D380F00C
:103405000234EBD2D5E493A3C083C082B47314868F
:10341500F0188683188682181237136054A3123465
:10342500D380F5B4630818E6181234D38043B46426
:1034350017E630E74618E6F42401F608E6F434000A
:10344500F6742D1234D38033B4782D868318868292
:1034550018E41234C4E5831234C3E5831234C4E599
:10346500821234C3E5821234C430D5057430123467
:10347500D3D082D0830233F5B475F6E6FA18E6F9AF
:10348500187C107D271234AEFF7CE87D031234AE24
:10349500C4F5837C647D001234AE4283E975F00A7D
:1034A50084C445F0F582EF80A97B000BC3E99CF944
:1034B500EA9DFA50F61BE92CF9EA3DFAEB22C454D1
:1034C5000F700320D51FC2D52490D43440D4C083B7
:1034D500C082C0F0F582E8C0E0122D95D0E0F8D0AA
:1034E500F0D082D08322D01622AA83AB828BF090B3
:1034F5000081E0A4F8A9F08AF0E0A429F98BF0A3F3
:10350500E0A429F58388822222AF82AE83ADF0FC48
:10351500900087EFF0EEA3F0EDA3F0ECA3F09000A0
:1035250083E0FCA3E0FDA3E0FEA3E0FF8CF0ED4209
:10353500F0EE42F0EF547F45F0700990000075F011
:1035450080743F22C007C006C005C004E4C0E0C0C7
:10355500E07480C0E0743FC0E08C828D838EF0EF14
:103565001238BCAB82E58124FCF581D004D005D0AE
:1035750006D007EB6014900087E0F8A3E0F9A3E01C
:10358500FAA3E0888289838AF022900087E0F8A375
:10359500E0F9A3E0FAA3E0FBC007C006C005C0043C
:1035A500C003C002C001C000C000C001C002C0030A
:1035B500900000E4F5F0123A93E58124FCF581D002
:1035C50000D001D002D003D004D005D006D007E545
:1035D5008224FF92034007900000E4F5F0228882E0
:1035E50089838AF0EBC007C006C005C00412376F97
:1035F500A882A983AAF0FBD004D005D006D007C0C5
:1036050004C005C006C007888289838AF0EB1232A0
:10361500E1AC82AD83AEF0FFE58124FCF5818C82BF
:083625008D838EF0EF0238CD19
:10203B007800E84400600A790175A000E4F309D840
:10204B00FC788AE84400600C7901900001E4F0A36D
:04205B00D8FCD9FADA
:10362D001233847900E583B58202800D5003123682
:10363D00F9E583C39582123879E5D0C465D020E1D0
:10364D0017EA2DFAEB3EFBEC3FFC500974011238E2
:10365D0079EC4480FC0236AAC3EA9DFAEB9EFBECA2
:10366D009FFC500FC3E499F9E49AFAE49BFBE49CA8
:10367D00FCB2D11233B20236AAAC83AB827A007996
:10368D0000748E023738E4AC83AB82FAF9748E0283
:10369D0037657F8E123A6EF58385F08222B98003ED
:1036AD00EA13B34010EA2401FAE43BFBE43CFC507E
:1036BD00047C800582BC000EBB000BBA0008E4F54B
:1036CD00F0F583F58222A2D1E582138CF092F78B6F
:1036DD00838A8222E4F583F58275F080F4A2D113FA
:1036ED0022E4F583F58275F0C0747F22E582C583EF
:1036FD00F582A2D133A2D592D11392D5ECCFFCEBAA
:06370D00CEFBEACDFA221A
:0D200600758120122AB6E5826003022003D6
:1037130020F71430F6148883A88220F507E6A883DF
:1037230075830022E280F7E49322E022FCABF0AA47
:1037330083A982749EF582C2D1EC30E716D2D1E917
:10374300F42401F9EAF43400FAEBF43400FBECF46A
:103753003400FC1233B20236AAFCABF0AA83A9826E
:10376300749EC2D1F5821233B20236AA123A5A308B
:10377300D1061236EE023837BC0008D2D11236E138
:10378300023837C08274037900123879E4F517F5EB
:1037930018F519F51A903F9BF88C078B068A058953
:1037A300F0E8123838E925F0EA3DEB3EEC3F54E00F
:1037B3007028E925F0F9EA3DFAEB3EFBEC3FFCE427
:1037C300932517F5177401933518F518740293357B
:1037D30019F519740393351AF51AA3A3A3A308B80B
:1037E3001EB7AC1AAB19AA18A917758281D2D112C8
:1037F30033B2D0E0B47E051236C28038400624824C
:10380300C2D58005F4247FD2D5F81236F97418880E
:10381300F0A4F9AAF074B188F0A4FBACF074728838
:10382300F0A42AFAE5F03BFBE43CFC7582861233F4
:10383300B21236302224F850228DF0AD06AE077F47
:103843000024F850168DF0AD067E0024F8500C8D40
:10385300F07D0024F8500475F0002224086016C09F
:1038630000F8C3EF13FFEE13FEED13FDE5F013F5C0
:06387300F0D8EFD00022A6
:103F9B00FF422E16F691F90CF2FD2307EEE0C40357
:103FAB000CA3F001D814FC00A3027F0055C03F0006
:103FBB000BF01F0001FC0F0000FF0700C0FF030008
:103FCB00F0FF0100FCFF0000FF7F0000004000003D
:103FDB00002000000010000000080000000400009A
:103FEB000002000000010000800000004000000003
:103FFB00200000001000000008000000040000007A
:08400B000200000001000000AA
:103879006040F82582500274FFF582E824F8501E52
:10388900CCCBCAF9E4CC24F85014CBCAF9E4CB2444
:10389900F8500BCAF9E4CA24F85003790022240825
:1038A9006010F8C3EC13FCEB13FBEA13FAE913F904
:1038B900D8F122FFA8811818123AE1123AC3E96433
:1038C90001F58222A2E79204C2E7F8A2F73324990C
:1038D900400B90000075F080743F023A0A751F0092
:1038E900E58224E8E583348DE5F034CEE834C0E898
:1038F900505885821B85831C85F01DF51E783BC0B9
:103909000078AAC00078B8C000783FC0001232E140
:103919001581158115811581123BCFE582F51F248B
:103929008050061236E1023A0A780079807A317BB2
:10393900BF123A0B85821B85831C85F01DF51E7805
:103949008379807A5E7B39123A0BA2F733D2F7A9D1
:1039590082AA83ABF07C00B47902800F40072487E8
:10396900123A438006F4247A123879E4F51BF51CDF
:10397900F51D751E20903F9BF8E493F5F0A3E493A1
:10398900FDA3E493FEA3E493FFA3C3E995F0EA9DA5
:10399900EB9EEC9F4030C3E995F0F9EA9DFAEB9E66
:1039A900FBEC9FFC851BF0AD1CAE1DAF1EE8123869
:1039B90038E51B25F0F51BE51C3DF51CE51D3EF51D
:1039C9001DE51E3FF51E08B81BAFAC1EAB1DAA1C9A
:1039D900A91B7582791233B2747F251FF5821236BD
:1039E900AA30041BC082C083C0F0C0E090000075FB
:1039F900F080743F123B0C1581158115811581C228
:103A0900E722C000C001C002C003851F82123BD754
:103A19001232E11581158115811581C082C083C0DB
:103A2900F0C0E0851B82851C83851DF0E51E1236DA
:103A39002D1581158115811581226014C000F8C3E7
:103A4900E933F9EA33FAEB33FBEC33FCD8F1D00074
:103A590022AA82AB83A2F73392D1F5826002D2F710
:103A6900ACF0227F9E123A5A30D1030236CBC3EF13
:103A79009582500974FFF5F0F583F58222790012D9
:103A8900387989828A838BF0EC22FFA88118181271
:103A99003AE1D2D133E6400730E70B7582002220A4
:103AA900E70675820122C2D1123AC3E97003F58291
:103AB9002220D101B3E433F582227901AA82E68F6B
:103AC90082B5821318E6B5F00E18E6B5830918E633
:103AD9008A82B58202790022B4800FE5F0700AE586
:103AE900837006E58270027F00EFB6801518B60074
:103AF9001018B6000B18B600060808087600220848
:103B090008082212338430D502B2D1BF0009BC00A3
:103B1900030236EE0236E1BC00030236CBE583B47C
:103B2900FF0BE582B4FF030236EE0236CBE582B421
:103B3900FF030236E1C395835007247F400B023609
:103B4900CB24801450030236E1F582C3ED9AEE9B33
:103B5900EF9C40111582C3EA33F9EB33FAEC33FBDE
:103B6900E433FC8005E4CCCBCAF9C08275F019C3F3
:103B7900E99DEA9EEB9FEC9400D5F002802D400E62
:103B8900E99DF9EA9EFAEB9FFBEC9400FCC3B3E8CC
:103B990033F8E58233F582E58333F583C3E933F9F5
:103BA900EA33FAEB33FBEC33FC80C4B3E4F938FABB
:103BB900E43582FBE43583FCD082500405827C80A5
:103BC9001233B20236C27F86123A6EF58222E4AC13
:093BD90082FBFAF97486023765DB
:00000001FF
