:042000000220113277
:03200B0002350E8D
:0335040002200E94
:03200E0002356731
:10350700438E0C90000022C021C0E0C0F0C082C0F2
:1035170083C007C006C005C004C003C002C001C005
:1035270000C0D075D000C28D758A00758CFC123E24
:1035370057D0D0D000D001D002D003D004D005D0CE
:1035470006D007D083D082D0F0D0E0D0213243A874
:10355700824389015389F1758A00758CFCD28C22CC
:10356700900001740AF0900002740DF0900003744B
:1035770054F09000047468F09000057461F09000B6
:10358700067472F09000077475F0900008746EF07E
:103597009000097469F090000A7420F090000B7491
:1035A70045F090000C7453F090000D7444F09000B7
:1035B7000E7420F090000F744CF09000107461F0BE
:1035C70090001104F09000127420F09000137434EE
:1035D700F09000147420F09000157453F0900016CA
:1035E7007475F09000177470F0900018F09000193F
:1035F700746CF090001A7465F090001B746DF09075
:10360700001C7465F090001D746EF090001E7474B9
:10361700F090001F7461F0900020746CF09000210E
:10362700E4F09000227454F09000237468F0900046
:10363700247461F09000257472F09000267475F080
:10364700900027746EF09000287469F09000297438
:1036570020F090002A7445F090002B7453F09000EE
:103667002C7444F090002D7420F090002E744CF0D0
:1036770090002F7461F090003004F09000317420B6
:10368700F09000327434F09000337420F0900034DE
:103697007453F09000357475F09000367470F090A4
:1036A7000037F0900038746CF09000397465F09032
:1036B700003A746DF090003B7465F090003C746EB6
:1036C700F090003D7474F090003E7461F090003FFC
:1036D700746CF0900040E4F0900041740AF09000A0
:1036E70042740DF09000437427F09000447444F046
:1036F7009000457427F0900046742DF090004774B1
:103707003EF09000487444F09000497441F09000F6
:103717004A7443F090004B7420F090004C7444F0CE
:1037270090004D7461F090004E7474F090004F74E7
:1037370061F09000507420F09000517449F09000AF
:1037470052746EF09000537470F09000547475F0DA
:1037570090005514F0900056742CF0900057740A9E
:10376700F0900058740DF09000597427F090005AAB
:10377700745AF090005B7427F090005C742DF09001
:10378700005D743EF090005E7420F090005F746DF1
:10379700F0900060746FF09000617464F0900062C4
:1037A70004F09000637420F09000647463F090005C
:1037B700657468F09000667461F0900067746EF04D
:1037C7009000687467F09000697465F090006A74FF
:1037D7002CF090006B740AF090006C740DF0900060
:1037E7006D7427F090006E23F090006F03F0900047
:1037F70070742DF0900071743EF09000727420F098
:10380700900073744EF09000747465F090007574B6
:1038170078F09000767474F09000777420F0900040
:10382700787477F09000797461F090007A7476F08C
:1038370090007B7465F090007C742CF090007D7490
:103847000AF090007E740DF090007F7427F09000CE
:1038570080742BF09000817427F0900082742DF013
:10386700900083743EF09000847420F0900085747B
:1038770049F0900086746EF09000877463F09000B2
:10388700887472F09000897465F090008A7461F012
:1038970090008B7473F090008C7465F090008D74B9
:1038A70020F090008E7444F090008F7441F09000E7
:1038B700907443F09000917420F09000927476F029
:1038C700900093746FF0900094746CF0900095746E
:1038D70074F09000967461F09000977467F0900010
:1038E700987465F0900099742CF090009A740AF01F
:1038F70090009B740DF090009C7427F090009D74CD
:103907002DF090009E7427F090009F742DF090008A
:10391700A0743EF09000A17420F09000A27444F0CF
:103927009000A37465F09000A47463F09000A574F0
:1039370072F09000A67465F09000A77461F0900093
:10394700A87473F09000A97465F09000AA7420F031
:103957009000AB7444F09000AC7441F09000AD74EB
:1039670043F09000AE7420F09000AF7476F09000B2
:10397700B0746FF09000B1746CF09000B27474F092
:103987009000B37461F09000B47467F09000B57460
:1039970065F09000B6742CF09000B7740AF09000B0
:1039A700B8740DF09000B97427F09000BA743FF026
:1039B7009000BB7427F09000BC742DF09000BD748C
:1039C7003EF09000BE7420F09000BF7444F0900069
:1039D700C07469F09000C17473F09000C27470F005
:1039E7009000C3746CF09000C47461F09000C574CB
:1039F70079F09000C67420F09000C7744DF09000E5
:103A0700C87465F09000C9746EF09000CA7475F0C0
:103A17009000CBE4F09000CC7444F09000CD74415A
:103A2700F09000CE7443F09000CF7420F09000D057
:103A37007469F09000D17473F09000D27420F09004
:103A470000D3744FF09000D4746EF09000D5E4F07A
:103A57009000D67444F09000D77441F09000D87469
:103A670043F09000D97420F09000DA7469F0900068
:103A7700DB7473F09000DC7420F09000DD744FF07D
:103A87009000DE7466F09000DFF09000E0E4F090C4
:103A970000E1740AF09000E2740DF09000E37445C1
:103AA700F09000E4746EF09000E57474F09000E616
:103AB7007465F09000E77472F09000E87420F0905D
:103AC70000E97444F09000EA7461F09000EB7474BC
:103AD700F09000EC7461F09000ED7420F09000EE2F
:103AE700E4F09000EF740AF09000F0740DF090008D
:103AF700F17444F09000F27441F09000F37443F0D5
:103B07009000F47420F09000F5746FF09000F67454
:103B170075F09000F714F09000F87470F09000F9C9
:103B27007475F09000FA14F09000FB7420F0900088
:103B3700FC7463F09000FD7468F09000FE7461F00F
:103B47009000FF746EF0900100F09001017465F031
:103B5700900102746CF09001037420F090010474DA
:103B670041F09001057420F0900106E4F090010700
:103B7700740AF0900108740DF09001097444F090F4
:103B8700010A7441F090010B7443F090010C74200A
:103B9700F090010D746FF090010E7475F090010FA5
:103BA70014F09001107470F09001117475F0900189
:103BB7001214F09001137420F09001147463F090C4
:103BC70001157468F09001167461F0900117746E16
:103BD700F0900118F09001197465F090011A746C57
:103BE700F090011B7420F090011C7442F090011DAD
:103BF7007420F090011EE4F090011F740AF0900108
:103C070020740DF09001217467F09001227461F027
:103C17009001237469F0900124746EF0900125746B
:103C270020F09001267469F0900127746EF09001DE
:103C3700287463F09001297472F090012A7465F07A
:103C470090012B7461F090012C7473F090012D7426
:103C570065F090012E14F090012FE4F0900130747C
:103C67000AF0900131740DF09001327467F0900101
:103C7700337461F09001347469F0900135746EF01B
:103C87009001367420F09001377464F09001380485
:103C9700F09001397463F090013A7472F090013B2F
:103CA7007465F090013C7461F090013D7473F0907D
:103CB700013E7465F090013F14F0900140E4F090EC
:103CC7000141740AF0900142740DF0900143746D44
:103CD700F0900144746FF09001457464F0900146D0
:103CE70004F09001477420F09001487463F090014C
:103CF700497468F090014A7461F090014B746EF05A
:103D070090014C7467F090014D7465F090014E146A
:103D1700F090014FE4F0900150740AF09001517453
:103D27000DF0900152746EF09001537465F090019C
:103D3700547478F09001557474F09001567420F023
:103D47009001577477F09001587461F0900159749D
:103D570076F090015A7465F090015B7420F0900141
:103D67005CE4F090000112424A90004112424A126C
:103D77003555123FF5AE82AF8390015FE07002C206
:103D87008CBE2B02804CBE2D028052BE3F02800F9C
:103D9700BE44028028BE4E028018BE5A4B8008904F
:103DA700004112424A804A123F9C90014112424A06
:103DB700803F90015012424A123FB380349000E195
:103DC70012424A7582101243AF7F008F83123F520F
:103DD700801F123FC890011F12424A8014123FCF22
:103DE70090013012424A80097F008E828F83123FF2
:0F3DF700D690015FE06003023D79D28C023D79E6
:10206A00900162E4F0A3F09001647480F09001653D
:10207A007483F09001667486F09001677489F09019
:10208A000168748CF09001697490F090016A7493FD
:10209A00F090016B7496F090016C7499F090016D58
:1020AA00749CF090016E749FF090016F74A2F0908E
:1020BA00017074A5F090017174A8F090017274AB6C
:1020CA00F090017374AEF090017474B1F0900175E0
:1020DA0074B4F090017674B6F090017774B9F09008
:1020EA00017874BCF090017974BFF090017A74C2DF
:1020FA00F090017B74C4F090017C74C7F090017D6C
:10210A0074C9F090017E74CCF090017F74CEF09087
:10211A00018074D1F090018174D3F090018274D659
:10212A00F090018374D8F090018474DAF0900185FC
:10213A0074DCF090018674DEF090018774E0F09010
:10214A00018874E2F090018974E4F090018A74E6DF
:10215A00F090018B74E8F090018C74EAF090018D94
:10216A0074ECF090018E04F090018F74EFF09001FE
:10217A009004F090019174F2F090019204F09001B1
:10218A009304F090019474F6F090019504F0900194
:10219A009604F090019704F090019804F090019948
:1021AA0004F090019AF090019B04F090019C04F0D5
:1021BA0090019DF090019E04F090019FF09001A083
:1021CA00F09001A104F09001A2F09001A3F0900117
:1021DA00A4F09001A5F09001A6F09001A7F090015B
:1021EA00A814F09001A9F09001AA14F09001ABF0A4
:1021FA009001AC14F09001ADF09001AE14F0900192
:10220A00AF14F09001B014F09001B114F09001B243
:10221A0014F09001B314F09001B414F09001B514C5
:10222A00F09001B674F2F09001B714F09001B8146E
:10223A00F09001B974EEF09001BA74ECF09001BB21
:10224A0014F09001BC74E9F09001BD74E7F09001BC
:10225A00BE74E5F09001BF74E3F09001C074E1F040
:10226A009001C174DFF09001C274DDF09001C37473
:10227A00DBF09001C474D9F09001C574D7F09001D5
:10228A00C674D4F09001C774D2F09001C874D0F02B
:10229A009001C974CDF09001CA74CBF09001CB744F
:1022AA00C8F09001CC74C5F09001CD74C3F09001D0
:1022BA00CE74C0F09001CF74BDF09001D074BBF021
:1022CA009001D174B8F09001D274B5F09001D37432
:1022DA00B2F09001D474AFF09001D574ACF09001D3
:1022EA00D674A9F09001D774A7F09001D874A4F01D
:1022FA009001D974A0F09001DA749DF09001DB741A
:10230A009AF09001DC7497F09001DD7494F09001DA
:10231A00DE7491F09001DF748EF09001E0748BF01E
:10232A009001E17488F09001E27485F09001E37401
:10233A0082F09001E4747EF09001E5747BF09001E4
:10234A00E67478F09001E77475F09001E87472F021
:10235A009001E9746FF09001EA746CF09001EB74EB
:10236A0069F09001EC7466F09001ED7463F09001ED
:10237A00EE7460F09001EF745CF09001F07459F023
:10238A009001F17457F09001F27454F09001F374D3
:10239A0051F09001F4744EF09001F5744BF09001F5
:1023AA00F67448F09001F77445F09001F87443F020
:1023BA009001F97440F09001FA743DF09001FB74B9
:1023CA003BF09001FC7438F09001FD7435F09001F7
:1023DA00FE7433F09001FF7430F0900200742EF016
:1023EA00900201742CF09002027429F09002037496
:1023FA0027F09002047425F09002057423F09002ED
:10240A00067421F0900207741FF0900208741DF000
:10241A00900209741BF090020A7419F090020B746E
:10242A0017F090020C7415F090020D14F090020E41
:10243A007412F090020F7410F090021014F09002CF
:10244A001114F0900212740CF090021314F090021E
:10245A001414F090021514F090021614F09002175A
:10246A0014F090021814F090021914F090021A1441
:10247A00F090021BF090021C14F090021DF09002E2
:10248A001E14F090021FF090022014F0900221F026
:10249A00900222F0900223F0900224F0900225F09C
:1024AA00900226F090022704F0900228F090022968
:1024BA00F090022A04F090022BF090022C04F09083
:1024CA00022D04F090022EF090022F04F0900230B8
:1024DA0004F090023104F090023204F090023304C6
:1024EA00F0900234740CF090023504F09002360435
:1024FA00F09002377410F090023804F090023974A8
:10250A0013F090023A04F090023B7416F090023CE9
:10251A007418F090023D741AF090023E741CF09008
:10252A00023F741EF09002407420F090024174221F
:10253A00F09002427424F09002437426F090024410
:10254A007428F0900245742AF0900246742DF09097
:10255A000247742FF09002487432F09002497434A2
:10256A00F090024A7437F090024B7439F090024CA2
:10257A00743CF090024D743EF090024E7441F0901B
:10258A00024F7444F09002507447F0900251744A1A
:10259A00F0900252744CF0900253744FF09002542F
:1025AA007452F09002557455F09002567458F09097
:1025BA000257745BF0900258745EF090025974618D
:1025CA00F090025A7464F090025B7467F090025CB7
:1025DA00746AF090025D746DF090025E7470F0900F
:1025EA00025F7474F09002607477F0900261747AFA
:1025FA00F0900262747DF09002637480F09002643D
:10260A00E4F0900265F0900266F0900267F09002A2
:10261A0068F0900269F090026AF090026BF0900202
:10262A006CF090026DF090026EF090026FF09002E2
:10263A0070F0900271F0900272F0900273F09002C2
:10264A0074F0900275F0900276F0900277F09002A2
:10265A0078F0900279F090027AF090027BF0900282
:10266A007CF090027DF090027EF090027FF0900262
:10267A0080F0900281F0900282F0900283F0900242
:10268A0084F0900285F0900286F0900287F0900222
:10269A0088F0900289F090028AF090028BF0900202
:1026AA008CF090028DF090028EF090028FF09002E2
:1026BA0090F0900291F0900292F0900293F09002C2
:1026CA0094F0900295F0900296F0900297F09002A2
:1026DA0098F0900299F090029AF090029BF0900282
:1026EA009CF090029DF090029EF090029FF0900262
:1026FA00A0F09002A1F09002A2F09002A3F0900242
:10270A00A4F09002A5F09002A6F09002A7F0900221
:10271A00A8F09002A9F09002AAF09002ABF0900201
:10272A00ACF09002ADF09002AEF09002AFF09002E1
:10273A00B0F09002B1F09002B2F09002B3F09002C1
:10274A00B4F09002B5F09002B6F09002B7F09002A1
:10275A00B8F09002B9F09002BAF09002BBF0900281
:10276A00BCF09002BDF09002BEF09002BFF0900261
:10277A00C0F09002C1F09002C2F09002C3F0900241
:10278A00C4F09002C5F09002C6F09002C7F0900221
:10279A00C8F09002C9F09002CAF09002CBF0900201
:1027AA00CCF09002CDF09002CEF09002CFF09002E1
:1027BA00D0F09002D1F09002D2F09002D3F09002C1
:1027CA00D4F09002D5F09002D6F09002D7F09002A1
:1027DA00D8F09002D9F09002DAF09002DBF0900281
:1027EA00DCF09002DDF09002DEF09002DFF0900261
:1027FA00E0F09002E1F09002E2F09002E3F0900241
:10280A00E4F09002E5F09002E614F09002E7F0900E
:10281A0002E8F09002E9F09002EAF09002EBF09000
:10282A0002ECF09002EDF09002EEF09002EFF090E0
:10283A0002F0F09002F1F09002F2F09002F3F090C0
:10284A0002F4F09002F5F09002F6F09002F7F090A0
:10285A0002F8F09002F9F09002FAF09002FBF09080
:10286A0002FCF09002FDF09002FEF09002FFF09060
:10287A000300F0900301F0900302F0900303F0903C
:10288A000304F0900305F0900306F0900307F0901C
:10289A000308F0900309F090030AF090030BF090FC
:1028AA00030CF090030DF090030EF090030FF090DC
:1028BA000310F0900311F0900312F0900313F090BC
:1028CA000314F0900315F0900316F0900317F0909C
:1028DA000318F0900319F090031AF090031BF0907C
:1028EA00031CF090031DF090031EF090031FF0905C
:1028FA000320F0900321F0900322F0900323F0903C
:10290A000324F0900325F0900326F0900327F0901B
:10291A000328F0900329F090032AF090032BF090FB
:10292A00032CF090032DF090032EF090032FF090DB
:10293A000330F0900331F0900332F0900333F090BB
:10294A000334F0900335F0900336F0900337F0909B
:10295A000338F0900339F090033AF090033BF0907B
:10296A00033CF090033DF090033EF090033FF0905B
:10297A000340F0900341F0900342F0900343F0903B
:10298A000344F0900345F0900346F0900347F0901B
:10299A000348F0900349F090034AF090034BF090FB
:1029AA00034CF090034DF090034EF090034FF090DB
:1029BA000350F0900351F0900352F0900353F090BB
:1029CA000354F0900355F0900356F0900357F0909B
:1029DA000358F0900359F090035AF090035BF0907B
:1029EA00035CF090035DF090035EF090035FF0905B
:1029FA000360F0900361F0900362F0900363F0903B
:102A0A000364E4F09003657402F090036623F09087
:102A1A0003677406F09003687408F0900369740AF7
:102A2A00F090036A740CF090036B740EF090036CD0
:102A3A007410F090036D7412F090036E7414F09099
:102A4A00036F7416F09003707418F0900371741A7F
:102A5A00F0900372741CF0900373741EF090037468
:102A6A007420F09003757422F09003767424F09029
:102A7A0003777426F09003787428F0900379742A07
:102A8A00F090037A742CF090037B742EF090037C00
:102A9A007430F090037D7432F090037E7434F090B9
:102AAA00037F7436F09003807438F0900381743A8F
:102ABA00F0900382743CF0900383743EF090038498
:102ACA007440F09003857442F09003867444F09049
:102ADA0003877446F09003887448F0900389744A17
:102AEA00F090038A744CF090038B744EF090038C30
:102AFA007450F090038D7452F090038E7454F090D9
:102B0A00038F7456F09003907458F0900391745A9E
:102B1A00F0900392745CF0900393745EF0900394C7
:102B2A007460F09003957462F09003967464F09068
:102B3A0003977466F09003987468F0900399746A26
:102B4A00F090039A746CF090039B746EF090039C5F
:102B5A007470F090039D7472F090039E7474F090F8
:102B6A00039F7476F09003A07478F09003A1747AAE
:102B7A00F09003A2747CF09003A3747EF09003A4F7
:102B8A007480F09003A57482F09003A67484F09088
:102B9A0003A77486F09003A87488F09003A9748A36
:102BAA00F09003AA748CF09003AB748EF09003AC8F
:102BBA007490F09003AD7492F09003AE7494F09018
:102BCA0003AF7496F09003B07498F09003B1749ABE
:102BDA00F09003B2749CF09003B3749EF09003B427
:102BEA0074A0F09003B574A2F09003B674A4F090A8
:102BFA0003B774A6F09003B874A8F09003B974AA46
:102C0A00F09003BA74ACF09003BB74AEF09003BCBE
:102C1A0074B0F09003BD74B2F09003BE74B4F09037
:102C2A0003BF74B6F09003C074B8F09003C174BACD
:102C3A00F09003C274BCF09003C374BEF09003C456
:102C4A0074C0F09003C574C2F09003C674C4F090C7
:102C5A0003C774C6F09003C874C8F09003C974CA55
:102C6A00F09003CA74CCF09003CB74CEF09003CCEE
:102C7A0074D0F09003CD74D2F09003CE74D4F09057
:102C8A0003CF74D6F09003D074D8F09003D174DADD
:102C9A00F09003D274DCF09003D374DEF09003D486
:102CAA0074E0F09003D574E2F09003D674E4F090E7
:102CBA0003D774E6F09003D874E8F09003D974EA65
:102CCA00F09003DA74ECF09003DB74EEF09003DC1E
:102CDA0074F0F09003DD74F2F09003DE74F4F09077
:102CEA0003DF74F6F09003E074F8F09003E174FAED
:102CFA00F09003E274FCF09003E374FEF09003E4B6
:102D0A0004F09003E514F09003E674FCF09003E7F6
:102D1A0074FAF09003E874F8F09003E974F6F0900E
:102D2A0003EA74F4F09003EB74F2F09003EC74F09D
:102D3A00F09003ED74EEF09003EE74ECF09003EF74
:102D4A0074EAF09003F074E8F09003F174E6F090FE
:102D5A0003F274E4F09003F374E2F09003F474E085
:102D6A00F09003F574DEF09003F674DCF09003F74C
:102D7A0074DAF09003F874D8F09003F974D6F090EE
:102D8A0003FA74D4F09003FB74D2F09003FC74D06D
:102D9A00F09003FD74CEF09003FE74CCF09003FF24
:102DAA0074CAF090040074C8F090040174C6F090DC
:102DBA00040274C4F090040374C2F090040474C052
:102DCA00F090040574BEF090040674BCF0900407F9
:102DDA0074BAF090040874B8F090040974B6F090CC
:102DEA00040A74B4F090040B74B2F090040C74B03A
:102DFA00F090040D74AEF090040E74ACF090040FD1
:102E0A0074AAF090041074A8F090041174A6F090BB
:102E1A00041274A4F090041374A2F090041474A021
:102E2A00F0900415749EF0900416749CF0900417A8
:102E3A00749AF09004187498F09004197496F090AB
:102E4A00041A7494F090041B7492F090041C749009
:102E5A00F090041D748EF090041E748CF090041F80
:102E6A00748AF09004207488F09004217486F0909B
:102E7A0004227484F09004237482F09004247480F1
:102E8A00F0900425747EF0900426747CF090042758
:102E9A00747AF09004287478F09004297476F0908B
:102EAA00042A7474F090042B7472F090042C7470D9
:102EBA00F090042D746EF090042E746CF090042F30
:102ECA00746AF09004307468F09004317466F0907B
:102EDA0004327464F09004337462F09004347460C1
:102EEA00F0900435745EF0900436745CF090043708
:102EFA00745AF09004387458F09004397456F0906B
:102F0A00043A7454F090043B7452F090043C7450A8
:102F1A00F090043D744EF090043E744CF090043FDF
:102F2A00744AF09004407448F09004417446F0905A
:102F3A0004427444F09004437442F0900444744090
:102F4A00F0900445743EF0900446743CF0900447B7
:102F5A00743AF09004487438F09004497436F0904A
:102F6A00044A7434F090044B7432F090044C743078
:102F7A00F090044D742EF090044E742CF090044F8F
:102F8A00742AF09004507428F09004517426F0903A
:102F9A0004527424F09004537422F0900454742060
:102FAA00F0900455741EF0900456741CF090045767
:102FBA00741AF09004587418F09004597416F0902A
:102FCA00045A7414F090045B7412F090045C741048
:102FDA00F090045D740EF090045E740CF090045F3F
:102FEA00740AF09004607408F09004617406F0901A
:102FFA0004627404F090046303F0900464E4F090B3
:10300A00046504F090046604F090046704F09004E8
:10301A006804F090046904F090046A04F090046B68
:10302A0004F090046C04F090046D04F090046E04B3
:10303A00F090046F04F090047004F090047104F0AE
:10304A0090047204F090047304F090047404F090F5
:10305A00047504F090047604F090047704F0900468
:10306A007804F090047904F090047A04F090047BD8
:10307A0004F090047C04F090047D04F090047E0433
:10308A00F090047F04F090048004F090048104F02E
:10309A0090048204F090048304F090048404F09075
:1030AA00048504F090048604F090048704F09004E8
:1030BA008804F090048904F090048A04F090048B48
:1030CA0004F090048C04F090048D04F090048E04B3
:1030DA00F090048F04F090049004F090049104F0AE
:1030EA0090049204F090049304F090049404F090F5
:1030FA00049504F090049604F090049704F0900468
:10310A009804F090049904F090049A04F090049BB7
:10311A0004F090049C04F090049D04F090049E0432
:10312A00F090049F04F09004A004F09004A104F02D
:10313A009004A204F09004A304F09004A404F09074
:10314A0004A504F09004A604F09004A704F09004E7
:10315A00A804F09004A904F09004AA04F09004AB27
:10316A0004F09004AC04F09004AD04F09004AE04B2
:10317A00F09004AF04F09004B004F09004B104F0AD
:10318A009004B204F09004B304F09004B404F090F4
:10319A0004B504F09004B604F09004B704F0900467
:1031AA00B804F09004B904F09004BA04F09004BB97
:1031BA0004F09004BC04F09004BD04F09004BE0432
:1031CA00F09004BF04F09004C004F09004C104F02D
:1031DA009004C204F09004C304F09004C404F09074
:1031EA0004C504F09004C604F09004C704F09004E7
:1031FA00C804F09004C904F09004CA04F09004CB07
:10320A0004F09004CC04F09004CD04F09004CE04B1
:10321A00F09004CF04F09004D004F09004D104F0AC
:10322A009004D204F09004D304F09004D404F090F3
:10323A0004D504F09004D604F09004D704F0900466
:10324A00D804F09004D904F09004DA04F09004DB76
:10325A0004F09004DC04F09004DD04F09004DE0431
:10326A00F09004DF04F09004E004F09004E104F02C
:10327A009004E204F09004E304F09004E404F09073
:10328A0004E504F09004E604F09004E704F09004E6
:10329A00E804F09004E904F09004EA04F09004EBE6
:1032AA0004F09004EC04F09004ED04F09004EE04B1
:1032BA00F09004EF04F09004F004F09004F104F0AC
:1032CA009004F204F09004F304F09004F404F090F3
:1032DA0004F504F09004F604F09004F704F0900466
:1032EA00F804F09004F904F09004FA04F09004FB56
:1032FA0004F09004FC04F09004FD04F09004FE0431
:10330A00F09004FF04F090050004F090050104F029
:10331A0090050204F090050304F090050404F0906F
:10332A00050504F090050604F090050704F09005E1
:10333A000804F090050904F090050A04F090050BC2
:10334A0004F090050C04F090050D04F090050E04AD
:10335A00F090050F04F090051004F090051104F0A8
:10336A0090051204F090051304F090051404F090EF
:10337A00051504F090051604F090051704F0900561
:10338A001804F090051904F090051A04F090051B32
:10339A0004F090051C04F090051D04F090051E042D
:1033AA00F090051F04F090052004F090052104F028
:1033BA0090052204F090052304F090052404F0906F
:1033CA00052504F090052604F090052704F09005E1
:1033DA002804F090052904F090052A04F090052BA2
:1033EA0004F090052C04F090052D04F090052E04AD
:1033FA00F090052F04F090053004F090053104F0A8
:10340A0090053204F090053304F090053404F090EE
:10341A00053504F090053604F090053704F0900560
:10342A003804F090053904F090053A04F090053B11
:10343A0004F090053C04F090053D04F090053E042C
:10344A00F090053F04F090054004F090054104F027
:10345A0090054204F090054304F090054404F0906E
:10346A00054504F090054604F090054704F09005E0
:10347A004804F090054904F090054A04F090054B81
:10348A0004F090054C04F090054D04F090054E04AC
:10349A00F090054F04F090055004F090055104F0A7
:1034AA0090055204F090055304F090055404F090EE
:1034BA00055504F090055604F090055704F0900560
:1034CA005804F090055904F090055A04F090055BF1
:1034DA0004F090055C04F090055D04F090055E042C
:1034EA00F090055F04F090056004F090056104F027
:0A34FA0090056204F090056304F0F1
:103E0600D296C29622AF83E582900160F0EFA3F0CE
:103E1600C296D292C2907F00900160E0A3E030E7A4
:103E260004D2978002C297C007123E06D0079001BF
:103E360060E0FDA3E0FEED2DFDEE33FE900160EDAA
:103E4600F0EEA3F00FBF100040CED290C292C29601
:103E5600229005647464F07401A3F090056674649E
:103E6600F07402A3F09005687464F07403A3F090F4
:103E7600056A7464F07404A3F090015FE0600302C5
:103E86003F2A90015DE075F002A42464F582740572
:103E960035F0F583E0FEA3E0FF900162E0FCA3E0CD
:103EA600FDEC2EF582ED3FF583E0FFE4C454F0CF40
:103EB600C4CF6FCF54F0CF6FFE8F04747F5EFD4387
:103EC600068043051043061090015EE0FBBB02200E
:103ED6008C028D035303DF90056CEAF0EBA3F08FA1
:103EE600028E035303DF90056EEAF0EBA3F0801613
:103EF60043052090056CECF0EDA3F04306209005F9
:103F06006EEFF0EEA3F090056CE0FEA3E0FF8E826C
:103F16008F83123E0B90056EE0FEA3E0FF8E828F2C
:103F260083123E0B900162E0FEA3E0FF8E048F0534
:103F3600BCFF0BBD0008900162E4F0A3F0229001E3
:103F46006274012EF0E43FA3F0222222AF83E582C1
:103F5600900570F0EFA3F0900570E0FEA3E0C45466
:103F6600F0CEC4CE6ECE54F0CE6EFF8E04747F5F5C
:103F7600FD4307804305104307105305DF5307DF52
:103F86008C828D83C007C006123E0BD006D0078EEA
:103F9600828F83023E0B90015FE0700990015F748F
:103FA60001F0C28C2290015FE4F0D28C2290015D78
:103FB600E0FFBF030690015DE4F02290015DEF048F
:103FC600F02290015E7402F02290015E7401F022EC
:103FD600AF83E582900572F0EFA3F03099FD90056E
:103FE60072E0FEA3E0FF8E99C2998E828F83221023
:103FF600980280FBAE997F008E828F8322AF83E585
:1040060082900574F0EFA3F0900574E0FEA3E0FF44
:1040160030E70302409CC3740F9E74808FF063F0F8
:104026008095F0500302409CEE240A83F582EE242C
:104036001483F583E473605C64686C7074787C80C8
:1040460084888C9094984040404040404040404096
:104056004040404040407582312275823022758250
:104066003222758233227582342275823522758218
:1040760036227582372275823822758239227582F8
:1040860041227582422275824322758244227582BC
:1040960045227582462275823022E582900576F0A9
:1040A600E0FFBF3000400EEF24C64009EF24D09059
:1040B6000576F08038900576E0FFBF61004013EF8B
:1040C6002499400EEF249F900576F0E0FF240AF035
:1040D600801B900576E0FFBF41004011EF24994018
:1040E6000CEF24BF900576F0E0FF240AF0900576E9
:1040F600E0F58222AF82AE83ADF0FC900578EFF05A
:10410600EEA3F0EDA3F0ECA3F0900577E0FF9005A9
:1041160078E0FBA3E0FCA3E0FDA3E0FEC3740F9BE5
:10412600E49CE49DE49E9200C374FF9BE49CE49DA2
:10413600E49E9201C374FF9B740F9CE49DE49E92DF
:1041460002C374818FF063F08095F0503BBF02028A
:104156008026BF03028012BF042B20022890003065
:10416600C007123FD6D007801C200119900030C02E
:1041760007123FD6D007800D20000A900030C007F6
:10418600123FD6D0071F80B9EFFD3395E0FEED2430
:104196007CF508EE3405F509900578E0F50AA3E00C
:1041A600F50BA3E0F50CA3E0F50D740F550AF87CAA
:1041B6000088828C83C007124003AE82D007850830
:1041C60082850983EEF0AB0AE50BC4CBC4540F6BB2
:1041D600CB540FCB6BCBFCE50CC454F04CFCAD0CB4
:1041E600E50DC4CDC4540F6DCD540FCD6DCDFE90ED
:1041F6000578EBF0ECA3F0EDA3F0EEA3F00F90053D
:1042060078E0F5F0A3E042F0A3E042F0A3E045F049
:10421600600302418EEF14900586F0E0FFEF20E781
:1042260022EFFD3395E0FEED247CF582EE3405F5B4
:1042360083E0FE7D008E828D83C007123FD6D007B5
:104246001F80DA22AF83E582900587F0EFA3F09016
:104256000587E0FEA3E0FF8E828F83E0FD60207C71
:10426600008D828C83C007C006123FD6D006D007C9
:104276000EBE00010F900587EEF0EFA3F080D890F8
:104286000587EEF0EFA3F022AF82AE83ADF0FC908F
:104296000589EFF0EEA3F0EDA3F0ECA3F09005890D
:1042A600E0FCA3E0FDA3E0FEA3E0FF30E7299000D9
:1042B6002DC007C006C005C004123FD6D004D005E5
:1042C600D006D007900589C3E49CF0E49DA3F0E4F2
:1042D6009EA3F0E49FA3F07F00EFFD3395E0FEED93
:1042E600248DF50EEE3405F50F900589E0F510A343
:1042F600E0F511A3E0F512A3E0F5139005B9740AF1
:10430600F0E4A3F0A3F0A3F0851082851183851253
:10431600F0E513C007124601A882743028850E8284
:10432600850F83F09005CA740AF0E4A3F0A3F0A306
:10433600F08510828511838512F0E5131247F5ABDF
:1043460082AC83ADF0FED007900589EBF0ECA3F0CC
:10435600EDA3F0EEA3F00F900589E0FBA3E0FCA32C
:10436600E0FDA3E0FEC3E49BE49CE49D74808EF034
:1043760063F08095F050030242DFEF14900597F04A
:10438600E0FFEF20E722EFFD3395E0FEED248DF50B
:1043960082EE3405F583E0FE7D008E828D83C007B4
:1043A600123FD6D0071F80DA22E582900598F0905A
:1043B6000599E4F09005AEF09005AFF0A3F09005F6
:1043C60099E0FFBF0D03024458123FF5AE82AF835A
:1043D600900599EEF0BE30004005EE24C65014BE9E
:1043E60061004005EE2499500ABE41004041EE248A
:1043F600B9403C8E057F008D828F83C006123FD662
:10440600D0069005AEE0FF249AFCE43405FD8E82CA
:10441600C007C005C0041240A0AB82D004D005D0AE
:10442600078C828D83EBF09005AEEF04F0808FBE93
:10443600080280030243C4900008123FD690002071
:10444600123FD6900008123FD69005AEE014F00257
:1044560043C4900598E0FF9005AEE0FE7D00C3EDF5
:104466009E50579005AFE0FBA3E0FC9005DFEFF010
:10447600E4A3F08B828C83C007C006C005124AEC09
:10448600E5828583F0D005D006D0079005AFF0E52C
:10449600F0A3F0ED249AF582E43405F583E0FC7B85
:1044A600009005AFE0F9A3E0FAEC29F9EB3AFA90AF
:1044B60005AFE9F0EAA3F00D80A49005AFE0FEA3F6
:1044C600E08E82F58322AF82AE83ADF0FC9005B11B
:1044D600EFF0EEA3F0EDA3F0ECA3F09005B1E0FC55
:1044E600A3E0FDA3E0FEA3E0FF780079007A007B5D
:1044F60000C3E89CE99DEA9EEB9F503775276075DF
:104506002804E4F529F52A152774FFB5270C152884
:10451600B528071529B52902152AE527452845296D
:10452600452A70E308B8000909B900050ABA00C1AE
:104536000B80BE22AF82AE83ADF0FC9005B5EFF0E6
:10454600EEA3F0EDA3F0ECA3F09005B5E0F514A30F
:10455600E0F515A3E0F516A3E0F517780079007AE3
:10456600007B008514828515838516F0E517C00348
:10457600C002C001C000124AA9AC82AD83AEF0FFF2
:10458600C004C005C006C007905C2975F08F743F53
:104596001248B185821885831985F01AF51BE581C5
:1045A60024FCF581D000D001D002D0038882898313
:1045B6008AF0EBC003C002C001C000124AA9AC8257
:1045C600AD83AEF0FFC018C019C01AC01B8C828D17
:1045D600838EF0EF124ABCAF82E58124FCF581D0D0
:1045E60000D001D002D003EF601008B8000909B965
:1045F60000050ABA00010B02456922AF82AE83ADFF
:10460600F0FC9005BDEFF0EEA3F0EDA3F0ECA3F007
:104616009005BDE0FCA3E0FDA3E0FEA3E0FF30E7CC
:104626000FC3E49CF8E49DF9E49EFAE49FFB80083E
:104636008C008D018E028F039005B9E0FCA3E0FD8E
:10464600A3E0FEA3E0FF30E713C3E49CF51CE49D62
:10465600F51DE49EF51EE49FF51F80088C1C8D1D3C
:104666008E1E8F1F9005C1E51CF0E51DA3F0E51E0B
:10467600A3F0E51FA3F0888289838AF0EB1246B582
:10468600AC82AD83AEF0FF9005BDE0A3E0A3E0A34E
:10469600E030E713C3E49CF8E49DF9E49EFAE49F56
:1046A600888289838AF0228C828D838EF0EF22AFF6
:1046B60082AE83ADF0FC9005C5EFF0EEA3F0EDA35E
:1046C600F0ECA3F09005C9E4F09005C5E0FCA3E08A
:1046D600FDA3E0FEA3E0FF7B009005C1E0F527A364
:1046E600E0F528A3E0F529A3E0F52A235401FA70A2
:1046F60074C003E5272527F8E52833F9E52933FAB9
:10470600E52A33FB9005C1E8F0E9A3F0EAA3F0EB54
:10471600A3F09005C1E0F527A3E0F528A3E0F5296D
:10472600A3E0F52AC3EC9527ED9528EE9529EF959C
:104736002AD0035027E52AC313F52AE52913F529BC
:10474600E52813F528E52713F5279005C1F0E52898
:10475600A3F0E529A3F0E52AA3F080090B9005C98B
:10476600EBF00246DF9005C9E0FF9005C5E0FBA32C
:10477600E0FCA3E0FDA3E0FE9005C1E0F527A3E081
:10478600F528A3E0F529A3E0F52AC3EB9527EC95D8
:1047960028ED9529EE952A40179005C5EBC3952778
:1047A600F0EC9528A3F0ED9529A3F0EE952AA3F059
:1047B6009005C1E0FBA3E0FCA3E0FDA3E0C313FE6C
:1047C600ED13FDEC13FCEB139005C1F0ECA3F0ED3B
:1047D600A3F0EEA3F08F061FEE708F9005C5E0FCE8
:1047E600A3E0FDA3E0FEA3E08C828D838EF022AFD2
:1047F60082AE83ADF0FC9005CEEFF0EEA3F0EDA314
:10480600F0ECA3F09005CEE0FCA3E0FDA3E0FEA350
:10481600E0FF30E70FC3E49CF8E49DF9E49EFAE478
:104826009FFB80088C008D018E028F039005CAE0E5
:10483600FCA3E0FDA3E0FEA3E0FF33E433F5226032
:1048460013C3E49CF523E49DF524E49EF525E49F3B
:10485600F52680088C238D248E258F269005D2E59B
:1048660023F0E524A3F0E525A3F0E526A3F088824E
:1048760089838AF0EB124982AC82AD83AEF0FF9059
:1048860005CEE0A3E0A3E0A3E033E43365226013A2
:10489600C3E49CF8E49DF9E49EFAE49F8882898348
:1048A6008AF0228C828D838EF0EF22124954BC004E
:1048B60003024B76EF60FA30D502B2D1E583B4FF3E
:1048C60003024B8CE582B4FF03024B8C2583400721
:1048D6002482400B024B762483145003024B8CF542
:1048E60082EA8DF0A4A8F0EA8EF0A428F8E435F068
:1048F600F9EB8DF0A428E935F0F9E433CA8FF0A47A
:1049060029F9EA35F0FAEBF88EF0A429F9EA35F040
:10491600FAE433FBEC8DF0A429F9EA35F0FAE43B2E
:10492600FBE88FF0A42AFAEB35F0FBE433CCFD8EDE
:10493600F0A42AFAEB35F0FBE43CFCED8FF0A42B57
:10494600FBEC35F0FC20E703124A76024B55AA82AF
:10495600AB83A2F73392D1F5826002D2F7ACF0E5D1
:104966008124F9F8E6FD08E6FE0886F008E6A2F7D7
:104976003392D5F5836002D2F7AFF022AF82AE83D1
:10498600ADF0FC9005D6EFF0EEA3F0EDA3F0ECA3AE
:10499600F09005DAE4F0A3F0A3F0A3F09005D2E0DE
:1049A600FCA3E0FDA3E0FEA3E0FF7B20C00390058F
:1049B600D6E0F8A3E0F9A3E0FAA3E0FB9005DE2336
:1049C6005401F0E828F8E933F9EA33FAEB33FB90BF
:1049D60005D6E8F0E9A3F0EAA3F0EBA3F09005DA38
:1049E600E0F8A3E0F9A3E0FAA3E0FBE828F8E9334E
:1049F600F9EA33FAEB33FB9005DAE8F0E9A3F0EADB
:104A0600A3F0EBA3F0D0039005DEE060089005DA92
:104A1600E043E001F09005DAE0F527A3E0F528A3EE
:104A2600E0F529A3E0F52AC3E5279CE5289DE529BD
:104A36009EE52A9F401F9005DAE527C39CF0E528EE
:104A46009DA3F0E5299EA3F0E52A9FA3F09005D645
:104A5600E043E001F01BEB60030249B29005D6E0AB
:104A6600FCA3E0FDA3E0FEA3E08C828D838EF02202
:06204000E478FFF6D8FD74
:104A76007804EC7011E58224F8500AF582E4C9CA7C
:104A8600CBFCD8EF22EC7820058220E713D58201F3
:104A960022C3E933F9EA33FAEB33FBEC33FCD8EA09
:034AA60015822254
:10201E007900E94400601B7A00904BA478E175A02A
:10202E0005E493F2A308B8000205A0D9F4DAF2751C
:02203E00A0FF01
:104AA900FCABF0AA83A982749EC2D1F582124A7620
:104AB900024B55FFA8811818124B2AD2D133E64070
:104AC9000730E70B7582002220E70675820122C2B2
:104AD900D1124B0CE97003F5822220D101B3E433E2
:104AE900F58222AA83AB828BF09005DFE0A4F8A9B6
:104AF900F08AF0E0A429F98BF0A3E0A429F58388D2
:034B0900822222E3
:102046007800E84400600A790175A000E4F309D835
:10205600FC78E0E84405600C7906900001E4F0A302
:04206600D8FCD9FACF
:104B0C007901AA82E68F82B5821318E6B5F00E18E9
:104B1C00E6B5830918E68A82B58202790022B48050
:104B2C000FE5F0700AE5837006E58270027F00EFF6
:104B3C00B6801518B6001018B6000B18B60006088B
:104B4C00080876002208080822B98003EA13B3404B
:104B5C0010EA2401FAE43BFBE43CFC50047C8005A5
:104B6C0082BC000EBB000BBA0008E4F5F0F583F52F
:104B7C008222A2D1E582138CF092F78B838A822257
:104B8C00E4F583F58275F080F4A2D11322E4F58369
:084B9C00F58275F0C0747F2260
:0D20110075812A123507E582600302200E5A
:00000001FF
