:02462D008813F0
:03200000022006B5
:0320650002200353
:032003000222A115
:20206800438E0C90000022AF83E582901389F0EFA3F03099FD901389E0FEA3E0FF8E99C257
:20208800998E828F832210980280FBAE997F008E828F832290138BE4F0A3F090138DF090E7
:2020A800138DE0FF248EFDE43413FEC007C006C00512208EAB82AC83D005D006D0078D82C2
:2020C8008E83EBF0EB70030221498D828E83E0FCBC0D02806C8D828E83E0FDBD081C900021
:2020E80008C00712206F90002012206F90000812206FD007EF1490138DF090138DE0FF24B1
:202108008EFDE43413FE8D828E83E0FCBC3000408EEC24C640897B008C828B83C007C0068A
:20212800C00512206FD005D006D0078D828E83E024D0FC8D828E83F090138DEF04F002207A
:20214800A790138DE0FF7D007E008F037C00C3ED9BEE64808CF063F08095F0505990138BF0
:20216800E0FBA3E0FC901473EBF0ECA3F090000AC007C006C00512348CAB82AC83D005D0CD
:2021880006D00790138BEBF0ECA3F0ED248EF582EE3413F583E0FC7B0090138BE0F9A3E02E
:2021A800FAEC29F9EB3AFA90138BE9F0EAA3F00DBD00970E809490138BE0FEA3E08E82F555
:2021C800832290139EE4F0A3F09013A0F0A3F09013A0E0F5F0A3E045F060030222951220D6
:2021E8009CAE82AF83C007C006C006C007742FC0E07446C0E01231DEE58124FCF581D0062F
:20220800D007C3EE9420EF64809480400E74C09E74928FF063F08095F0501E744EC0E07452
:2022280046C0E01231DE158115819013A0E4F0A3F090139EF0A3F080969014757410F0E46E
:20224800A3F08E828F83C007C0061234ACE5828583F0D006D00745F070149013A07401F0D5
:20226800E4A3F090139EEEF0EFA3F00221D7744EC0E07446C0E01231DE1581158190139EFA
:20228800E4F0A3F09013A0F0A3F00221D790139EE0FEA3E08E82F583229013A2E4F0A3F017
:2022A8009013A4F0A3F07473C0E07446C0E01231DE158115817493C0E07446C0E07480C069
:2022C800E01239961581158115811221CAAE82AF83C007C006123323AC82AD83D006D00714
:2022E800EC4D701FC007C006C005C00474C8C0E07446C0E01231DE15811581D004D005D0FC
:2023080006D0078E828F83C007C006C005C004123323AA82AB83D004D005D006D0079013E5
:20232800A6EAF0EBA3F0EA4B7056C006C007C007C006C005C004C003C00274E6C0E07446C0
:20234800C0E01231DE15811581D002D003D004D005D006D0078C008D017F00888289838F4F
:20236800F0C007C006C005C004C003C002123087D002D003D004D005D006D007D007D00659
:20238800EC4D70030222D2EA4B70030222D28C008D0188158916C007C006C005C004C003C6
:2023A800C002C015C0167404C0E07447C0E01231DEE58124FCF581D002D003C003C002C02E
:2023C80002C0037426C0E07447C0E01231DEE58124FCF5817448C0E07447C0E01231DE1591
:2023E8008115817475C0E07447C0E01231DE15811581748DC0E07447C0E01231DE158115C5
:202408008174C1C0E07447C0E01231DE158115817403C0E07448C0E01231DE158115817482
:2024280021C0E07448C0E01231DE158115817446C0E07448C0E01231DE158115817479C07A
:20244800E07448C0E01231DE1581158174B0C0E07448C0E01231DE15811581D002D003D009
:2024680004D005D006D007E4F508F509750A02F50B750C02F50DC002C003C007C006C00512
:20248800C00412208EAA82AB83D004D005D006D0078A0E0508E4B508020509850E0F751083
:2024A80000850F82851083C007C006C005C004C003C00212206F74F6C0E07448C0E0123101
:2024C800DE15811581D002D003D004D005D006D007C3E50E9441D003D002500302257DE5E3
:2024E8000E24A5500302257DC002C0039013A4E0F511A3E0F5128E028F03C3E5119AE5125E
:202508009BD003D002506E9013A2E02401F0A3E03400F0E5112CF582E5123DF583E50EF0AC
:202528009013A474012511F0E43512A3F0C007C006C005C004C003C0029013A2E0C0E0A3F0
:20254800E0C0E0C008C0099013A4E0C0E0A3E0C0E074F9C0E07448C0E07480C0E01235C074
:20256800E58124F7F581D002D003D004D005D006D00702247EC002C0039013A4E0FAA3E094
:20258800FB8E118F12EAB51106EBB512028006D003D002805AD003D002742BB50E02804FB1
:2025A800742DB50E028048743FB50E028041743DB50E02803A7440B50E028033850F8285B5
:2025C8001083C007C006C005C004C003C00212206F7426C0E07449C0E01231DE1581158140
:2025E800D002D003D004D005D006D00702247E742BB50E0280030227A0C002C003C007C078
:2026080006C005C004C003C002743CC0E07449C0E01231DE158115817457C0E07449C0E0DC
:202628001231DE15811581D002D00312209CAA82AB83D004D005D006D0078A0F8B1090144A
:2026480060E50FF0E510A3F0C3E50F9414E51064809480D003D00240107490950F74818543
:2026680010F063F08095F05007901460E4F0A3F0C002C003E50C250CFAE50D33FBEA24A8C1
:20268800F50FEB3413F510901460E0F513A3E0F514851382851483C007C006C005C0041221
:2026A8003323AA82AB83D004D005D006D007850F82851083EAF0EBA3F0EA4BD003D002703C
:2026C80030C007C006C005C004C003C002C00CC00D7488C0E07449C0E01231DEE58124FCEE
:2026E800F581D002D003D004D005D006D00702247EC002C003C007C006C005C004C003C09F
:2027080002C00CC00D74CBC0E07449C0E01231DEE58124FCF581C013C014C00CC00D74FA0F
:20272800C0E07449C0E01231DEE58124FAF581D002D003850F82851083E0FAA3E0FBC0038B
:20274800C002C002C003C00CC00D7423C0E0744AC0E01231DEE58124FAF581D002D003D06C
:2027680004D005D006D007E50A250AFAE50B33FBEA2402F582EB3414F583E513F0E514A3DF
:20278800F0050AE4B50A02050B050CE4B50C02050DD003D00202247E742DB50E028003027F
:2027A8002949C002C003C007C006C005C004C003C0027449C0E0744AC0E01231DE158115F8
:2027C80081D002D00312209CAA82AB83D004D005D006D0078A138B14D003D002E51345141B
:2027E800702AC007C006C005C004C003C0027469C0E0744AC0E01231DE15811581D002D0D2
:2028080003D004D005D006D00702247E7401B5130614B514028002805BC002C0039013A666
:20282800E0FAA3E0F97B008A8289838BF0C007C006C005C004C003C0021230877489C0E02B
:20284800744AC0E01231DE158115819013A6E4F0A3F0749FC0E0744AC0E01231DE15811538
:2028680081D002D003D004D005D006D007D003D00202247EC374019513E4951440030229B0
:202888001FC3E513950CE514950D400302291FC002C003C007C006C005C004C003C002C0AD
:2028A80013C01474B0C0E0744AC0E01231DEE58124FCF581D002D003E5132513F8E51433F1
:2028C800F9E824A8F50FE93413F510850F82851083E0FAA3E0F97B008A8289838BF0C003B5
:2028E800C002123087C013C01474C8C0E0744AC0E01231DEE58124FCF581D002D003D004CE
:20290800D005D006D007850F82851083E4F0A3F0D003D00202247EC007C006C005C004C079
:2029280003C00274DEC0E0744AC0E01231DE15811581D002D003D004D005D006D00702240C
:202948007E743DB50E028003022A90C007C006C005C004C003C0027424C0E0744BC0E012F8
:2029680031DE15811581D002D003D004D005D006D0079013A2E0F50FA3E0F510E4F513F587
:2029880014C3E513950FE5149510400302247EE5134514704CC002C003E5132CFAE5143D51
:2029A800FB8A828B83E0F87900C007C006C005C004C003C002C000C001C002C003744EC086
:2029C800E0744BC0E01231DEE58124FAF581D002D003D004D005D006D007D003D002022AC9
:2029E80085740F5513F87900496045C002C003E5132CF582E5143DF583E0FB7A00C007C056
:202A080006C005C004C003C002C003C0027458C0E0744BC0E01231DEE58124FCF581D0025B
:202A2800D003D004D005D006D007D003D002804DE8497049C002C003E5132CF8E5143DF939
:202A480088828983E0FB7A00C007C006C005C004C003C002C003C002C000C001745CC0E0F2
:202A6800744BC0E01231DEE58124FAF581D002D003D004D005D006D007D003D0020513E438
:202A8800B5130205140229897440B50E028003022BE8C002C003C007C006C005C004C00328
:202AA800C0027468C0E0744BC0E01231DE15811581D002D003D004D0058C008D017B0088B9
:202AC8008289838BF0C005C004C003C002123087747FC0E0744BC0E01231DE15811581745B
:202AE80094C0E0744BC0E01231DE15811581D002D0039013A6E0FAA3E0F97B008A82898317
:202B08008BF0C003C00212308774ABC0E0744BC0E01231DE15811581D002D003D004D0052B
:202B2800D006D007850C13850D14750F02751000D003D002C3E50F9513E5109514400302A4
:202B48002BCAC002C003C007C006C005C004C003C002C00FC01074C0C0E0744BC0E0123143
:202B6800DEE58124FCF581D002D003E50F250FF8E51033F9E824A8F582E93413F583E0F8E2
:202B8800A3E0F97B00888289838BF0C003C002123087C00FC01074D8C0E0744BC0E012312A
:202BA800DEE58124FCF581D002D003D004D005D006D007050FE4B50F020510D003D00202BE
:202BC8002B3CC007C006C005C004C003C0021222A1D002D003D004D005D006D00702247E77
:202BE800743FB50E02800302247EC007C006C005C004C003C00274EFC0E0744BC0E01231EE
:202C0800DE158115817429C0E0744CC0E01231DE15811581C015C0167436C0E0744CC0E063
:202C28001231DEE58124FCF581A815A916E51128F8E51239F9C000C0017454C0E0744CC04B
:202C4800E01231DEE58124FCF581D002D003D004D005D006D007C007C006C005C004C0039B
:202C6800C002C006C0077472C0E0744CC0E01231DEE58124FCF5819013A2E0F8A3E0F9C0A1
:202C880001C000C000C0017484C0E0744CC0E01231DEE58124FCF581D000D001E511C398E3
:202CA800F8E51299F9C000C00174B4C0E0744CC0E01231DEE58124FCF58174DBC0E0744C16
:202CC800C0E01231DE15811581D002D003D004D005D006D0079013A6E0F5F0A3E045F070CE
:202CE80003022DD1C007C006C005C004C003C0027427C0E0744DC0E01231DE15811581D075
:202D080002D003C003C002C002C0037434C0E0744DC0E01231DEE58124FCF581D002D00361
:202D28008A008B01E51128F8E51239F9C003C002C000C0017454C0E0744CC0E01231DEE562
:202D48008124FCF581D002D003D004D005D006D007C007C006C005C004C003C002C006C038
:202D6800077472C0E0744CC0E01231DEE58124FCF5817451C0E0744DC0E01231DE158115AF
:202D880081D002D003D004D005D006D007C007C006C005C004C003C002C006C00774B4C09F
:202DA800E0744CC0E01231DEE58124FCF58174DBC0E0744CC0E01231DE15811581D002D070
:202DC80003D004D005D006D007850C11850D12751302751400C002C003AA13AB14C3EA95F6
:202DE80011EB9512D003D0024003022F1FC002C003C007C006C005C004C003C002C013C03D
:202E08001474A0C0E0744DC0E01231DEE58124FCF581D002D003E5132513FAE51433FBEA84
:202E280024A8F50FEB3413F510850F82851083E0F8A3E0F9C003C002C000C00174AEC0E039
:202E4800744DC0E01231DEE58124FCF581D002D003850F82851083E0F8A3E0F9880F891095
:202E6800EA2402FAEB3414FB8A828B83E0F8A3E0F9E8250FF8E93510F9C003C002C000C064
:202E88000174C7C0E0744DC0E01231DEE58124FCF581D002D0038A828B83E0F8A3E0F9C0FD
:202EA80003C002C000C00174E1C0E0744DC0E01231DEE58124FCF58174F6C0E0744DC0E0E6
:202EC8001231DE15811581D002D0038A828B83E0FAA3E0FBC003C002C002C003741BC0E04D
:202EE800744EC0E01231DEE58124FCF58174DBC0E0744CC0E01231DE15811581D002D0030A
:202F0800D004D005D006D0070513E4B513020514D003D002022DDD9013A2E0F8A3E0F9C06A
:202F280007C006C005C004C003C002C001C000C000C001743AC0E0744EC0E01231DEE58175
:202F480024FCF581C008C0097460C0E0744EC0E01231DEE58124FCF581C00AC00B748DC0F9
:202F6800E0744EC0E01231DEE58124FCF581D000D001C001C000C000C00174E1C0E0744E90
:202F8800C0E01231DEE58124FCF58174DBC0E0744CC0E01231DE15811581D000D001D0025D
:202FA800D003D004D005D006D00788118912E4F513F514C002C003AA13AB14C3E5119AE57E
:202FC800129BD003D00250030230779014757420F0E4A3F0851382851483C007C006C005FF
:202FE800C004C003C0021234ACE5828583F0D002D003D004D005D006D00745F0603FC0029E
:20300800C003E5132CFAE5143DFB8A828B83E0F8790088828983C007C006C005C004C0033C
:20302800C00212206FD002D003D004D005D006D0078A828B83E4F0D003D0028027C007C069
:2030480006C005C004C003C00274F6C0E07448C0E01231DE15811581D002D003D004D00553
:1F306800D006D0070513E4B513020514022FBB9013A2E4F0A3F09013A4F0A3F002247EB7
:20462F000A200D2054686520696E707574206E756D6265722069733A2564200A200D00499B
:20464F006E76616C6964206E756D6265722120506C656173652074727920616761696E2EBC
:20466F000A200D000A0D2A2A2A2A2A2A2A2A2A2048454C4C4F203A29202A2A2A2A2A2A2A06
:20468F002A0A0D000A0D456E7465722061206E756D626572206265747765656E20333220DC
:2046AF0026203438303020666F72206275666665722073697A650A0D00627566666572204C
:2046CF0030206372656174696F6E206973206661696C65640A0D00627566666572203120A3
:2046EF006372656174696F6E206973206661696C65640A0D005374617274204164647265B0
:20470F007373206F662062756666657230203D20307825780A0D00537461727420416464D5
:20472F0072657373206F662062756666657231203D20307825780A0D004275666665725F5B
:20474F003020616E64204275666665725F31207375636365737366756C6C792063726561BD
:20476F007465640A0D000A0D204F5054494F4E5320544F2043484F4F5345200A0D00596FD0
:20478F00752063616E20656E746572206368617261637465727320746F2062652073746F65
:2047AF0072656420696E2062756666657220300A0D00456E746572202B20746F2063726511
:2047CF006174652061206E657720627566666572206F662073697A65206265747765656E31
:2047EF0020323020616E64203430302062797465730A0D00456E746572202D20746F2064F1
:20480F00656C6574652061206275666665722E0A0D00456E746572203F20746F2067656E60
:20482F00657261746520612068656170207265706F72742E0A0D00456E746572203D207429
:20484F006F20646973706C61792063757272656E7420636F6E74656E7473206F6620627527
:20486F006666657220302E0A0D00456E746572204020746F206672656520616C6C2062757E
:20488F00666665727320616E642073746172742070726F6772616D20616761696E2E0A0DD5
:2048AF00000A0D2A2A2A2A2A2A2A2A2A2A2A2A2A2A2A2A2A2A2A2A2A2A2A2A2A2A2A2A54E6
:2048CF0048414E4B20594F552A2A2A2A2A2A2A2A2A2A2A2A2A2A2A2A2A2A2A2A2A2A2A2A9A
:2048EF002A2A2A2A0A0D000A0D00636F756E7465723D25642C20746F74616C2063686172DF
:20490F003D25642C2073746F7261676520636861723D25640A0D000A0D6275666665722035
:20492F00302069732066756C6C2E0A0D000A0D20437265617465732061206E657720627544
:20494F0066666572200A0D000A0D456E74657220746865206E657720627566666572207361
:20496F00697A65206265747765656E20323020616E64203430300A0D000A0D4D656D6F721F
:20498F007920416C6C6F636174696F6E20666F72204275666665725F2564204661696C659F
:2049AF00640A0D507265737320272B2720746F2054727920616761696E0A0D000A0D2053A4
:2049CF0075636365737366756C20616C6C6F6361746564206D656D6F727920666F722042B0
:2049EF0075666665725F25640A0D000A0D4275666665725F25642068617320616C6C6F63B1
:204A0F006174656420612073697A65206F662025640A0D000A0D5374617274204164647218
:204A2F00657373206F66206275666665725F2564203D20307825780A0D000A0D456E746529
:204A4F007220612076616C696420627566666572206E756D6265720A0D000A0D4275666630
:204A6F00657220302063616E6E6F742062652064656C65746564210A0D000A0D44656C65B6
:204A8F0074696E672062756666657220310A0D0042756666657220312069732066726565EA
:204AAF00000A0D44656C6574696E6720627566666572202564200A0D000A0D42756666652B
:204ACF007220256420697320467265650A0D000A0D456E74657220612076616C69642062AF
:204AEF007566666572206E756D6265720A0D507265737320272D2720746F2064656C6574F6
:204B0F006520616E792076616C6964206275666665720A0D000A0D5468652053746F726573
:204B2F0064204368617261637465727320696E204275666665722030206172650A0D003082
:204B4F007825783E3E20257800202578000A0D307825783E3E202578000A0D44656C6574A1
:204B6F00696E67204275666665722030200A0D000A0D427566666572203020697320667232
:204B8F0065650A0D000A0D44656C6574696E67204275666665722031200A0D000A0D427512
:204BAF0066666572203120697320667265650A0D000A0D44656C6574696E67206275666617
:204BCF0065725F2564200A0D000A0D4275666665722025642069732066726565200A0D00C1
:204BEF002A2A2A2A2A2A2A2A2A2A2A2A2A2A2A2A2A2A2A2A205245504F5254204F46204845
:204C0F00454150202A2A2A2A2A2A2A2A2A2A2A2A2A2A2A2A2A2A2A2A2A000A0D4275666683
:204C2F00657220300A0D000A0D497473205374617274204164647265737320203D20307887
:204C4F0025780A0D000A0D49747320456E64696E672041646472657373203D20307825782D
:204C6F000A0D000A0D4974732053697A65203D2025640A0D000A0D43757272656E74205382
:204C8F00746F72616765206368617261637465727320696E206275666665722030203D20E5
:204CAF0025640A0D000A0D43757272656E7420467265652053706163657320696E2062753C
:204CCF0066666572203D2025640A0D000A0D2D2D2D2D2D2D2D2D2D2D2D2D2D2D2D2D2D2DC4
:204CEF002D2D2D2D2D2D2D2D2D2D2D2D2D2D2D2D2D2D2D2D2D2D2D2D2D2D2D2D2D2D2D2D05
:204D0F002D2D2D2D2D2D2D2D2D2D2D2D2D2D2D2D2D2D2D2D2D0A0D000A0D4275666665724B
:204D2F0020310A0D000A0D4974732053746172742041646472657373203D20307825780AD5
:204D4F000D000A0D53746F72616765206368617261637465727320696E206275666665727A
:204D6F00203D302C20626563617573652073746F72616765206368617261637465727320FE
:204D8F0061726520402062756666657220300A0D000A0D4275666665722025640A0D000A30
:204DAF000D53746172742041646472657373203D20307825780A0D000A0D456E64696E679E
:204DCF002041646472657373203D20307825780A0D000A0D4275666665722053697A6520B9
:204DEF003D2025640A0D000A0D53746F72616765206368617261637465727320696E206202
:204E0F007566666572203D20300A0D000A0D467265652053706163657320696E206275663B
:204E2F00666572203D2025640A0D000A0D4E756D626572206F662073746F726167652063FC
:204E4F00686172616374657273203D2025640A0D000A0D546F74616C206E756D6265722085
:204E6F006F662063686172616374657273207265636569766564203D2025640A0D000A0D73
:204E8F00546F74616C206E756D626572206F66206275666665727320746861742077657215
:204EAF006520616C6C6F63617465642073696E636520746865207374617274206F6620744B
:204ECF0068652070726F6772616D203D2025640A0D000A0D546F74616C2073746F726167F6
:204EEF006520636861726163746572732073746F7265642073696E6365206C617374202700
:0A4F0F003F27203D2025640A0D0015
:20308700AFF0AE83E582901462F0EEA3F0EFA3F0901462E0FDA3E0FEA3E0901462E0F5F047
:2030A700A3E045F0700122901467E4F0A3F090146BE0FBA3E0FC901465EBF0ECA3F09014DC
:2030C70069746BF07414A3F0901465E0FBA3E0FC4B60418B018C02C003C0048D008E04C3C4
:2030E700E998EA9CD004D003502A901467EBF0ECA3F074022BFBE43CFC901469EBF0ECA30D
:20310700F08B828C83E0FBA3E0FC901465EBF0ECA3F080B4901465E0FEA3E0FF901462E05C
:20312700FBA3E0FCA3E0EB24FEFBEC34FFFC74022BFAE43CFD8A828D83EEF0EFA3F0901490
:2031470069E0F8A3E0F988828983EBF0ECA3F08B828C83E0F8A3E0F9EEB50033EFB5012F21
:2031670088828983A3A3E0FEA3E0FF8A828D83EEF0EFA3F08B828C83E0FEA3E0FF8E828FF5
:2031870083E0FEA3E0FF8B828C83EEF0EFA3F0901467E0FEA3E0FF4E603C8E828F83E0F87A
:2031A700A3E0F9E8B5032FE9B5042B8B828C83E0FBA3E0FC8E828F83EBF0ECA3F074022E5A
:1731C700FEE43FFF8A828D83E0FAA3E0FD8E828F83EAF0EDA3F022BD
:06203500E478FFF6D8FD7F
:202013007900E94400601B7A00904F2478FD75A014E493F2A308B8000205A0D9F4DAF275F0
:02203300A0FF0C
:2031DE00C01D85811DE51D24FDF8868318868218E493A324DB600C242560051232CC80F0C2
:2031FE000232E4D2D5E493A3C083C082B4731486F0188683188682181243C26054A3123297
:20321E00CC80F5B4630818E6181232CC8043B46417E630E74618E6F42401F608E6F43400B2
:20323E00F6742D1232CC8033B4782D868318868218E41232BDE5831232BCE5831232BDE5E1
:20325E00821232BCE5821232BD30D50574301232CCD082D0830231EEB475F6E6FA18E6F9EC
:20327E00187C107D271232A7FF7CE87D031232A7C4F5837C647D001232A74283E975F00A8E
:20329E0084C445F0F582EF80A97B000BC3E99CF9EA9DFA50F61BE92CF9EA3DFAEB22C45407
:2032BE000F700320D51FC2D52490D43440D4C083C082C0F0F582E8C0E012206FD0E0F8D0A6
:0932DE00F0D082D08322D01D2221
:2032E70090146B7401F07400A3F090462DE493FE740193FF1EBEFF011FEE2401FEEF34009E
:20330700FF900001EEF0EFA3F090146BE0FEA3E0FF8E828F83A3A3E4F0A3F022AF83E582BD
:2033270090146DF0EFA3F090146BE0F5F0A3E045F070031232E790146DE0FEA3E0FF4E60BA
:203347000E74022EFCE43FFDC3EC9EED9F50049000002290146D74022EF0E43FA3F09014BA
:203367006DE0FEA3E0FFC3EE9404EF9400500990146D7404F0E4A3F090146BE0FEA3E0FFF5
:2033870090146FEEF0EFA3F0901471746BF07414A3F090146FE0FEA3E0FF4E7003023488C2
:2033A7008E828F83E0FCA3E0FD8C028D038E008F01EAC398FAEB99FB8A008B0190146DE087
:2033C700F517A3E0F518C3E89517E99518500302346574042517F8E43518F9C3EA98EB99D0
:2033E700404C8E028F03E5172AFAE5183BFB8A828B83ECF0EDA3F074022AFCE43BFD8E8287
:203407008F83A3A3E0F8A3E0F98C828D83E8F0E9A3F0901471E0FCA3E0FD8C828D83EAF01E
:20342700EBA3F08E828F83EAF0EBA3F0801C901471E0FCA3E0FD8E828F83A3A3E0FAA3E0BB
:20344700FB8C828D83EAF0EBA3F090146FE0FCA3E0FD74022CFCE43DFD8C828D8322740213
:203467002EFEE43FFF901471EEF0EFA3F08E828F83E0FEA3E0FF90146FEEF0EFA3F0023358
:053487009990000022F5
:20348C00AA83AB828BF0901473E0A4F8A9F08AF0E0A429F98BF0A3E0A429F583888222226E
:2034AC00AF83E582901477F0EFA3F0901477E0FEA3E0FF30E709C3E49EFCE49FFD80048E6C
:2034CC00048F05901475E0FEA3E0FF30E709C3E49EFAE49FFB80048E028F03901479EAF055
:2034EC00EBA3F08C828D83123514AE82AF83901477E0A3E030E70CC3E49EFCE49FFD8C82F7
:08350C008D83228E828F832241
:20351400AF83E58290147BF0EFA3F090147DE4F090147BE0FEA3E0FF7D00901479E0FBA3E1
:20353400E0FC235401FA7036EB2BFBEC33FC901479EBF0ECA3F0901479E0FBA3E0FCC3EEB8
:203554009BEF9C5011ECC313CB13CBFC901479EBF0ECA3F080080D90147DEDF080BC90147F
:203574007DE0FF90147BE0FDA3E0FE901479E0FBA3E0FCC3ED9BEE9C400B90147BEDC39B5D
:20359400F0EE9CA3F0901479E0FDA3E0C313CD13CDFE901479EDF0EEA3F08F061FEE70C3BC
:0C35B40090147BE0FEA3E08E82F58322E1
:20203B007800E84400600A790175A000E4F309D8FC78FCE84414600C7915900001E4F0A37E
:04205B00D8FCD9FADA
:06205F00C200C201C20232
:2035C000C01DE581F51D24FBFFE51D24FBF886040886050886068C828D838EF01243C2FB00
:2035E0007003023795BB2502800302377AC202C201C200E51D24FBF874012CF6E43D08F65A
:2036000008A606E51D24FBF886040886050886068C828D838EF01243C2FABA68028017BA0A
:203620006C26D200E51D24FBF874012CF6E43D08F608A6068012D202E51D24FBF874012C83
:20364000F6E43D08F608A606E51D24FBF886040886050886068C828D838EF01243C2FEBE68
:2036600063028022BE64028013BE6F02801DBE73028005BE78188009D201801275210A80AC
:203680000D7521108008752100800375210830014CEF24FDFEFF8E0187220987230987240F
:2036A0001919AC22AD23AE248C828D838EF01243C27003023787AC22AD23AE248C828D83F4
:2036C0008EF01243C2FC0522E4B5220205237E008C828E83C00712206FD00780C5300017E5
:2036E000EF24FCFEFF8E018725098726098727098728191919802F300213EF14F9FF870697
:203700008E257526007527007528008019EF24FEFEFF8E018705098706198D25EEF52633C3
:2037200095E0F527F528E521603F9014A77437F0E4A3F07440A3F09014AAE521F085258222
:203740008526838527F0E528C0071238ABD0077937E7FE60327D008E828D83C007C00112A1
:20376000206FD001D0070980E8AE257D008E828D83C00712206FD007800D7E008B828E83C9
:18378000C00712206FD007E51D24FBF806B6000208060235C9D01D22FE
:20379800AF82AE83ADF0FC901482EFF0EEA3F0EDA3F0ECA3F0901481E0FF7E20901482E0E9
:2037B800FAA3E0FBA3E0FCA3E0FD8F19751A00751B00751C009014E6E519F0E51AA3F0E533
:2037D8001BA3F0E51CA3F08A828B838CF0EDC007C0061243DEAA82D006D00774302AFD9018
:2037F80014A6F08D04EC24C650079014A674072DF01EEE2486FCE43414FD9014A6E08C8254
:203818008D83F0901482E0FAA3E0FBA3E0FCA3E0FD9014EFE519F0E51AA3F0E51BA3F0E588
:203838001CA3F08A828B838CF0EDC007C00612451EAA82AB83ACF0FDD006D007901482EA8C
:20385800F0EBA3F0ECA3F0EDA3F0901482E0F5F0A3E042F0A3E042F0A3E045F0600302373A
:20387800B490147EE0FCA3E0FDA3E0FFEE2486F582E43414F583E08C828D838FF0124612E2
:20389800A3AC82AD830EBE20E38C828D838FF0E4024612AF82AE83ADF0FC9014ABEFF0EE4E
:2038B800A3F0EDA3F0ECA3F09014ABE0FCA3E0FDA3E0FEA3E0FF30E73F9014AAE0FBBB0A6C
:2038D800379014A7E0F9A3E0FAA3E0FB89828A838BF0742D1246129014A7740129F0E43AE5
:2038F800A3F0EBA3F09014ABC3E49CF0E49DA3F0E49EA3F0E49FA3F09014ABE0FCA3E0FD33
:20391800A3E0FEA3E0FF9014A7E0F9A3E0FAA3E0FB9014AAE0F890147EE9F0EAA3F0EBA341
:10393800F0901481E8F08C828D838EF0EF02379836
:20394800C01D85811D7E008E8312206FD01D22AFF0AE83E5829014B0F0EEA3F0EFA3F09012
:2039680014B0E0FDA3E0FEA3E0FF9014AFE0FC9014C4E4F0A3F0A3F09014C7EDF0EEA3F041
:20398800EFA3F09014CAECF0903948023A9CC01DE581F51D24FBFF9014C4E4F0A3F0A3F095
:2039A800E51D24FBF89014C7E6F008E6A3F008E6A3F09014CAEFF0903948123A9CD01D224E
:2039C800E5829014C0F0E0FF9014B6E0C0E0A3E0C0E0A3E0C0E01239E3800D9014B4E0C072
:2039E800E0A3E0C0E08F82221581158115819014BEE02401F0A3E03400F022E5829014C1DB
:203A0800F0E02430FF24C6500D74072FFF9014B3E060034307208F820239C8E5829014C2A6
:203A2800F0E0FFC4540FF582C007123A03D00753070F8F82023A03E5829014C3F09014B950
:203A4800E0FCA3E0FDA3E0FEA3E0FF9014BDE0FB9014C3E0FA79208B00E828F533EF2354C0
:203A6800014533FBEC2CFCED33FDEE33FEEF33FFC3EB9A4007EBC39AFB43040119E970D7F6
:203A88009014B9ECF0EDA3F0EEA3F0EFA3F09014BDEBF022AF83E5829014CBF0EFA3F090FA
:203AA80014CBE0FEA3E0FF9014B4EEF0EFA3F09014C4E0FDA3E0FEA3E0FF9014B6EDF0EE9A
:203AC800A3F0EFA3F09014BEE4F0A3F09014C7E0FDA3E0FEA3E0FF8D828E838FF01243C2FF
:203AE800FC9014C774012DF0E43EA3F0EFA3F0EC700302439EBC250280030243969014CD9A
:203B0800E4F09014CEF09014CFF09014D0F09014D1F09014D2F09014D3F09014D4F0901462
:203B2800D6F09014D7F0A3F09014D914F0A3F09014C7E0FDA3E0FEA3E0FF8D828E838FF0BB
:203B48001243C2FBA3AD82AE839014C7EDF0EEA3F0EFA3F09014DDEBF0BB25088B82123961
:203B6800C8023AD4BB30005003023C35EB24C65003023C359014D9E0F529A3E0F52A74FF89
:203B8800B52963B52A60C005C006C0079014D7E0FAA3E0FF901473EAF0EFA3F090000AC0A7
:203BA80005C00312348CAE82AF83D003D0058B027D00EA2EFEED3FFFEE24D0FEEF34FFFF0D
:203BC8009014D7EEF0EFA3F0D007D006D0059014D7E0F5F0A3E045F06003023B429014CE34
:203BE8007401F0023B42C005C006C007901473E529F0E52AA3F090000AC006C005C00312D6
:203C0800348CAA82AF83D003D005D0067E00EB2AFAEE3FFFEA24D0FAEF34FFFF9014D9EAE7
:203C2800F0EFA3F0D007D006D005023B429014DDE0FBBB2E2FC005C006C0079014D9E0FAEC
:203C4800A3E0FFBAFF05BFFF028009D007D006D005023B42D007D006D0059014D9E4F0A35C
:203C6800F0023B42BB61004014EB2485400F9014DD74DF5BF09014B37401F080059014B3C3
:203C8800E4F09014DDE0FBBB20028075BB2B028067BB2D028059BB4202806FBB4302807C9E
:203CA800BB4403023F2CBB4603023F52BB4803023B42BB4903023F2CBB4A03023B42BB4C6F
:203CC800028050BB4F03023F3ABB5003023E9ABB53028077BB5403023B42BB5503023F426C
:203CE800BB5803023F4ABB5A03023B42023F5A9014CD7401F0023B429014CF7401F0023B7F
:203D0800429014D07401F0023B429014D27401F0023B429014D37401F0023B429014D2E0F6
:203D2800600E9014CAE014F9F09014DDE7F0800F9014CAE024FEFFF08F019014DDE7F09004
:203D480014DDE0F5821239C8023F699014CAE024FDFFF08F018705098706098707191990ED
:203D680014B9EDF0EEA3F0EFA3F08D828E838FF01243AA85822985832A9014D9E0FAA3E0B4
:203D8800FDBAFF0DBDFF0A9014D9E529F0E52AA3F09014CDE0704B9014D7E0FAA3E0FDC3D1
:203DA800E5299AE52A9D503A9014D7EAC39529F0ED952AA3F09014D7E0FAA3E0FD8A068D16
:203DC800071ABAFF011DEE4F6010758220C005C0021239C8D002D00580E39014D7EAF0ED39
:203DE800A3F09014D9E0F52CA3E0F52D9014B9E0FAA3E0FDA3E0FF8A828D838FF01243C21A
:203E0800F52B603CC3E4952C7480852DF063F08095F0502C152C74FFB52C02152D852B8201
:203E28001239C89014B9E0FAA3E0FDA3E0FF0ABA00010D9014B9EAF0EDA3F0EFA3F080ACF7
:203E48009014CDE07003023F699014D7E0FEA3E0FFC3E5299EE52A9F4003023F699014D78C
:203E6800EEC39529F0EF952AA3F09014D7E0FEA3E0FF8E028F051EBEFF011FEA4D700302F4
:203E88003F61758220C007C0061239C8D006D00780E09014CAE024FDFDF08D01872E098787
:203EA8002F09873019199014B9E52EF0E52FA3F0E530A3F09014BBE0FDBD800040089014C5
:203EC800DD7443F08020BD600040089014DD7450F08013BD400040089014DD7449F0800690
:203EE8009014DD7458F09014DDE0FDF582C0051239C875823A1239C87582301239C875825B
:203F0800781239C8D005BD4902800EBD500280099014BAE0F582123A239014B9E0F5821221
:203F28003A23803D9014D17401F09014D6740AF0802F9014D67408F080279014D6740AF079
:203F4800801F9014D67410F080179014D47401F0800F8B821239C880089014D7EEF0EFA336
:203F6800F09014D4E060719014CAE024FCFFF08F018703098705098706098707191919900C
:203F880014B9EBF0EDA3F0EEA3F0EFA3F09014B97419F0744FA3F07480A3F09014B9E0F505
:203FA8002EA3E0F52FA3E0F5307401252EFAE4352FFBAF309014B9EAF0EBA3F0EFA3F085DC
:203FC8002E82852F838530F01243C2FF7003023AD48F821239C880C39014D6E07003023A44
:203FE800D49014D2E060479014CAE014F9F087077E007D007B009014B9EFF0EEA3F0EDA34C
:20400800F0EBA3F09014D1E060030240AC9014B9E0FBA3E0A3E0A3E07D007E007F009014A5
:20402800B9EBF0EDA3F0EEA3F0EFA3F080769014D3E060289014CAE024FCFFF08F01870315
:204048000987050987060987071919199014B9EBF0EDA3F0EEA3F0EFA3F080489014CAE07A
:2040680024FEFFF08F01870609870719EF3395E0FDFB9014B9EEF0EFA3F0EDA3F0EBA3F010
:204088009014D1E0701E9014B9E0FBA3E0FDA3E0A3E07E007F009014B9EBF0EDA3F0EEA331
:2040A800F0EFA3F09014D1E060419014B9E0FBA3E0FDA3E0FEA3E0FF30E72B9014B9E0FB5B
:2040C800A3E0FDA3E0FEA3E0FFC3E49BFBE49DFDE49EFEE49FFF9014B9EBF0EDA3F0EEA34F
:2040E800F0EFA3F080059014D1E4F09014D57401F09014D6E0F52C7531E3753214E4F529D9
:20410800F52A9014BDE4F0852C82123A3F9014D5E070339014BDE0C454F0F52E9014BDE0DC
:20412800C4540F452EF52E853182853283E0FFE52E4207853182853283EFF0153174FFB54E
:2041480031021532800C9014BDE0FF853182853283F00529E4B52902052A9014D5E0B40180
:2041680000E433F09014B9E0FAA3E0FBA3E0FEA3E0FFEA4B4E4F708A9014E4E531F0E53207
:20418800A3F09014DBE529F0E52AA3F09014D7E0F5F0A3E045F070099014D77401F0E4A38D
:2041A800F09014CEE0FFE070479014CDE07041852931852A329014D7E0FAA3E0FBC007AF14
:2041C800310F8F067F00C3EE9AEF9BD0075019758220C007C003C0021239C8D002D003D083
:2041E800071ABAFF011B80D59014D7EAF0EBA3F09014D1E0602075822DC0071239C8D007EF
:204208009014D7E024FFFDA3E034FFFE9014D7EDF0EEA3F080569014DBE0F5F0A3E045F0BC
:20422800604A9014CFE0602075822BC0071239C8D0079014D7E024FFFDA3E034FFFE901453
:20424800D7EDF0EEA3F080249014D0E0601E758220C0071239C8D0079014D7E024FFFDA3C5
:20426800E034FFFE9014D7EDF0EEA3F09014CDE070489014DBE0F531A3E0F5329014D7E0B9
:20428800FAA3E0FBC0078A068B071ABAFF011BC3E5319EE5329FD0075053EF60067D307E9F
:2042A8000080047D207E008D82C007C003C0021239C8D002D003D00780CA9014D7E0FEA327
:2042C800E0FF9014DBE0F531A3E0F532C3E5319EE5329F500F9014D7EEC39531F0EF9532A4
:2042E800A3F080119014D7E4F0A3F080089014D7EAF0EBA3F09014E4E0FEA3E0FF9014DBEE
:20430800E0F531A3E0F532AA31AD32153174FFB531021532EA4D60459014D5E0B40100E475
:2043280033F09014D5E070140EBE00010F8E828F83E0C4540FFD9014BDF0800E8E828F8372
:20434800E0FD53050F9014BDEDF09014BDE0F582C007C006123A03D006D00780AA9014CDF7
:20436800E07003023AD49014D7E0FEA3E0FF8E038F051EBEFF011FEB4D7003023AD4758225
:2043880020C007C0061239C8D006D00780E08C821239C8023AD49014BEE0FEA3E08E82F54F
:0243A80083226E
:0B4F19003C4E4F20464C4F41543E00E0
:1843AA00AA82AB831243C26003A380F8C3E5829AF582E5839BF5832234
:0D200600758142122068E58260030220030C
:1C43C20020F71430F6148883A88220F507E6A88375830022E280F7E49322E0220A
:2043DE00AF82AE83ADF0FC9014EAEFF0EEA3F0EDA3F0ECA3F09014EEE4F09014EAE0FCA364
:2043FE00E0FDA3E0FEA3E0FF7B009014E6E0F533A3E0F534A3E0F535A3E0F536235401FA39
:20441E007074C003E5332533F8E53433F9E53533FAE53633FB9014E6E8F0E9A3F0EAA3F03F
:20443E00EBA3F09014E6E0F533A3E0F534A3E0F535A3E0F536C3EC9533ED9534EE9535EF73
:20445E009536D0035027E536C313F536E53513F535E53413F534E53313F5339014E6F0E5AF
:20447E0034A3F0E535A3F0E536A3F080090B9014EEEBF00244089014EEE0FF9014EAE0FBD3
:20449E00A3E0FCA3E0FDA3E0FE9014E6E0F533A3E0F534A3E0F535A3E0F536C3EB9533EC83
:2044BE009534ED9535EE953640179014EAEBC39533F0EC9534A3F0ED9535A3F0EE9536A36C
:2044DE00F09014E6E0FBA3E0FCA3E0FDA3E0C313FEED13FDEC13FCEB139014E6F0ECA3F024
:2044FE00EDA3F0EEA3F08F061FEE708F9014EAE0FCA3E0FDA3E0FEA3E08C828D838EF02250
:20451E00AF82AE83ADF0FC9014F3EFF0EEA3F0EDA3F0ECA3F09014F7E4F0A3F0A3F0A3F064
:20453E009014EFE0FCA3E0FDA3E0FEA3E0FF7B20C0039014F3E0F8A3E0F9A3E0FAA3E0FB27
:20455E009014FB235401F0E828F8E933F9EA33FAEB33FB9014F3E8F0E9A3F0EAA3F0EBA3F3
:20457E00F09014F7E0F8A3E0F9A3E0FAA3E0FBE828F8E933F9EA33FAEB33FB9014F7E8F083
:20459E00E9A3F0EAA3F0EBA3F0D0039014FBE060089014F7E043E001F09014F7E0F533A3F7
:2045BE00E0F534A3E0F535A3E0F536C3E5339CE5349DE5359EE5369F401F9014F7E533C305
:2045DE009CF0E5349DA3F0E5359EA3F0E5369FA3F09014F3E043E001F01BEB600302454EC7
:1445FE009014F3E0FCA3E0FDA3E0FEA3E08C828D838EF022F4
:1B46120020F71130F6138883A88220F509F6A8837583002280FEF280F5F022A7
:00000001FF
