:042000000220113277
:03200B0002288523
:0A206A009000A8E4F0A3F002200E9D
:03200E0002207B32
:10207400438E0C90000022900008740AF09000092E
:10208400740DF090000A742AF090000BF090000C8C
:10209400F090000DF090000EF090000FF090001002
:1020A400F0900011F0900012F0900013F0900014E2
:1020B400F0900015F0900016F0900017F0900018C2
:1020C400F0900019F090001AF090001BF090001CA2
:1020D400F090001DF090001E7448F090001F7445AD
:1020E400F0900020744CF0900021F0900022744F86
:1020F400F09000237420F0900024743AF0900025AE
:102104007429F09000267420F0900027742AF0902F
:102114000028F0900029F090002AF090002BF09015
:10212400002CF090002DF090002EF090002FF090F5
:102134000030F0900031F0900032F0900033F090D5
:102144000034F0900035F0900036F0900037F090B5
:102154000038F0900039F090003AF090003BF09095
:10216400003CF090003DF090003EF090003FF09075
:102174000040F0900041F0900042F0900043F09055
:102184000044740AF0900045740DF0900046E4F0A9
:102194007431C0E07441C0E01235721581158112AA
:1021A400241A9000081226239000037401F01229C7
:1021B40000743BC0E07441C0E01235721581158192
:1021C4007452C0E07441C0E01235721581158174F7
:1021D40069C0E07441C0E0123572158115817480C4
:1021E400C0E07441C0E012357215811581749FC03E
:1021F400E07441C0E01235721581158174B6C0E0F7
:102204007441C0E01235721581158174CFC0E07439
:1022140041C0E01235721581158174E0C0E074414B
:10222400C0E01235721581158174F5C0E07441C0A7
:10223400E012357215811581740AC0E07442C0E061
:1022440012357215811581742BC0E07442C0E012FE
:10225400357215811581743BC0E07442C0E01235BB
:102264007215811581122692AE828E057F008D82B1
:102274008F83C0061226737475C0E07442C0E012E6
:10228400357215811581D006900003E0FFBF01026D
:10229400C28CBE310050030223F9EE24C050030265
:1022A40023F9EE24CFFE240A83F582EE241383F56A
:1022B40083E4735DFF05D5BEDBEAEFF4F9F9F9F9C0
:1022C400F9B5232223222323232323232323232374
:1022D400217478C0E07442C0E01235721581158112
:1022E400748CC0E07442C0E012357215811581759A
:1022F400821012270E1224BF02240812266302241D
:1023040008900003E0FFBF0102D28C74A3C0E07404
:1023140042C0E01235721581158174BAC0E074426E
:10232400C0E01235721581158175820A12270EAE2E
:1023340082C00674D5C0E07442C0E01235721581C3
:10234400158175820A12270EAD82D00690007EEDAB
:10235400F08E8212258302240874F0C0E07442C017
:10236400E07480C0E01236E91581158115817F0083
:10237400EF2447FDE43400FEC007C006C005122662
:1023840092AB82AC83D005D006D0078D828E83EBCE
:10239400F0BB0D0280168D828E83E0FC7B008C8264
:1023A4008B83C007122673D0070F80C48D828E835F
:1023B400E4F0900047122623804A900003E0FFBF18
:1023C400010A122A50900003E4F08038122A539034
:1023D40000037401F0802D900003E0FFBF0102D2DE
:1023E4008C122A56801E122C338019122CF0801461
:1023F40012318E800F7402C0E07443C0E012357253
:1024040015811581900003E0FFBF010280030221C2
:10241400B5D28C0221B590000FE4F5F01226A0C2CB
:1024240095C2969080047430F0900005E4F5F012A3
:1024340026A0C295C2969080047430F0C295C296CC
:10244400900001E4F5F01226A09080047430F07539
:1024540082381225E67582081225E675820F122548
:10246400E67582061225E67582010225E69000795A
:102474007480F090007A74C0F090007B7490F090B7
:10248400007C74D0F0900002E0FFBF03004007908E
:102494000002E4F08006900002EF04F0900002E0F5
:1024A4002479F582E43400F583E0F5820224BFC286
:1024B40095D296908002E020E7F922E58290007D93
:1024C400F0E0FFBF90004005EF2460503390007DA2
:1024D400E0FFBFD0004005EF2420502490007DE0B1
:1024E400FFBFC0004005EF2430501590007DE0FF91
:1024F400BF80005003022573EF247050030225733C
:102504001224B390007DE043E080F090007DE0FF72
:10251400F582C0071225E6D007900001740F5FF022
:10252400BFD000400BEF242040069000027403F05B
:1025340090007DE0FFBF9000400BEF2460400690C8
:1025440000027402F090007DE0FFBFC000400BEF7A
:10255400243040069000027401F090007DE0FFBF3B
:102564008000401AEF24704015900002E4F02274B9
:1025740017C0E07443C0E01235721581158122E55D
:102584008290007FF09000807480F090008174C08D
:10259400F09000827490F090008374D0F090007FEB
:1025A400E0FFBF040040107429C0E07443C0E0128F
:1025B4003572158115812290007EE0FEBE10004028
:1025C40010743EC0E07443C0E01235721581158169
:1025D40022EF2480F582E43400F583E02EF58202B4
:1025E40024BFE582900084F01224B3C295C2969071
:1025F4000084E0908004F022E582900085F01224AB
:10260400B3D295C296900085E0908000F0900001CE
:10261400E02401F0E0FFBF1000400312247122AF58
:1026240083E582900086F0EFA3F0900086E0FEA39D
:10263400E0FF8E828F83E0FD601C8D82C007C006A0
:102644001225FCD006D0070EBE00010F900086EEC6
:10265400F0EFA3F080DC900086EEF0EFA3F022759B
:1026640082011225E6900002E4F0900001F022AF0E
:1026740083E582900088F0EFA3F03099FD90008804
:10268400E0FEA3E0FF8E99C2998E828F8322109878
:102694000280FBAE997F008E828F8322AF82AE834D
:1026A400ADF0FC90008AEFF0EEA3F0EDA3F0ECA304
:1026B400F090008AE0FCA3E0FDA3E0FEA3E0FF7835
:1026C4000079007A007B00C3E89CE99DEA9EEB9FB9
:1026D4005037752C60752D04E4F52EF52F152C74E8
:1026E400FFB52C0C152DB52D07152EB52E02152F63
:1026F400E52C452D452E452F70E308B8000909B98E
:1027040000050ABA00C10B80BE22E58290008EF05B
:1027140090008FE4F09000A4F09000A5F0A3F09056
:10272400008FE0FFBF0D030227B7122692AE82AFDF
:102734008390008FEEF0BE30004005EE24C65014A6
:10274400BE61004005EE2499500ABE41004041EEAE
:1027540024B9403C8E057F008D828F83C0061226EB
:1027640073D0069000A4E0FF2490FCE43400FD8EB6
:1027740082C007C005C00412282BAB82D004D00548
:10278400D0078C828D83EBF09000A4EF04F0808F4F
:10279400BE080280030227239000081226739000CB
:1027A400201226739000081226739000A4E014F0FF
:1027B40002272390008EE0FF9000A4E0FE7D00C37A
:1027C400ED9E50579000A5E0FBA3E0FC90010AEFBA
:1027D400F0E4A3F08B828C83C007C006C0051236D8
:1027E4007BE5828583F0D005D006D0079000A5F064
:1027F400E5F0A3F0ED2490F582E43400F583E0FCE9
:102804007B009000A5E0F9A3E0FAEC29F9EB3AFA91
:102814009000A5E9F0EAA3F00D80A49000A5E0FEE5
:10282400A3E08E82F58322E5829000A7F0E0FFBF4B
:102834003000400EEF24C64009EF24D09000A7F0EA
:1028440080389000A7E0FFBF61004013EF24994057
:102854000EEF249F9000A7F0E0FF240AF0801B9065
:1028640000A7E0FFBF41004011EF24B9400CEF2462
:10287400BF9000A7F0E0FF240AF09000A7E0F582E3
:1028840022C021C0E0C0F0C082C083C007C006C01F
:1028940005C004C003C002C001C000C0D075D00090
:1028A400C28D758AEF758C739000A8E0F5F0A3E0F3
:1028B40045F0700B9000A87401F0E4A3F080209020
:1028C4000004E02401F0A3E03400F0A3E03400F0BD
:1028D400A3E03400F012291D9000A8E4F0A3F0D086
:1028E400D0D000D001D002D003D004D005D006D07F
:1028F40007D083D082D0F0D0E0D02132900004E41D
:10290400F0A3F0A3F0A3F043A8824389015389F113
:10291400758AEF758C73D28C22900001E09000AE22
:10292400F0900002E09000ADF0900004E0FCA3E021
:10293400FDA3E0FEA3E0FF9000EC740AF0E4A3F032
:10294400A3F0A3F08C828D838EF0EFC007C006C085
:1029540005C004123282A882D004D005D006D00764
:102964009000AAE8F09000FD740AF0E4A3F0A3F04C
:10297400A3F08C828D838EF0EFC007C006C005C023
:102984000412347EA882A983AAF0FB9000EC743C64
:10299400F0E4A3F0A3F0A3F0888289838AF0EB1219
:1029A4003282A882D004D005D006D0079000ABE8CC
:1029B400F09000FD7458F07402A3F0E4A3F0A3F0C7
:1029C4008C828D838EF0EF12347EAC829000ACEC5E
:1029D400F090007E7408F07582031225839000AC99
:1029E400E0FF7E007D007C009000AF7402F08F82D7
:1029F4008E838DF0EC122A6275823A1225FC9000C7
:102A0400ABE0FF7E007D007C009000AF7402F08F8D
:102A1400828E838DF0EC122A6275822E1225FC9030
:102A240000AAE0FF7E007D007C009000AF7401F0FE
:102A34008F828E838DF0EC122A629000ADE0FF90BD
:102A440000AEE090007EF08F82022583C28C22D2F9
:102A54008C22900004E4F0A3F0A3F0A3F022AF8250
:102A6400AE83ADF0FC9000B0EFF0EEA3F0EDA3F078
:102A7400ECA3F09000AFE0FF9000B0E0FBA3E0FC1B
:102A8400A3E0FDA3E0FE8B088C098D0A8E0B8B0C52
:102A94008C0D8D0E8E0FC374818FF063F08095F0D2
:102AA4004003022B59C007C006C005C004C003126E
:102AB40024B3D003D004D005D006D007BF020280CF
:102AC4000DBF03028038BF04028063022B55C0038C
:102AD400C004C005C006A80CA90DAA0EAE0FC3748D
:102AE4000998E499E49AE49ED006D005D004D00372
:102AF400405FD295C2969080007430F08053C0033A
:102B0400C004C005C006A808A909AA0AAE0BC3746C
:102B14006398E499E49AE49ED006D005D004D003E7
:102B2400402FD295C2969080007430F08023C00765
:102B34008B008C018D028E07C374E798740399E4AB
:102B44009AE49FD007400AD295C2969080007430D0
:102B5400F01F022A9AEFFD3395E0FEED24B4F50C44
:102B6400EE3400F50D9000B0E0F508A3E0F509A3FC
:102B7400E0F50AA3E0F50B9000E4740AF0E4A3F096
:102B8400A3F0A3F0850882850983850AF0E50BC0CC
:102B9400071231CEA882743028850C82850D83F00B
:102BA4009000F5740AF0E4A3F0A3F0A3F085088282
:102BB400850983850AF0E50B1233C2AB82AC83AD81
:102BC400F0FED0079000B0EBF0ECA3F0EDA3F0EE34
:102BD400A3F00F9000B0E0FBA3E0FCA3E0FDA3E0B2
:102BE400FEC3E49BE49CE49D74808EF063F08095C6
:102BF400F05003022B59EF149000BEF0E0FFC374B1
:102C0400808FF063F08095F05024C0071224B3D075
:102C140007D295C296EFFD3395E0FEED24B4F5821C
:102C2400EE3400F583E0FE908000F01F80D0229007
:102C340000BF7480F0E4A3F0C295C296758280123E
:102C440025E67456C0E07443C0E012357215811550
:102C5400817F0090000AC00712267390000D12268F
:102C6400739000BFE0FDA3E0FE7C007B009000C3F6
:102C74007402F08D828E838CF0EB122DAB90003AAF
:102C8400122673D0077E00900020C007C0061226CB
:102C940073D295D296908000E0FD7C007B007A0090
:102CA4009000C37402F08D828C838BF0EA122DABFA
:102CB400D006D0070EBE100040CD9000BFE0FDA3AB
:102CC400E0FE74102DFDE43EFE9000BFEDF0EEA397
:102CD400F00FBF05005003022C57900002E0FF9054
:102CE4000001E090007EF08F820225839000C1E411
:102CF400F0A3F0C295C2967582401225E67466C0B0
:102D0400E07443C0E0123572158115817F00900094
:102D14000AC00712267390000D1226739000C1E0BA
:102D2400FDA3E0FE7C007B009000C37402F08D8262
:102D34008E838CF0EB122DAB90003A122673D007E1
:102D44007E00900020C007C006122673D295D2964A
:102D5400908000E0FD7C007B007A009000C3740248
:102D6400F08D828C838BF0EA122DABD006D0070E47
:102D7400BE100040CD9000C1E0FDA3E0FE74102D14
:102D8400FDE43EFE9000C1EDF0EEA3F00FBF0400A1
:102D94005003022D12900002E0FF900001E0900029
:102DA4007EF08F82022583AF82AE83ADF0FC90006B
:102DB400C4EFF0EEA3F0EDA3F0ECA3F09000C3E0B9
:102DC400FF9000C4E0FBA3E0FCA3E0FDA3E0FEC38E
:102DD400740F9BE49CE49DE49E9200C374FF9BE407
:102DE4009CE49DE49E9201C374FF9B740F9CE49D3C
:102DF400E49E9202C374818FF063F08095F0503B9F
:102E0400BF02028026BF03028012BF042B200228C7
:102E1400900030C007122673D007801C200119903F
:102E24000030C007122673D007800D20000A9000DE
:102E340030C007122673D0071F80B9EFFD3395E029
:102E4400FEED24C8F510EE3400F5119000C4E0F551
:102E540012A3E0F513A3E0F514A3E0F515740F55E0
:102E640012F87C0088828C83C007122EFBAE82D0BD
:102E740007851082851183EEF0AB12E513C4CBC431
:102E8400540F6BCB540FCB6BCBFCE514C454F04CF8
:102E9400FCAD14E515C4CDC4540F6DCD540FCD6DE8
:102EA400CDFE9000C4EBF0ECA3F0EDA3F0EEA3F0A4
:102EB4000F9000C4E0F5F0A3E042F0A3E042F0A3D9
:102EC400E045F06003022E3FEF149000D2F0E0FFE3
:102ED400EF20E722EFFD3395E0FEED24C8F582EE06
:102EE4003400F583E0FE7D008E828D83C0071226B8
:102EF40073D0071F80DA22AF83E5829000D3F0EF0E
:102F0400A3F09000D3E0FEA3E0FF30E703022F9488
:102F1400C3740F9E74808FF063F08095F0500302A9
:102F24002F94EE240A83F582EE241483F583E4734C
:102F340058545C6064686C7074787C8084888C906D
:102F44002F2F2F2F2F2F2F2F2F2F2F2F2F2F2F2F8D
:102F54007582312275823022758232227582332243
:102F64007582342275823522758236227582372223
:102F740075823822758239227582412275824222F5
:102F840075824322758244227582452275824622C7
:102F940075823022E5829000D8F0900002E0900023
:102FA400D9F0900001E09000DAF09000D8E0FFFD45
:102FB4007E00C007C005C0067476C0E07443C0E05C
:102FC400123572E58124FCF581D0079000D5E0FC30
:102FD400A3E0FDA3E0FE7A007B00C3EA9408EB645F
:102FE400809480504CC007EA2CF8EB3DF98E07889A
:102FF4008289838FF0124115F87F00C007C006C094
:1030040005C004C003C002C000C0077481C0E074DE
:1030140043C0E0123572E58124FCF581D002D0036F
:10302400D004D005D006D0070ABA00010BD007801F
:10303400A9BF08004010748EC0E07443C0E012358C
:103044007215811581229000D8E0FFC40354F8243E
:1030540040F582C007C006C005C0041225E6D004AE
:10306400D005D006D0077B00BB080050608F02EA71
:10307400C40354F8F97440494B547FF582C007C027
:1030840006C005C004C003C0021225E6D002D00366
:10309400D004D005D006EB2CF8E43DF98E078882E5
:1030A40089838FF0124115F8EAC42354E042008862
:1030B40082C007C006C005C004C0031225FCD003AB
:1030C400D004D005D006D0070BD007809B9000D841
:1030D400E0FFFD7E00C007C005C00674C4C0E074F4
:1030E40043C0E0123572E58124FCF5819000D9E0FB
:1030F400FE9000DAE090007EF08E82122583D007E5
:103104008F820225FCE5829000DBF0E0FFFD7E006B
:10311400C007C005C00674EDC0E07443C0E01235BA
:1031240072E58124FCF581D0077E00BE080050487A
:103134008E047D00C007C006C004C005741FC0E033
:103144007444C0E0123572E58124FCF581D006EEAA
:1031540024DCFCE43400FD758210C006C005C00404
:1031640012270EAA82AB83D004D005D006D0078CD8
:10317400828D83EAF00E80B39000D574DCF0740085
:10318400A3F0E4A3F08F82022F98742AC0E0744461
:10319400C0E0123572158115817444C0E07444C0D6
:1031A400E01235721581158175820A12270EAE82DE
:1031B400EE24F840058E82023109748EC0E0744317
:0A31C400C0E012357215811581225A
:104131000A0D57454C434F4D45000A0D4F706572AE
:104141006174696F6E20746F2063686F6F73653A75
:10415100000A0D20312E2050757420676976656E36
:1041610020737472696E67000A0D20322E20436C31
:10417100656172204C43442073637265656E000A69
:104181000D20332E204C4344204A756D7020782039
:104191007920636F6F7264696E61746573000A0DD3
:1041A10020342E204C4344204A756D702061646494
:1041B10072657373000A0D20352E20537461727479
:1041C100206F722073746F702074696D65000A0D21
:1041D10020362E2052657365742074696D65000A5E
:1041E1000D20372E204C434420444452414D20445D
:1041F100756D70000A0D20382E204C434420434732
:1042010052414D2044756D70000A0D20392E204316
:10421100726561746520637573746F6D2063686185
:10422100726163746572200A0D00456E7465726572
:104231006420696E7075743A20000A0D2A2A2A2AB0
:104241002A2A2A2A2A2A2A2A2A2A2A2A2A2A2A2ACD
:104251002A2A2A2A2A2A2A2A2A2A2A2A2A2A2A2ABD
:104261002A2A2A2A2A2A2A2A2A2A2A2A2A2A2A2AAD
:104271002A0A0D000A0D000A0D204C4344204A75FC
:104281006D702061646472657373000A0D20456E60
:104291007465722074686520616464726573733A31
:1042A10009000A0D4C4344204A756D7020636F6FFD
:1042B1007264696E61746573000A0D456E7465728E
:1042C100205820636F6F7264696E61746528726F24
:1042D10077293A000A0D456E746572205920636F83
:1042E1006F7264696E61746528726F77293A00454F
:1042F1006E7465722074686520737472696E6720CC
:10430100000A0D20496E76616C696420696E7075D2
:104311007421210A0D000A0D496E76616C696420D1
:1043210061646472657373000A0D496E76616C692C
:104331006420526F77206E756D626572000A0D49B7
:104341006E76616C696420436F6C756D6E206E755D
:104351006D626572000A0D444452414D20486578F2
:1043610064756D70000A0D434752414D20486578D0
:1043710064756D700063636F64653D25640A0D00AB
:10438100726F772076616C733D257809000A0D49BB
:104391006E76616C696420636861726163746572D1
:1043A10020636F64652E204974206D7573742062DB
:1043B10065206265747765656E203020616E6420CA
:1043C100372E000A0D437573746F6D206368617237
:1043D10061637465722063726561746564207769D5
:1043E100746820636F64652025642E000A0D456E94
:1043F10074657220706978656C207061747465727F
:104401006E20666F722063686172616374657220E9
:1044110025642028696E20686578293A20000A0DF4
:10442100526F772025643A20000A0D43726561744A
:104431006520437573746F6D2043686172616374A5
:104441006572000A0D456E74657220636861726160
:104451006374657220636F64652028302D37293AB3
:02446100200039
:1031CE00AF82AE83ADF0FC9000E8EFF0EEA3F0ED31
:1031DE00A3F0ECA3F09000E8E0FCA3E0FDA3E0FE7A
:1031EE00A3E0FF30E70FC3E49CF8E49DF9E49EFAF8
:1031FE00E49FFB80088C008D018E028F039000E40B
:10320E00E0FCA3E0FDA3E0FEA3E0FF30E713C3E480
:10321E009CF516E49DF517E49EF518E49FF51980CC
:10322E00088C168D178E188F199000ECE516F0E5A8
:10323E0017A3F0E518A3F0E519A3F0888289838A15
:10324E00F0EB123282AC82AD83AEF0FF9000E8E07C
:10325E00A3E0A3E0A3E030E713C3E49CF8E49DF9F8
:10326E00E49EFAE49F888289838AF0228C828D8381
:10327E008EF0EF22AF82AE83ADF0FC9000F0EFF057
:10328E00EEA3F0EDA3F0ECA3F09000F4E4F09000C8
:10329E00F0E0FCA3E0FDA3E0FEA3E0FF7B009000C6
:1032AE00ECE0F52CA3E0F52DA3E0F52EA3E0F52F31
:1032BE00235401FA7074C003E52C252CF8E52D3348
:1032CE00F9E52E33FAE52F33FB9000ECE8F0E9A395
:1032DE00F0EAA3F0EBA3F09000ECE0F52CA3E0F500
:1032EE002DA3E0F52EA3E0F52FC3EC952CED952D37
:1032FE00EE952EEF952FD0035027E52FC313F52F04
:10330E00E52E13F52EE52D13F52DE52C13F52C904A
:10331E0000ECF0E52DA3F0E52EA3F0E52FA3F08051
:10332E00090B9000F4EBF00232AC9000F4E0FF9049
:10333E0000F0E0FBA3E0FCA3E0FDA3E0FE9000ECB8
:10334E00E0F52CA3E0F52DA3E0F52EA3E0F52FC3B9
:10335E00EB952CEC952DED952EEE952F40179000BC
:10336E00F0EBC3952CF0EC952DA3F0ED952EA3F07C
:10337E00EE952FA3F09000ECE0FBA3E0FCA3E0FDA4
:10338E00A3E0C313FEED13FDEC13FCEB139000EC66
:10339E00F0ECA3F0EDA3F0EEA3F08F061FEE708F0E
:1033AE009000F0E0FCA3E0FDA3E0FEA3E08C828D94
:1033BE00838EF022AF82AE83ADF0FC9000F9EFF079
:1033CE00EEA3F0EDA3F0ECA3F09000F9E0FCA3E087
:1033DE00FDA3E0FEA3E0FF30E70FC3E49CF8E49DFD
:1033EE00F9E49EFAE49FFB80088C008D018E028F1B
:1033FE00039000F5E0FCA3E0FDA3E0FEA3E0FF33A5
:10340E00E433F51A6013C3E49CF51BE49DF51CE44C
:10341E009EF51DE49FF51E80088C1B8D1C8E1D8F46
:10342E001E9000FDE51BF0E51CA3F0E51DA3F0E5E5
:10343E001EA3F0888289838AF0EB12347EAC82ADB3
:10344E0083AEF0FF9000F9E0A3E0A3E0A3E033E445
:10345E0033651A6013C3E49CF8E49DF9E49EFAE424
:10346E009F888289838AF0228C828D838EF0EF2250
:10347E00AF82AE83ADF0FC900101EFF0EEA3F0ED64
:10348E00A3F0ECA3F0900105E4F0A3F0A3F0A3F0F9
:10349E009000FDE0FCA3E0FDA3E0FEA3E0FF7B2097
:1034AE00C003900101E0F8A3E0F9A3E0FAA3E0FB6A
:1034BE00900109235401F0E828F8E933F9EA33FAC8
:1034CE00EB33FB900101E8F0E9A3F0EAA3F0EBA3E4
:1034DE00F0900105E0F8A3E0F9A3E0FAA3E0FBE821
:1034EE0028F8E933F9EA33FAEB33FB900105E8F0FB
:1034FE00E9A3F0EAA3F0EBA3F0D003900109E0609A
:10350E0008900105E043E001F0900105E0F52CA3E1
:10351E00E0F52DA3E0F52EA3E0F52FC3E52C9CE5F9
:10352E002D9DE52E9EE52F9F401F900105E52CC396
:10353E009CF0E52D9DA3F0E52E9EA3F0E52F9FA315
:10354E00F0900101E043E001F01BEB60030234AEAA
:10355E00900101E0FCA3E0FDA3E0FEA3E08C828DD0
:04356E00838EF02236
:06204000E478FFF6D8FD74
:10201E007900E94400601B7A0090446E784375A005
:10202E0001E493F2A308B8000205A0D9F4DAF27520
:02203E00A0FF01
:10357200C01F85811FE51F24FDF8868318868218E7
:10358200E493A324DB600C2425600512366080F0EE
:10359200023678D2D5E493A3C083C082B473148672
:1035A200F0188683188682181241156054A31236C9
:1035B2006080F5B4630818E6181236608043B4647C
:1035C20017E630E74618E6F42401F608E6F434007C
:1035D200F6742D1236608033B4782D868318868275
:1035E20018E4123651E583123650E583123651E55E
:1035F20082123650E58212365130D50574301236B9
:1036020060D082D083023582B475F6E6FA18E6F904
:10361200187C107D2712363BFF7CE87D0312363B77
:10362200C4F5837C647D0012363B4283E975F00A5F
:1036320084C445F0F582EF80A97B000BC3E99CF9B5
:10364200EA9DFA50F61BE92CF9EA3DFAEB22C45442
:103652000F700320D51FC2D52490D43440D4C08328
:10366200C082C0F0F582E8C0E0122673D0E0F8D044
:10367200F0D082D08322D01F22AA83AB828BF0901B
:10368200010AE0A4F8A9F08AF0E0A429F98BF0A3DA
:09369200E0A429F58388822222BC
:102046007800E84400600A790175A000E4F309D835
:10205600FC7842E84401600C7902900001E4F0A3A8
:04206600D8FCD9FACF
:10369B00C01F85811F7E008E83122673D01F22AF21
:1036AB00F0AE83E58290010DF0EEA3F0EFA3F09066
:1036BB00010DE0FDA3E0FEA3E0FF90010CE0FC9008
:1036CB000121E4F0A3F0A3F0900124EDF0EEA3F0C0
:1036DB00EFA3F0900127ECF090369B0237EFC01F61
:1036EB00E581F51F24FBFF900121E4F0A3F0A3F08B
:1036FB00E51F24FBF8900124E6F008E6A3F008E6AA
:10370B00A3F0900127EFF090369B1237EFD01F22DA
:10371B00E58290011DF0E0FF900113E0C0E0A3E013
:10372B00C0E0A3E0C0E0123736800D900111E0C07D
:10373B00E0A3E0C0E08F82221581158115819001F5
:10374B001BE02401F0A3E03400F022E58290011E7F
:10375B00F0E02430FF24C6500D74072FFF900110AA
:10376B00E060034307208F8202371BE58290011F25
:10377B00F0E0FFC4540FF582C007123756D0075341
:10378B00070F8F82023756E582900120F0900116C9
:10379B00E0FCA3E0FDA3E0FEA3E0FF90011AE0FB39
:1037AB00900120E0FA79208B00E828F52CEF2354C8
:1037BB0001452CFBEC2CFCED33FDEE33FEEF33FF20
:1037CB00C3EB9A4007EBC39AFB43040119E970D78B
:1037DB00900116ECF0EDA3F0EEA3F0EFA3F0900147
:1037EB001AEBF022AF83E582900128F0EFA3F09063
:1037FB000128E0FEA3E0FF900111EEF0EFA3F090A3
:10380B000121E0FDA3E0FEA3E0FF900113EDF0EE3C
:10381B00A3F0EFA3F090011BE4F0A3F0900124E0E0
:10382B00FDA3E0FEA3E0FF8D828E838FF012411586
:10383B00FC90012474012DF0E43EA3F0EFA3F0EC17
:10384B0070030240F1BC250280030240E990012A7B
:10385B00E4F090012BF090012CF090012DF09001F1
:10386B002EF090012FF0900130F0900131F090018B
:10387B0033F0900134F0A3F090013614F0A3F090E4
:10388B000124E0FDA3E0FEA3E0FF8D828E838FF089
:10389B00124115FBA3AD82AE83900124EDF0EEA394
:1038AB00F0EFA3F090013AEBF0BB25088B821237B7
:1038BB001B023827BB30005003023988EB24C6505B
:1038CB0003023988900136E0F522A3E0F52374FF5B
:1038DB00B52263B52360C005C006C007900134E074
:1038EB00FAA3E0FF90010AEAF0EFA3F090000AC000
:1038FB0005C00312367BAE82AF83D003D0058B029B
:10390B007D00EA2EFEED3FFFEE24D0FEEF34FFFFED
:10391B00900134EEF0EFA3F0D007D006D005900164
:10392B0034E0F5F0A3E045F0600302389590012BED
:10393B007401F0023895C005C006C00790010AE576
:10394B0022F0E523A3F090000AC006C005C00312C5
:10395B00367BAA82AF83D003D005D0067E00EB2A3C
:10396B00FAEE3FFFEA24D0FAEF34FFFF900136EA7C
:10397B00F0EFA3F0D007D006D00502389590013AAE
:10398B00E0FBBB2E2FC005C006C007900136E0FA46
:10399B00A3E0FFBAFF05BFFF028009D007D006D016
:1039AB0005023895D007D006D005900136E4F0A378
:1039BB00F0023895BB61004014EB2485400F900159
:1039CB003A74DF5BF09001107401F08005900110E8
:1039DB00E4F090013AE0FBBB20028075BB2B028028
:1039EB0067BB2D028059BB4202806FBB4302807CB8
:1039FB00BB4403023C7FBB4603023CA5BB4803020E
:103A0B003895BB4903023C7FBB4A03023895BB4C3C
:103A1B00028050BB4F03023C8DBB5003023BEDBBFE
:103A2B0053028077BB5403023895BB5503023C9578
:103A3B00BB5803023C9DBB5A03023895023CAD9028
:103A4B00012A7401F002389590012C7401F00238B0
:103A5B009590012D7401F002389590012F7401F0AF
:103A6B000238959001307401F002389590012FE0E7
:103A7B00600E900127E014F9F090013AE7F0800F07
:103A8B00900127E024FEFFF08F0190013AE7F090C0
:103A9B00013AE0F58212371B023CBC900127E0246F
:103AAB00FDFFF08F01870509870609870719199014
:103ABB000116EDF0EEA3F0EFA3F08D828E838FF065
:103ACB001240FD858222858323900136E0FAA3E024
:103ADB00FDBAFF0DBDFF0A900136E522F0E523A3E9
:103AEB00F090012AE0704B900134E0FAA3E0FDC3A3
:103AFB00E5229AE5239D503A900134EAC39522F0D2
:103B0B00ED9523A3F0900134E0FAA3E0FD8A068D36
:103B1B00071ABAFF011DEE4F6010758220C005C059
:103B2B000212371BD002D00580E3900134EAF0ED8E
:103B3B00A3F0900136E0F525A3E0F526900116E001
:103B4B00FAA3E0FDA3E0FF8A828D838FF01241156B
:103B5B00F524603CC3E4952574808526F063F080E2
:103B6B0095F0502C152574FFB5250215268524825A
:103B7B0012371B900116E0FAA3E0FDA3E0FF0ABA8F
:103B8B0000010D900116EAF0EDA3F0EFA3F080AC6D
:103B9B0090012AE07003023CBC900134E0FEA3E0EC
:103BAB00FFC3E5229EE5239F4003023CBC900134FA
:103BBB00EEC39522F0EF9523A3F0900134E0FEA322
:103BCB00E0FF8E028F051EBEFF011FEA4D70030240
:103BDB003CB4758220C007C00612371BD006D00735
:103BEB0080E0900127E024FDFDF08D0187270987F8
:103BFB00280987291919900116E527F0E528A3F064
:103C0B00E529A3F0900118E0FDBD8000400890016C
:103C1B003A7443F08020BD6000400890013A745024
:103C2B00F08013BD4000400890013A7449F08006C3
:103C3B0090013A7458F090013AE0FDF582C00512FC
:103C4B00371B75823A12371B75823012371B758200
:103C5B007812371BD005BD4902800EBD500280097A
:103C6B00900117E0F582123776900116E0F582127B
:103C7B003776803D90012E7401F0900133740AF079
:103C8B00802F9001337408F08027900133740AF071
:103C9B00801F9001337410F080179001317401F084
:103CAB00800F8B8212371B8008900134EEF0EFA34C
:103CBB00F0900131E06071900127E024FCFFF08F60
:103CCB0001870309870509870609870719191990C1
:103CDB000116EBF0EDA3F0EEA3F0EFA3F0900116BD
:103CEB007463F07444A3F07480A3F0900116E0F5B4
:103CFB0027A3E0F528A3E0F52974012527FAE4357D
:103D0B0028FBAF29900116EAF0EBA3F0EFA3F085A7
:103D1B0027828528838529F0124115FF700302380D
:103D2B00278F8212371B80C3900133E07003023858
:103D3B002790012FE06047900127E014F9F08707E7
:103D4B007E007D007B00900116EFF0EEA3F0EDA35B
:103D5B00F0EBA3F090012EE06003023DFF90011603
:103D6B00E0FBA3E0A3E0A3E07D007E007F009001D9
:103D7B0016EBF0EDA3F0EEA3F0EFA3F0807690013D
:103D8B0030E06028900127E024FCFFF08F018703CF
:103D9B00098705098706098707191919900116EB79
:103DAB00F0EDA3F0EEA3F0EFA3F08048900127E035
:103DBB0024FEFFF08F01870609870719EF3395E083
:103DCB00FDFB900116EEF0EFA3F0EDA3F0EBA3F0EB
:103DDB0090012EE0701E900116E0FBA3E0FDA3E026
:103DEB00A3E07E007F00900116EBF0EDA3F0EEA3B5
:103DFB00F0EFA3F090012EE06041900116E0FBA3E1
:103E0B00E0FDA3E0FEA3E0FF30E72B900116E0FB03
:103E1B00A3E0FDA3E0FEA3E0FFC3E49BFBE49DFD59
:103E2B00E49EFEE49FFF900116EBF0EDA3F0EEA3F2
:103E3B00F0EFA3F0800590012EE4F09001327401B5
:103E4B00F0900133E0F525752A40752B01E4F5223E
:103E5B00F52390011AE4F0852582123792900132F6
:103E6B00E0703390011AE0C454F0F52790011AE08A
:103E7B00C4540F4527F527852A82852B83E0FFE560
:103E8B00274207852A82852B83EFF0152A74FFB50D
:103E9B002A02152B800C90011AE0FF852A82852BB4
:103EAB0083F00522E4B522020523900132E0B40130
:103EBB0000E433F0900116E0FAA3E0FBA3E0FEA3CD
:103ECB00E0FFEA4B4E4F708A900141E52AF0E52B5B
:103EDB00A3F0900138E522F0E523A3F0900134E044
:103EEB00F5F0A3E045F070099001347401F0E4A300
:103EFB00F090012BE0FFE0704790012AE0704185C4
:103F0B00222A85232B900134E0FAA3E0FBC007AFF4
:103F1B002A0F8F067F00C3EE9AEF9BD007501975BF
:103F2B008220C007C003C00212371BD002D003D0BF
:103F3B00071ABAFF011B80D5900134EAF0EBA3F00E
:103F4B0090012EE0602075822DC00712371BD00721
:103F5B00900134E024FFFDA3E034FFFE900134ED2B
:103F6B00F0EEA3F08056900138E0F5F0A3E045F0B9
:103F7B00604A90012CE0602075822BC00712371B22
:103F8B00D007900134E024FFFDA3E034FFFE900145
:103F9B0034EDF0EEA3F0802490012DE0601E7582CD
:103FAB0020C00712371BD007900134E024FFFDA37C
:103FBB00E034FFFE900134EDF0EEA3F090012AE027
:103FCB007048900138E0F52AA3E0F52B900134E01E
:103FDB00FAA3E0FBC0078A068B071ABAFF011BC3C3
:103FEB00E52A9EE52B9FD0075053EF60067D307E70
:103FFB000080047D207E008D82C007C003C00212AA
:10400B00371BD002D003D00780CA900134E0FEA347
:10401B00E0FF900138E0F52AA3E0F52BC3E52A9EDB
:10402B00E52B9F500F900134EEC3952AF0EF952BA3
:10403B00A3F08011900134E4F0A3F08008900134D8
:10404B00EAF0EBA3F0900141E0FEA3E0FF90013812
:10405B00E0F52AA3E0F52BAA2AAD2B152A74FFB5A0
:10406B002A02152BEA4D6045900132E0B40100E4C1
:10407B0033F0900132E070140EBE00010F8E828F70
:10408B0083E0C4540FFD90011AF0800E8E828F8353
:10409B00E0FD53050F90011AEDF090011AE0F58247
:1040AB00C007C006123756D006D00780AA90012A47
:1040BB00E07003023827900134E0FEA3E0FF8E038B
:1040CB008F051EBEFF011FEB4D7003023827758253
:1040DB0020C007C00612371BD006D00780E08C82A9
:1040EB0012371B02382790011BE0FEA3E08E82F5EE
:0240FB0083221E
:0B4463003C4E4F20464C4F41543E00A1
:1040FD00AA82AB831241156003A380F8C3E5829AAF
:08410D00F582E5839BF5832296
:0D20110075812F122074E582600302200EFD
:1041150020F71430F6148883A88220F507E6A883D3
:0C41250075830022E280F7E49322E02280
:00000001FF
