:042000000220113277
:03200B0002350E8D
:0335040002200E94
:03200E0002356731
:20350700438E0C90000022C021C0E0C0F0C082C083C007C006C005C004C003C002C001C043
:2035270000C0D075D000C28D758A00758CFC123E3FD0D0D000D001D002D003D004D005D076
:2035470006D007D083D082D0F0D0E0D0213243A8824389015389F1758A00758CFCD28C22CC
:20356700900001740AF0900002740DF09000037454F09000047468F09000057461F09000AD
:20358700067472F09000077475F0900008746EF09000097469F090000A7420F090000B74DB
:2035A70045F090000C7453F090000D7444F090000E7420F090000F744CF09000107461F061
:2035C70090001104F09000127420F09000137434F09000147420F09000157453F0900016C4
:2035E7007475F09000177470F0900018F0900019746CF090001A7465F090001B746DF090E0
:20360700001C7465F090001D746EF090001E7474F090001F7461F0900020746CF090002114
:20362700E4F09000227454F09000237468F09000247461F09000257472F09000267475F033
:20364700900027746EF09000287469F09000297420F090002A7445F090002B7453F09000B3
:203667002C7444F090002D7420F090002E744CF090002F7461F090003004F0900031742033
:20368700F09000327434F09000337420F09000347453F09000357475F09000367470F0904F
:2036A7000037F0900038746CF09000397465F090003A746DF090003B7465F090003C746ED5
:2036C700F090003D7474F090003E7461F090003F746CF0900040E4F0900041740AF09000A9
:2036E70042740DF09000437427F09000447444F09000457427F0900046742DF09000477424
:203707003EF09000487444F09000497441F090004A7443F090004B7420F090004C7444F012
:2037270090004D7461F090004E7474F090004F7461F09000507420F09000517449F0900004
:2037470052746EF09000537470F09000547475F090005514F0900056742CF09000577420F0
:20376700F09000587427F0900059745AF090005A7427F090005B742DF090005C743EF09029
:20378700005D7420F090005E746DF090005F746FF09000607464F090006104F090006274BD
:2037A70020F09000637463F09000647468F09000657461F0900066746EF09000677467F034
:2037C7009000687465F0900069742CF090006A7420F090006B7427F090006C23F090006D88
:2037E70003F090006E742DF090006F743EF09000707420F0900071744EF09000727465F09D
:203807009000737478F09000747474F09000757420F09000767477F09000777461F0900020
:20382700787476F09000797465F090007A742CF090007B7420F090007C7427F090007D741C
:203847002BF090007E7427F090007F742DF0900080743EF09000817420F09000827449F007
:20386700900083746EF09000847463F09000857472F09000867465F09000877461F090004B
:20388700887473F09000897465F090008A7420F090008B7444F090008C7441F090008D742D
:2038A70043F090008E7420F090008F7476F0900090746FF0900091746CF09000927474F055
:2038C7009000937461F09000947467F09000957465F0900096742CF09000977420F090002B
:2038E700987427F0900099742DF090009A7427F090009B742DF090009C743EF090009D7404
:2039070020F090009E7444F090009F7465F09000A07463F09000A17472F09000A27465F0C9
:203927009000A37461F09000A47473F09000A57465F09000A67420F09000A77444F0900056
:20394700A87441F09000A97443F09000AA7420F09000AB7476F09000AC746FF09000AD74A0
:203967006CF09000AE7474F09000AF7461F09000B07467F09000B17465F09000B2742CF0E3
:203987009000B3740AF09000B4740DF09000B57427F09000B6743FF09000B77427F090009F
:2039A700B8742DF09000B9743EF09000BA7420F09000BB7444F09000BC7469F09000BD7431
:2039C70073F09000BE7470F09000BF746CF09000C07461F09000C17479F09000C27420F023
:2039E7009000C3744DF09000C47465F09000C5746EF09000C67475F09000C7E4F09000C8C6
:203A07007444F09000C97441F09000CA7443F09000CB7420F09000CC7469F09000CD7473AC
:203A2700F09000CE7420F09000CF744FF09000D0746EF09000D1E4F09000D27444F090009A
:203A4700D37441F09000D47443F09000D57420F09000D67469F09000D77473F09000D874A6
:203A670020F09000D9744FF09000DA7466F09000DBF09000DCE4F09000DD740AF09000DEFB
:203A8700740DF09000DF7445F09000E0746EF09000E17474F09000E27465F09000E3747277
:203AA700F09000E47420F09000E57444F09000E67461F09000E77474F09000E87461F090A3
:203AC70000E97420F09000EAE4F09000EB740AF09000EC740DF09000ED7444F09000EE7437
:203AE70041F09000EF7443F09000F07420F09000F1746FF09000F27475F09000F314F0909E
:203B070000F47470F09000F57475F09000F614F09000F77420F09000F87463F09000F97497
:203B270068F09000FA7461F09000FB746EF09000FCF09000FD7465F09000FE746CF09000BA
:203B4700FF7420F09001007441F09001017420F0900102E4F0900103740AF0900104740D10
:203B6700F09001057444F09001067441F09001077443F09001087420F0900109746FF0907B
:203B8700010A7475F090010B14F090010C7470F090010D7475F090010E14F090010F7420DB
:203BA700F09001107463F09001117468F09001127461F0900113746EF0900114F09001151F
:203BC7007465F0900116746CF09001177420F09001187442F09001197420F090011AE4F076
:203BE70090011B740AF090011C740DF090011D7467F090011E7461F090011F7469F090018B
:203C070020746EF09001217420F09001227469F0900123746EF09001247463F090012574C9
:203C270072F09001267465F09001277461F09001287473F09001297465F090012A14F090BC
:203C4700012BE4F090012C740AF090012D740DF090012E7467F090012F7461F090013074BF
:203C670069F0900131746EF09001327420F09001337464F090013404F09001357463F090A7
:203C870001367472F09001377465F09001387461F09001397473F090013A7465F090013BF0
:203CA70014F090013CE4F090013D740AF090013E740DF090013F746DF0900140746FF09007
:203CC70001417464F090014204F09001437420F09001447463F09001457468F0900146742B
:203CE70061F0900147746EF09001487467F09001497465F090014A14F090014BE4F090015B
:203D07004C740AF090014D740DF090014E746EF090014F7465F09001507478F09001517426
:203D270074F09001527420F09001537477F09001547461F09001557476F09001567465F0D8
:203D47009001577420F0900158E4F0900001124232900041124232123555123FDDAE82AF1C
:203D67008390015BE07002C28CBE2B02804CBE2D028052BE3F02800FBE44028028BE4E026F
:203D87008018BE5A4B8008900041124232804A123F8490013D124232803F90014C1242322D
:203DA700123F9B80349000DD1242327582101243977F008F83123F3A801F123FB090011B0E
:203DC7001242328014123FB790012C12423280097F008E828F83123FBE90015BE06003020D
:073DE7003D61D28C023D6139
:20206A0090015EE4F0A3F09001607480F09001617483F09001627486F09001637489F09004
:20208A000164748CF09001657490F09001667493F09001677496F09001687499F090016927
:2020AA00749CF090016A749FF090016B74A2F090016C74A5F090016D74A8F090016E74ABE8
:2020CA00F090016F74AEF090017074B1F090017174B4F090017274B6F090017374B9F090F6
:2020EA00017474BCF090017574BFF090017674C2F090017774C4F090017874C7F09001797D
:20210A0074C9F090017A74CCF090017B74CEF090017C74D1F090017D74D3F090017E74D62F
:20212A00F090017F74D8F090018074DAF090018174DCF090018274DEF090018374E0F0907B
:20214A00018474E2F090018574E4F090018674E6F090018774E8F090018874EAF090018906
:20216A0074ECF090018A04F090018B74EFF090018C04F090018D74F2F090018E04F090015E
:20218A008F04F090019074F6F090019104F090019204F090019304F090019404F0900195B3
:2021AA0004F0900196F090019704F090019804F0900199F090019A04F090019BF090019C4F
:2021CA00F090019D04F090019EF090019FF09001A0F09001A1F09001A2F09001A3F0900189
:2021EA00A414F09001A5F09001A614F09001A7F09001A814F09001A9F09001AA14F090016D
:20220A00AB14F09001AC14F09001AD14F09001AE14F09001AF14F09001B014F09001B11460
:20222A00F09001B274F2F09001B314F09001B414F09001B574EEF09001B674ECF09001B703
:20224A0014F09001B874E9F09001B974E7F09001BA74E5F09001BB74E3F09001BC74E1F08C
:20226A009001BD74DFF09001BE74DDF09001BF74DBF09001C074D9F09001C174D7F09001F8
:20228A00C274D4F09001C374D2F09001C474D0F09001C574CDF09001C674CBF09001C7744E
:2022AA00C8F09001C874C5F09001C974C3F09001CA74C0F09001CB74BDF09001CC74BBF0E1
:2022CA009001CD74B8F09001CE74B5F09001CF74B2F09001D074AFF09001D174ACF0900115
:2022EA00D274A9F09001D374A7F09001D474A4F09001D574A0F09001D6749DF09001D7746B
:20230A009AF09001D87497F09001D97494F09001DA7491F09001DB748EF09001DC748BF049
:20232A009001DD7488F09001DE7485F09001DF7482F09001E0747EF09001E1747BF0900156
:20234A00E27478F09001E37475F09001E47472F09001E5746FF09001E6746CF09001E774A1
:20236A0069F09001E87466F09001E97463F09001EA7460F09001EB745CF09001EC7459F0C1
:20238A009001ED7457F09001EE7454F09001EF7451F09001F0744EF09001F1744BF0900199
:2023AA00F27448F09001F37445F09001F47443F09001F57440F09001F6743DF09001F774CE
:2023CA003BF09001F87438F09001F97435F09001FA7433F09001FB7430F09001FC742EF01F
:2023EA009001FD742CF09001FE7429F09001FF7427F09002007425F09002017423F09002B7
:20240A00027421F0900203741FF0900204741DF0900205741BF09002067419F090020774C4
:20242A0017F09002087415F090020914F090020A7412F090020B7410F090020C14F0900282
:20244A000D14F090020E740CF090020F14F090021014F090021114F090021214F090021312
:20246A0014F090021414F090021514F090021614F0900217F090021814F0900219F09002D9
:20248A001A14F090021BF090021C14F090021DF090021EF090021FF0900220F0900221F0A0
:2024AA00900222F090022304F0900224F0900225F090022604F0900227F090022804F090E5
:2024CA00022904F090022AF090022B04F090022C04F090022D04F090022E04F090022F0498
:2024EA00F0900230740CF090023104F090023204F09002337410F090023404F09002357413
:20250A0013F090023604F09002377416F09002387418F0900239741AF090023A741CF09044
:20252A00023B741EF090023C7420F090023D7422F090023E7424F090023F7426F0900240A6
:20254A007428F0900241742AF0900242742DF0900243742FF09002447432F09002457434CC
:20256A00F09002467437F09002477439F0900248743CF0900249743EF090024A7441F09070
:20258A00024B7444F090024C7447F090024D744AF090024E744CF090024F744FF090025020
:2025AA007452F09002517455F09002527458F0900253745BF0900254745EF0900255746117
:2025CA00F09002567464F09002577467F0900258746AF0900259746DF090025A7470F090D9
:2025EA00025B7474F090025C7477F090025D747AF090025E747DF090025F7480F09002606E
:20260A00E4F0900261F0900262F0900263F0900264F0900265F0900266F0900267F0900200
:20262A0068F0900269F090026AF090026BF090026CF090026DF090026EF090026FF0900224
:20264A0070F0900271F0900272F0900273F0900274F0900275F0900276F0900277F09002C4
:20266A0078F0900279F090027AF090027BF090027CF090027DF090027EF090027FF0900264
:20268A0080F0900281F0900282F0900283F0900284F0900285F0900286F0900287F0900204
:2026AA0088F0900289F090028AF090028BF090028CF090028DF090028EF090028FF09002A4
:2026CA0090F0900291F0900292F0900293F0900294F0900295F0900296F0900297F0900244
:2026EA0098F0900299F090029AF090029BF090029CF090029DF090029EF090029FF09002E4
:20270A00A0F09002A1F09002A2F09002A3F09002A4F09002A5F09002A6F09002A7F0900283
:20272A00A8F09002A9F09002AAF09002ABF09002ACF09002ADF09002AEF09002AFF0900223
:20274A00B0F09002B1F09002B2F09002B3F09002B4F09002B5F09002B6F09002B7F09002C3
:20276A00B8F09002B9F09002BAF09002BBF09002BCF09002BDF09002BEF09002BFF0900263
:20278A00C0F09002C1F09002C2F09002C3F09002C4F09002C5F09002C6F09002C7F0900203
:2027AA00C8F09002C9F09002CAF09002CBF09002CCF09002CDF09002CEF09002CFF09002A3
:2027CA00D0F09002D1F09002D2F09002D3F09002D4F09002D5F09002D6F09002D7F0900243
:2027EA00D8F09002D9F09002DAF09002DBF09002DCF09002DDF09002DEF09002DFF09002E3
:20280A00E0F09002E1F09002E214F09002E3F09002E4F09002E5F09002E6F09002E7F09070
:20282A0002E8F09002E9F09002EAF09002EBF09002ECF09002EDF09002EEF09002EFF09022
:20284A0002F0F09002F1F09002F2F09002F3F09002F4F09002F5F09002F6F09002F7F090C2
:20286A0002F8F09002F9F09002FAF09002FBF09002FCF09002FDF09002FEF09002FFF09062
:20288A000300F0900301F0900302F0900303F0900304F0900305F0900306F0900307F090FA
:2028AA000308F0900309F090030AF090030BF090030CF090030DF090030EF090030FF0909A
:2028CA000310F0900311F0900312F0900313F0900314F0900315F0900316F0900317F0903A
:2028EA000318F0900319F090031AF090031BF090031CF090031DF090031EF090031FF090DA
:20290A000320F0900321F0900322F0900323F0900324F0900325F0900326F0900327F09079
:20292A000328F0900329F090032AF090032BF090032CF090032DF090032EF090032FF09019
:20294A000330F0900331F0900332F0900333F0900334F0900335F0900336F0900337F090B9
:20296A000338F0900339F090033AF090033BF090033CF090033DF090033EF090033FF09059
:20298A000340F0900341F0900342F0900343F0900344F0900345F0900346F0900347F090F9
:2029AA000348F0900349F090034AF090034BF090034CF090034DF090034EF090034FF09099
:2029CA000350F0900351F0900352F0900353F0900354F0900355F0900356F0900357F09039
:2029EA000358F0900359F090035AF090035BF090035CF090035DF090035EF090035FF090D9
:202A0A000360E4F09003617402F090036223F09003637406F09003647408F0900365740ADA
:202A2A00F0900366740CF0900367740EF09003687410F09003697412F090036A7414F090E1
:202A4A00036B7416F090036C7418F090036D741AF090036E741CF090036F741EF090037083
:202A6A007420F09003717422F09003727424F09003737426F09003747428F0900375742AE8
:202A8A00F0900376742CF0900377742EF09003787430F09003797432F090037A7434F09091
:202AAA00037B7436F090037C7438F090037D743AF090037E743CF090037F743EF090038023
:202ACA007440F09003817442F09003827444F09003837446F09003847448F0900385744A78
:202AEA00F0900386744CF0900387744EF09003887450F09003897452F090038A7454F09041
:202B0A00038B7456F090038C7458F090038D745AF090038E745CF090038F745EF0900390C2
:202B2A007460F09003917462F09003927464F09003937466F09003947468F0900395746A07
:202B4A00F0900396746CF0900397746EF09003987470F09003997472F090039A7474F090F0
:202B6A00039B7476F090039C7478F090039D747AF090039E747CF090039F747EF09003A062
:202B8A007480F09003A17482F09003A27484F09003A37486F09003A47488F09003A5748A97
:202BAA00F09003A6748CF09003A7748EF09003A87490F09003A97492F09003AA7494F090A0
:202BCA0003AB7496F09003AC7498F09003AD749AF09003AE749CF09003AF749EF09003B002
:202BEA0074A0F09003B174A2F09003B274A4F09003B374A6F09003B474A8F09003B574AA27
:202C0A00F09003B674ACF09003B774AEF09003B874B0F09003B974B2F09003BA74B4F0904F
:202C2A0003BB74B6F09003BC74B8F09003BD74BAF09003BE74BCF09003BF74BEF09003C0A1
:202C4A0074C0F09003C174C2F09003C274C4F09003C374C6F09003C474C8F09003C574CAB6
:202C6A00F09003C674CCF09003C774CEF09003C874D0F09003C974D2F09003CA74D4F090FF
:202C8A0003CB74D6F09003CC74D8F09003CD74DAF09003CE74DCF09003CF74DEF09003D041
:202CAA0074E0F09003D174E2F09003D274E4F09003D374E6F09003D474E8F09003D574EA46
:202CCA00F09003D674ECF09003D774EEF09003D874F0F09003D974F2F09003DA74F4F090AF
:202CEA0003DB74F6F09003DC74F8F09003DD74FAF09003DE74FCF09003DF74FEF09003E0E1
:202D0A0004F09003E114F09003E274FCF09003E374FAF09003E474F8F09003E574F6F0905F
:202D2A0003E674F4F09003E774F2F09003E874F0F09003E974EEF09003EA74ECF09003EB90
:202D4A0074EAF09003EC74E8F09003ED74E6F09003EE74E4F09003EF74E2F09003F074E01E
:202D6A00F09003F174DEF09003F274DCF09003F374DAF09003F474D8F09003F574D6F090F5
:202D8A0003F674D4F09003F774D2F09003F874D0F09003F974CEF09003FA74CCF09003FB70
:202DAA0074CAF09003FC74C8F09003FD74C6F09003FE74C4F09003FF74C2F090040074C02D
:202DCA00F090040174BEF090040274BCF090040374BAF090040474B8F090040574B6F090E0
:202DEA00040674B4F090040774B2F090040874B0F090040974AEF090040A74ACF090040B4A
:202E0A0074AAF090040C74A8F090040D74A6F090040E74A4F090040F74A2F090041074A038
:202E2A00F0900411749EF0900412749CF0900413749AF09004147498F09004157496F090CF
:202E4A0004167494F09004177492F09004187490F0900419748EF090041A748CF090041B29
:202E6A00748AF090041C7488F090041D7486F090041E7484F090041F7482F0900420748048
:202E8A00F0900421747EF0900422747CF0900423747AF09004247478F09004257476F090BF
:202EAA0004267474F09004277472F09004287470F0900429746EF090042A746CF090042B09
:202ECA00746AF090042C7468F090042D7466F090042E7464F090042F7462F0900430746058
:202EEA00F0900431745EF0900432745CF0900433745AF09004347458F09004357456F090AF
:202F0A0004367454F09004377452F09004387450F0900439744EF090043A744CF090043BE8
:202F2A00744AF090043C7448F090043D7446F090043E7444F090043F7442F0900440744067
:202F4A00F0900441743EF0900442743CF0900443743AF09004447438F09004457436F0909E
:202F6A0004467434F09004477432F09004487430F0900449742EF090044A742CF090044BC8
:202F8A00742AF090044C7428F090044D7426F090044E7424F090044F7422F0900450742077
:202FAA00F0900451741EF0900452741CF0900453741AF09004547418F09004557416F0908E
:202FCA0004567414F09004577412F09004587410F0900459740EF090045A740CF090045BA8
:202FEA00740AF090045C7408F090045D7406F090045E7404F090045F03F0900460E4F0900A
:20300A00046104F090046204F090046304F090046404F090046504F090046604F0900467B6
:20302A0004F090046804F090046904F090046A04F090046B04F090046C04F090046D04F0E3
:20304A0090046E04F090046F04F090047004F090047104F090047204F090047304F09004FF
:20306A007404F090047504F090047604F090047704F090047804F090047904F090047A04D1
:20308A00F090047B04F090047C04F090047D04F090047E04F090047F04F090048004F09085
:2030AA00048104F090048204F090048304F090048404F090048504F090048604F090048736
:2030CA0004F090048804F090048904F090048A04F090048B04F090048C04F090048D04F083
:2030EA0090048E04F090048F04F090049004F090049104F090049204F090049304F090049F
:20310A009404F090049504F090049604F090049704F090049804F090049904F090049A0450
:20312A00F090049B04F090049C04F090049D04F090049E04F090049F04F09004A004F09024
:20314A0004A104F09004A204F09004A304F09004A404F09004A504F09004A604F09004A7B5
:20316A0004F09004A804F09004A904F09004AA04F09004AB04F09004AC04F09004AD04F022
:20318A009004AE04F09004AF04F09004B004F09004B104F09004B204F09004B304F090043E
:2031AA00B404F09004B504F09004B604F09004B704F09004B804F09004B904F09004BA04D0
:2031CA00F09004BB04F09004BC04F09004BD04F09004BE04F09004BF04F09004C004F090C4
:2031EA0004C104F09004C204F09004C304F09004C404F09004C504F09004C604F09004C735
:20320A0004F09004C804F09004C904F09004CA04F09004CB04F09004CC04F09004CD04F0C1
:20322A009004CE04F09004CF04F09004D004F09004D104F09004D204F09004D304F09004DD
:20324A00D404F09004D504F09004D604F09004D704F09004D804F09004D904F09004DA044F
:20326A00F09004DB04F09004DC04F09004DD04F09004DE04F09004DF04F09004E004F09063
:20328A0004E104F09004E204F09004E304F09004E404F09004E504F09004E604F09004E7B4
:2032AA0004F09004E804F09004E904F09004EA04F09004EB04F09004EC04F09004ED04F061
:2032CA009004EE04F09004EF04F09004F004F09004F104F09004F204F09004F304F090047D
:2032EA00F404F09004F504F09004F604F09004F704F09004F804F09004F904F09004FA04CF
:20330A00F09004FB04F09004FC04F09004FD04F09004FE04F09004FF04F090050004F09001
:20332A00050104F090050204F090050304F090050404F090050504F090050604F09005072C
:20334A0004F090050804F090050904F090050A04F090050B04F090050C04F090050D04F0FA
:20336A0090050E04F090050F04F090051004F090051104F090051204F090051304F0900515
:20338A001404F090051504F090051604F090051704F090051804F090051904F090051A0448
:2033AA00F090051B04F090051C04F090051D04F090051E04F090051F04F090052004F0909C
:2033CA00052104F090052204F090052304F090052404F090052504F090052604F0900527AC
:2033EA0004F090052804F090052904F090052A04F090052B04F090052C04F090052D04F09A
:20340A0090052E04F090052F04F090053004F090053104F090053204F090053304F09005B4
:20342A003404F090053504F090053604F090053704F090053804F090053904F090053A04C7
:20344A00F090053B04F090053C04F090053D04F090053E04F090053F04F090054004F0903B
:20346A00054104F090054204F090054304F090054404F090054504F090054604F09005472B
:20348A0004F090054804F090054904F090054A04F090054B04F090054C04F090054D04F039
:2034AA0090054E04F090054F04F090055004F090055104F090055204F090055304F0900554
:2034CA005404F090055504F090055604F090055704F090055804F090055904F090055A0447
:1A34EA00F090055B04F090055C04F090055D04F090055E04F090055F04F05A
:203DEE00D296C29622AF83E58290015CF0EFA3F0C296D292C2907F0090015CE0A3E030E7E7
:203E0E0004D2978002C297C007123DEED00790015CE0FDA3E0FEED2DFDEE33FE90015CED16
:203E2E00F0EEA3F00FBF100040CED290C292C296229005607460F07401A3F090056274605B
:203E4E00F07402A3F09005647460F07403A3F09005667460F07404A3F090015BE060030299
:203E6E003F12900159E075F002A42460F582740535F0F583E0FEA3E0FF90015EE0FCA3E04F
:203E8E00FDEC2EF582ED3FF583E0FFE4C454F0CFC4CF6FCF54F0CF6FFE8F04747F5EFD43D3
:203EAE00068043051043061090015AE0FBBB02208C028D035303DF900568EAF0EBA3F08FE3
:203ECE00028E035303DF90056AEAF0EBA3F08016430520900568ECF0EDA3F0430620900560
:203EEE006AEFF0EEA3F0900568E0FEA3E0FF8E828F83123DF390056AE0FEA3E0FF8E828F2B
:203F0E0083123DF390015EE0FEA3E0FF8E048F05BCFF0BBD000890015EE4F0A3F0229001C5
:203F2E005E74012EF0E43FA3F0222222AF83E58290056CF0EFA3F090056CE0FEA3E0C454E0
:203F4E00F0CEC4CE6ECE54F0CE6EFF8E04747F5FFD4307804305104307105305DF5307DF7B
:203F6E008C828D83C007C006123DF3D006D0078E828F83023DF390015BE0700990015B74A0
:203F8E0001F0C28C2290015BE4F0D28C22900159E0FFBF0306900159E4F022900159EF0424
:103FAE00F02290015A7402F02290015A7401F0220C
:203FBE00AF83E58290056EF0EFA3F03099FD90056EE0FEA3E0FF8E99C2998E828F832210D6
:203FDE00980280FBAE997F008E828F8322AF83E582900570F0EFA3F0900570E0FEA3E0FF2F
:203FFE0030E703024084C3740F9E74808FF063F08095F05003024084EE240A83F582EE24D3
:20401E001483F583E47348444C5054585C6064686C7074787C80404040404040404040407C
:20403E00404040404040758231227582302275823222758233227582342275823522758226
:20405E00362275823722758238227582392275824122758242227582432275824422758292
:20407E0045227582462275823022E582900572F0E0FFBF3000400EEF24C64009EF24D09004
:20409E000572F08038900572E0FFBF61004013EF2499400EEF249F900572F0E0FF240AF0EA
:2040BE00801B900572E0FFBF41004011EF2499400CEF24BF900572F0E0FF240AF09005724B
:2040DE00E0F58222AF82AE83ADF0FC900574EFF0EEA3F0EDA3F0ECA3F0900573E0FF90056A
:2040FE0074E0FBA3E0FCA3E0FDA3E0FEC3740F9BE49CE49DE49E9200C374FF9BE49CE49D0B
:20411E00E49E9201C374FF9B740F9CE49DE49E9202C374818FF063F08095F0503BBF020208
:20413E008026BF03028012BF042B200228900030C007123FBED007801C200119900030C06A
:20415E0007123FBED007800D20000A900030C007123FBED0071F80B9EFFD3395E0FEED2435
:20417E0078F508EE3405F509900574E0F50AA3E0F50BA3E0F50CA3E0F50D740F550AF87CBD
:20419E000088828C83C007123FEBAE82D007850882850983EEF0AB0AE50BC4CBC4540F6B1A
:2041BE00CB540FCB6BCBFCE50CC454F04CFCAD0CE50DC4CDC4540F6DCD540FCD6DCDFE90E0
:2041DE000574EBF0ECA3F0EDA3F0EEA3F00F900574E0F5F0A3E042F0A3E042F0A3E045F0EE
:2041FE006003024176EF14900582F0E0FFEF20E722EFFD3395E0FEED2478F582EE3405F5D6
:20421E0083E0FE7D008E828D83C007123FBED0071F80DA22AF83E582900583F0EFA3F09087
:20423E000583E0FEA3E0FF8E828F83E0FD60207C008D828C83C007C006123FBED006D00716
:20425E000EBE00010F900583EEF0EFA3F080D8900583EEF0EFA3F022AF82AE83ADF0FC906F
:20427E000585EFF0EEA3F0EDA3F0ECA3F0900585E0FCA3E0FDA3E0FEA3E0FF30E7299000EE
:20429E002DC007C006C005C004123FBED004D005D006D007900585C3E49CF0E49DA3F0E413
:2042BE009EA3F0E49FA3F07F00EFFD3395E0FEED2489F50EEE3405F50F900585E0F510A31E
:2042DE00E0F511A3E0F512A3E0F5139005B5740AF0E4A3F0A3F0A3F08510828511838512A9
:2042FE00F0E513C0071245E9A882743028850E82850F83F09005C6740AF0E4A3F0A3F0A329
:20431E00F08510828511838512F0E5131247DDAB82AC83ADF0FED007900585EBF0ECA3F068
:20433E00EDA3F0EEA3F00F900585E0FBA3E0FCA3E0FDA3E0FEC3E49BE49CE49D74808EF025
:20435E0063F08095F050030242C7EF14900593F0E0FFEF20E722EFFD3395E0FEED2489F556
:20437E0082EE3405F583E0FE7D008E828D83C007123FBED0071F80DA22E582900594F0902B
:20439E000595E4F09005AAF09005ABF0A3F0900595E0FFBF0D03024440123FDDAE82AF83B1
:2043BE00900595EEF0BE30004005EE24C65014BE61004005EE2499500ABE41004041EE246D
:2043DE00B9403C8E057F008D828F83C006123FBED0069005AAE0FF2496FCE43405FD8E82AE
:2043FE00C007C005C004124088AB82D004D005D0078C828D83EBF09005AAEF04F0808FBEE0
:20441E00080280030243AC900008123FBE900020123FBE900008123FBE9005AAE014F002CE
:20443E0043AC900594E0FF9005AAE0FE7D00C3ED9E50579005ABE0FBA3E0FC9005DBEFF0EF
:20445E00E4A3F08B828C83C007C006C005124AD4E5828583F0D005D006D0079005ABF0E533
:20447E00F0A3F0ED2496F582E43405F583E0FC7B009005ABE0F9A3E0FAEC29F9EB3AFA903E
:20449E0005ABE9F0EAA3F00D80A49005ABE0FEA3E08E82F58322AF82AE83ADF0FC9005AD3F
:2044BE00EFF0EEA3F0EDA3F0ECA3F09005ADE0FCA3E0FDA3E0FEA3E0FF780079007A007BF8
:2044DE0000C3E89CE99DEA9EEB9F5037752760752804E4F529F52A152774FFB5270C1528C6
:2044FE00B528071529B52902152AE52745284529452A70E308B8000909B900050ABA00C19F
:20451E000B80BE22AF82AE83ADF0FC9005B1EFF0EEA3F0EDA3F0ECA3F09005B1E0F514A3A0
:20453E00E0F515A3E0F516A3E0F517780079007A007B008514828515838516F0E517C003EE
:20455E00C002C001C000124A91AC82AD83AEF0FFC004C005C006C007905C2975F08F743F40
:20457E0012489985821885831985F01AF51BE58124FCF581D000D001D002D00388828983F3
:20459E008AF0EBC003C002C001C000124A91AC82AD83AEF0FFC018C019C01AC01B8C828DA9
:2045BE00838EF0EF124AA4AF82E58124FCF581D000D001D002D003EF601008B8000909B990
:0B45DE0000050ABA00010B0245512243
:2045E900AF82AE83ADF0FC9005B9EFF0EEA3F0EDA3F0ECA3F09005B9E0FCA3E0FDA3E0FEDF
:20460900A3E0FF30E70FC3E49CF8E49DF9E49EFAE49FFB80088C008D018E028F039005B52C
:20462900E0FCA3E0FDA3E0FEA3E0FF30E713C3E49CF51CE49DF51DE49EF51EE49FF51F8055
:20464900088C1C8D1D8E1E8F1F9005BDE51CF0E51DA3F0E51EA3F0E51FA3F0888289838AF8
:20466900F0EB12469DAC82AD83AEF0FF9005B9E0A3E0A3E0A3E030E713C3E49CF8E49DF9D0
:14468900E49EFAE49F888289838AF0228C828D838EF0EF22BF
:20469D00AF82AE83ADF0FC9005C1EFF0EEA3F0EDA3F0ECA3F09005C5E4F09005C1E0FCA34A
:2046BD00E0FDA3E0FEA3E0FF7B009005BDE0F527A3E0F528A3E0F529A3E0F52A235401FADF
:2046DD007074C003E5272527F8E52833F9E52933FAE52A33FB9005BDE8F0E9A3F0EAA3F0F2
:2046FD00EBA3F09005BDE0F527A3E0F528A3E0F529A3E0F52AC3EC9527ED9528EE9529EF3E
:20471D00952AD0035027E52AC313F52AE52913F529E52813F528E52713F5279005BDF0E591
:20473D0028A3F0E529A3F0E52AA3F080090B9005C5EBF00246C79005C5E0FF9005C1E0FB1C
:20475D00A3E0FCA3E0FDA3E0FE9005BDE0F527A3E0F528A3E0F529A3E0F52AC3EB9527EC35
:20477D009528ED9529EE952A40179005C1EBC39527F0EC9528A3F0ED9529A3F0EE952AA336
:20479D00F09005BDE0FBA3E0FCA3E0FDA3E0C313FEED13FDEC13FCEB139005BDF0ECA3F0D2
:2047BD00EDA3F0EEA3F08F061FEE708F9005C1E0FCA3E0FDA3E0FEA3E08C828D838EF022C6
:2047DD00AF82AE83ADF0FC9005CAEFF0EEA3F0EDA3F0ECA3F09005CAE0FCA3E0FDA3E0FEC7
:2047FD00A3E0FF30E70FC3E49CF8E49DF9E49EFAE49FFB80088C008D018E028F039005C626
:20481D00E0FCA3E0FDA3E0FEA3E0FF33E433F5226013C3E49CF523E49DF524E49EF525E4D3
:20483D009FF52680088C238D248E258F269005CEE523F0E524A3F0E525A3F0E526A3F08897
:20485D008289838AF0EB12496AAC82AD83AEF0FF9005CAE0A3E0A3E0A3E033E4336522608F
:1C487D0013C3E49CF8E49DF9E49EFAE49F888289838AF0228C828D838EF0EF22F9
:2048990012493CBC0003024B5EEF60FA30D502B2D1E583B4FF03024B74E582B4FF03024BE2
:2048B90074258340072482400B024B5E2483145003024B74F582EA8DF0A4A8F0EA8EF0A4EB
:2048D90028F8E435F0F9EB8DF0A428E935F0F9E433CA8FF0A429F9EA35F0FAEBF88EF0A42E
:2048F90029F9EA35F0FAE433FBEC8DF0A429F9EA35F0FAE43BFBE88FF0A42AFAEB35F0FBD6
:20491900E433CCFD8EF0A42AFAEB35F0FBE43CFCED8FF0A42BFBEC35F0FC20E703124A5E2A
:03493900024B3DF1
:20493C00AA82AB83A2F73392D1F5826002D2F7ACF0E58124F9F8E6FD08E6FE0886F008E6DE
:0E495C00A2F73392D5F5836002D2F7AFF022B6
:20496A00AF82AE83ADF0FC9005D2EFF0EEA3F0EDA3F0ECA3F09005D6E4F0A3F0A3F0A3F074
:20498A009005CEE0FCA3E0FDA3E0FEA3E0FF7B20C0039005D2E0F8A3E0F9A3E0FAA3E0FB37
:2049AA009005DA235401F0E828F8E933F9EA33FAEB33FB9005D2E8F0E9A3F0EAA3F0EBA303
:2049CA00F09005D6E0F8A3E0F9A3E0FAA3E0FBE828F8E933F9EA33FAEB33FB9005D6E8F093
:2049EA00E9A3F0EAA3F0EBA3F0D0039005DAE060089005D6E043E001F09005D6E0F527A343
:204A0A00E0F528A3E0F529A3E0F52AC3E5279CE5289DE5299EE52A9F401F9005D6E527C344
:204A2A009CF0E5289DA3F0E5299EA3F0E52A9FA3F09005D2E043E001F01BEB600302499A7A
:144A4A009005D2E0FCA3E0FDA3E0FEA3E08C828D838EF022D3
:06204000E478FFF6D8FD74
:204A5E007804EC7011E58224F8500AF582E4C9CACBFCD8EF22EC7820058220E713D5820157
:134A7E0022C3E933F9EA33FAEB33FBEC33FCD8EA15822265
:20201E007900E94400601B7A00904B8C78DD75A005E493F2A308B8000205A0D9F4DAF275B0
:02203E00A0FF01
:134A9100FCABF0AA83A982749EC2D1F582124A5E024B3DC3
:204AA400FFA8811818124B12D2D133E6400730E70B7582002220E70675820122C2D1124AD7
:104AC400F4E97003F5822220D101B3E433F58222A4
:204AD400AA83AB828BF09005DBE0A4F8A9F08AF0E0A429F98BF0A3E0A429F58388822222B7
:202046007800E84400600A790175A000E4F309D8FC78DCE84405600C7906900001E4F0A3B1
:04206600D8FCD9FACF
:204AF4007901AA82E68F82B5821318E6B5F00E18E6B5830918E68A82B58202790022B480B9
:204B14000FE5F0700AE5837006E58270027F00EFB6801518B6001018B6000B18B600060820
:094B340008087600220808082296
:204B3D00B98003EA13B34010EA2401FAE43BFBE43CFC50047C800582BC000EBB000BBA00BC
:204B5D0008E4F5F0F583F58222A2D1E582138CF092F78B838A8222E4F583F58275F080F47C
:0F4B7D00A2D11322E4F583F58275F0C0747F2274
:0D20110075812A123507E582600302200E5A
:00000001FF
