:03000000020006F5
:03005F0002000399
:0300030002009563
:10006200AF83E582900000F0EFA3F0900000E0FE85
:10007200A3E0FF7C007D00C3EC9EED9F50147A70DC
:100082007B001ABAFF011BEA4B70F70CBC00E80DAB
:1000920080E522D2909003E8120062C2909003E8B9
:0500A20012006280EE77
:06003500E478FFF6D8FD9F
:100013007900E94400601B7A009000AB780275A078
:1000230000E493F2A308B8000205A0D9F4DAF2754C
:02003300A0FF2C
:10003B007800E84400600A790075A000E4F309D861
:10004B00FC7802E84400600C7901900000E4F0A316
:04005B00D8FCD9FAFA
:0D0006007581071200A7E582600302000368
:0400A700758200223C
:00000001FF
