:20006200AF83E582900000F0EFA3F0900000E0FEA3E0FF7C007D00C3EC9EED9F50147A70D3
:130082007B001ABAFF011BEA4B70F70CBC00E80D80E52221
:03000000020006F5
:03005F0002000399
:030003000200C830
:20009500AF83E582900002F0EFA3F0900002E0FEA3E0FF7C007D00C3EC9EED9F50147A709C
:2000B5007B001ABAFF011BEA4B70F70CBC00E80D80E522D2909003E8120095C2909003E890
:0500D50012009580EE11
:06003500E478FFF6D8FD9F
:200013007900E94400601B7A009000DE780475A000E493F2A308B8000205A0D9F4DAF275B2
:02003300A0FF2C
:20003B007800E84400600A790075A000E4F309D8FC7804E84400600C7901900000E4F0A3C0
:04005B00D8FCD9FAFA
:0D0006007581071200DAE582600302000335
:0400DA007582002209
:00000001FF
