:02405F00E0156A
:03200000022006B5
:03205F0002200359
:032003000222AE08
:20206200438E0C90000022E5829015E1F0E0FF7E00907005EFF0EEA3F022AF83E5829015D0
:20208200E2F0EFA3F03099FD9015E2E0FEA3E0FF8E99C2998E828F832210980280FBAE990B
:2020A2007F008E828F83229015E4E4F0A3F09015E6F09015E6E0FF24E7FDE43415FEC0078C
:2020C200C006C00512209BAB82AC83D005D006D0078D828E83EBF0EB70030221568D828E59
:2020E20083E0FCBC0D02806C8D828E83E0FDBD081C900008C00712207C90002012207C90EF
:20210200000812207CD007EF149015E6F09015E6E0FF24E7FDE43415FE8D828E83E0FCBC5D
:202122003000408EEC24C640897B008C828B83C007C006C00512207CD005D006D0078D82D8
:202142008E83E024D0FC8D828E83F09015E6EF04F00220B49015E6E0FF7D007E008F037CD5
:2021620000C3ED9BEE64808CF063F08095F050599015E4E0FBA3E0FC9016CCEBF0ECA3F014
:2021820090000AC007C006C005123495AB82AC83D005D006D0079015E4EBF0ECA3F0ED24A4
:2021A200E7F582EE3415F583E0FC7B009015E4E0F9A3E0FAEC29F9EB3AFA9015E4E9F0EA61
:2021C200A3F00DBD00970E80949015E4E0FEA3E08E82F583229015F7E4F0A3F09015F9F0C2
:2021E200A3F09015F9E0F5F0A3E045F060030222A21220A9AE82AF83C007C006C006C007AF
:202202007461C0E07440C0E01231E7E58124FCF581D006D007C3EE9420EF64809480400E86
:2022220074C09E74928FF063F08095F0501E7480C0E07440C0E01231E7158115819015F9A3
:20224200E4F0A3F09015F7F0A3F080969016CE7410F0E4A3F08E828F83C007C0061234B5D7
:20226200E5828583F0D006D00745F070149015F97401F0E4A3F09015F7EEF0EFA3F00221FE
:20228200E47480C0E07440C0E01231E7158115819015F7E4F0A3F09015F9F0A3F00221E4EF
:2022A2009015F7E0FEA3E08E82F583229015FBE4F0A3F09015FDF0A3F074A5C0E07440C01C
:2022C200E01231E71581158174C5C0E07440C0E07480C0E01236171581158115811221D7DA
:2022E20085821785831812332CAC82AD83EC4D7017C005C00474FAC0E07440C0E01231E7FA
:2023020015811581D004D005851782851883C005C00412332CAA82AB83D004D0059015FF07
:20232200EAF0EBA3F0EA4B703EC005C004C003C0027418C0E07441C0E01231E7158115817B
:20234200D002D003D004D0058C008D017F00888289838FF0C005C004C003C002123090D04F
:2023620002D003D004D005EC4D70030222DFEA4B70030222DF8C008D0188158916C005C0A8
:2023820004C003C002C015C0167436C0E07441C0E01231E7E58124FCF581D002D003C003DA
:2023A200C002C002C0037458C0E07441C0E01231E7E58124FCF581747AC0E07441C0E012F8
:2023C20031E71581158174A7C0E07441C0E01231E71581158174BFC0E07441C0E01231E7FF
:2023E2001581158174F3C0E07441C0E01231E7158115817435C0E07442C0E01231E715819E
:2024020015817453C0E07442C0E01231E7158115817478C0E07442C0E01231E715811581D9
:2024220074ABC0E07442C0E01231E71581158174E2C0E07442C0E01231E715811581D002BB
:20244200D003D004D005E4F508F509750A02F50BF50CF50DC002C003C005C00412209BAA16
:2024620082AB83D004D0058A0E0508E4B508020509850E0F751000850F82851083C005C0D1
:2024820004C003C00212207C7428C0E07443C0E01231E715811581D002D003D004D005C309
:2024A200E50E9441D003D0024064E50E24A5405EC002C0039015FDE0F511A3E0F512AA1757
:2024C200AB18C3E5119AE5129BD003D002503F758200C005C004C003C002122069D002D0DC
:2024E20003D004D0059015FBE02401F0A3E03400F0E5112CF582E5123DF583E50EF0901525
:20250200FD74012511F0E43512A3F0022456C002C0039015FDE0FAA3E0FB8517118518120C
:20252200EAB51106EBB512028006D003D0028052D003D002742BB50E028047742DB50E02FC
:202542008040743FB50E028039743DB50E0280327440B50E02802B850F82851083C005C089
:2025620004C003C00212207C742BC0E07443C0E01231E715811581D002D003D004D00502E6
:202582002456742BB50E028003022760C002C003758201C005C004C003C002122069744174
:2025A200C0E07443C0E01231E715811581745CC0E07443C0E01231E715811581D002D0030A
:2025C2001220A9AA82AB83D004D0058A0F8B109016B9E50FF0E510A3F0C3E50F9414E510C8
:2025E20064809480D003D00240107490950F74818510F063F08095F050079016B9E4F0A345
:20260200F0C002C003E50C250CFAE50D33FBEA2401F513EB3416F5149016B9E0F50FA3E0EC
:20262200F510850F82851083C005C00412332CAA82AB83D004D005851382851483EAF0EB6D
:20264200A3F0EA4BD003D0027039C002C0037402250CFAE4350DFBC005C004C003C002C04D
:2026620002C003748DC0E07443C0E01231E7E58124FCF581D002D003D004D005D003D00282
:20268200022456C002C0037402250CFAE4350DFBC005C004C003C002C002C00374D0C0E0FE
:2026A2007443C0E01231E7E58124FCF581D002D003C003C002C00FC010C002C00374FFC01A
:2026C200E07443C0E01231E7E58124FAF581D002D003D004D005A90C0909C2D575F002E9A1
:2026E20030E704B2D5F404A430D50AF42401C5F0F43400C5F02401F582741635F0F583E03D
:20270200F8A3E0F9C005C004C003C002C000C001C002C0037428C0E07444C0E01231E7E58C
:202722008124FAF581D002D003D004D005E50A250AFAE50B33FBEA245BF582EB3416F58371
:20274200E50FF0E510A3F0050AE4B50A02050B050CE4B50C02050DD003D002022456742DBB
:20276200B50E028003022903758202C005C004C003C002122069744EC0E07444C0E0123142
:20278200E7158115811220A9A882A983D002D003D004D005E8497022C005C004C003C002D4
:2027A200746EC0E07444C0E01231E715811581D002D003D004D005022456B80156B9005302
:2027C200C002C0039015FFE0FAA3E0FB7F008A828B838FF0C005C004C003C002123090740A
:2027E2008EC0E07444C0E01231E7158115819015FFE4F0A3F074A4C0E07444C0E01231E7B6
:2028020015811581D002D003D004D005D003D002022456C3740198E49940030228E174020A
:20282200250CFEE4350DFFC3E89EE99F40030228E1C002C003C005C004C003C002C001C00F
:2028420000C000C00174B5C0E07444C0E01231E7E58124FCF581D000D001D002D003D00494
:20286200D00588071F1FC2D575F002EF30E704B2D5F404A430D50AF42401C5F0F43400C5BF
:20288200F02401F513741635F0F514851382851483E0FAA3E0FB7F008A828B838FF0C005F6
:2028A200C004C003C002C001C000123090D000D001C000C00174CDC0E07444C0E01231E7F5
:2028C200E58124FCF581D002D003D004D005851382851483E4F0A3F0D003D002022456C02E
:2028E20005C004C003C00274E3C0E07444C0E01231E715811581D002D003D004D00502246F
:2029020056743DB50E028003022A39758204C005C004C003C0021220697429C0E07445C0A7
:20292200E01231E715811581D002D003D004D0059015FBE0F513A3E0F51478007900C3E861
:202942009513E995144003022456E849704AC002C003E82CFAE93DFB8A828B83E0FF7E0066
:20296200C005C004C003C002C001C000C007C006C002C0037453C0E07445C0E01231E7E5E5
:202982008124FAF581D000D001D002D003D004D005D003D002022A31740F58FE7F004F6028
:2029A20043C002C003E82CF582E93DF583E0FB7A00C005C004C003C002C001C000C003C0BD
:2029C20002745EC0E07445C0E01231E7E58124FCF581D000D001D002D003D004D005D00340
:2029E200D002804BEE4F7047C002C003E82CFEE93DFF8E828F83E0FB7A00C005C004C003C5
:202A0200C002C001C000C003C002C006C0077462C0E07445C0E01231E7E58124FAF581D09C
:202A220000D001D002D003D004D005D003D00208B80001090229407440B50E028003022B72
:202A42007F758205C005C004C003C002122069746EC0E07445C0E01231E715811581D0024D
:202A6200D003D004D0058C068D078F017F008E8289838FF0C005C004C003C00212309074B4
:202A820085C0E07445C0E01231E715811581749AC0E07445C0E01231E7158115819015FF5F
:202AA200E0FEA3E0F97F008E8289838FF012309074B1C0E07445C0E01231E715811581D08A
:202AC20002D003D004D005850C13850D1478027900C3E89513E995144003022B69C002C0F9
:202AE20003C005C004C003C002C001C000C000C00174C6C0E07445C0E01231E7E58124FCDE
:202B0200F581D000D001D002D003E828FAE933FBEA2401F582EB3416F583E0FAA3E0FB7FCC
:202B2200008A828B838FF0C003C002C001C000123090D000D001C001C000C000C00174DE2D
:202B4200C0E07445C0E01231E7E58124FCF581D000D001D002D003D004D00508B80001099B
:202B6200D003D002022AD3C005C004C003C0021222AED002D003D004D005022456743FB58D
:202B82000E028003022456758203C005C004C003C00212206974F5C0E07445C0E01231E7F5
:202BA20015811581742FC0E07446C0E01231E715811581C015C016743CC0E07446C0E0128D
:202BC20031E7E58124FCF581A815A916E51128F8E51239F9C000C001745AC0E07446C0E0DB
:202BE2001231E7E58124FCF581C017C0187478C0E07446C0E01231E7E58124FCF581D00220
:202C0200D003D004D0059015FBE0FEA3E0FFC007C006C005C004C003C002C006C007748A10
:202C2200C0E07446C0E01231E7E58124FCF581D002D003D004D005D006D007E511C39EFE22
:202C4200E5129FFFC005C004C003C002C006C00774BAC0E07446C0E01231E7E58124FCF575
:202C62008174E1C0E07446C0E01231E715811581D002D003D004D0059015FFE0F5F0A3E0F2
:202C820045F07003022D36C005C004C003C002742DC0E07447C0E01231E715811581D00253
:202CA200D003C003C002C002C003743AC0E07447C0E01231E7E58124FCF581D002D0038A37
:202CC200068B07E5112EFEE5123FFFC003C002C006C007745AC0E07446C0E01231E7E58199
:202CE20024FCF581C017C0187478C0E07446C0E01231E7E58124FCF5817457C0E07447C09B
:202D0200E01231E715811581C017C01874BAC0E07446C0E01231E7E58124FCF58174E1C069
:202D2200E07446C0E01231E715811581D002D003D004D0057402250CF511E4350DF5127861
:202D4200027900C002C00388028903C3E5119AE5129BD003D0025003022F28C002C003E8B8
:202D6200F51324FEFBC2D575F002EB30E704B2D5F404A430D50AF42401C5F0F43400C5F04B
:202D82002401F582741635F0F583E0FAA3E04AD003D0027003022F20C002C003C005C00450
:202DA200C003C002C001C000C000C00174A6C0E07447C0E01231E7E58124FCF581D000D0AF
:202DC20001D002D003D004D005E51324FEFBC2D575F002EB30E704B2D5F404A430D50AF463
:202DE2002401C5F0F43400C5F02401FA741635F0FB8A828B83E0FEA3E0FFC005C004C0038B
:202E0200C002C001C000C006C00774B4C0E07447C0E01231E7E58124FCF581D000D001D026
:202E220002D003D004D0058A828B83E0FAA3E0FB8A138B14E828FEE933FFEE245BFEEF34AD
:202E420016FF8E828F83E0FAA3E0FBEA2513FAEB3514FBC007C006C005C004C003C002C03B
:202E620001C000C002C00374CDC0E07447C0E01231E7E58124FCF581D000D001D002D00362
:202E8200D004D005D006D0078E828F83E0FAA3E0FBC007C006C005C004C003C002C001C044
:202EA20000C002C00374E7C0E07447C0E01231E7E58124FCF58174FCC0E07447C0E0123161
:202EC200E715811581D000D001D002D003D004D005D006D0078E828F83E0FEA3E0FFC005FA
:202EE200C004C003C002C001C000C006C0077421C0E07448C0E01231E7E58124FCF581744E
:202F0200E1C0E07446C0E01231E715811581D000D001D002D003D004D005D003D00208B82A
:202F2200000109022D459015FBE0FEA3E0FFC007C006C005C004C003C002C006C007744035
:202F4200C0E07448C0E01231E7E58124FCF581C008C0097466C0E07448C0E01231E7E58156
:202F620024FCF581C00AC00B7493C0E07448C0E01231E7E58124FCF581D002D003D004D0B2
:202F820005D006D007C007C006C005C004C003C002C006C00774E7C0E07448C0E01231E7D4
:202FA200E58124FCF58174E1C0E07446C0E01231E715811581D002D003D004D005D006D07A
:202FC200078E138F1478007900C002C00388028903C3EA9513EB9514D003D0024003023015
:202FE200809016CE7420F0E4A3F088828983C005C004C003C002C001C0001234B5E5828554
:2030020083F0D000D001D002D003D004D00545F0603DC002C003E82CFAE93DFB8A828B83AC
:20302200E0FF7E008F828E83C005C004C003C002C001C00012207CD000D001D002D003D0BC
:2030420004D0058A828B83E4F0D003D0028027C005C004C003C002C001C0007428C0E0741C
:2030620043C0E01231E715811581D000D001D002D003D004D00508B8000109022FCB9015BB
:0E308200FBE4F0A3F09015FDF0A3F00224563D
:204061000A200D2054686520696E707574206E756D6265722069733A2564200A200D00496F
:204081006E76616C6964206E756D6265722120506C656173652074727920616761696E2E90
:2040A1000A200D000A0D2A2A2A2A2A2A2A2A2A2048454C4C4F203A29202A2A2A2A2A2A2ADA
:2040C1002A0A0D000A0D456E7465722061206E756D626572206265747765656E20333220B0
:2040E10026203438303020666F72206275666665722073697A650A0D006275666665722020
:2041010030206372656174696F6E206973206661696C65640A0D0062756666657220312076
:204121006372656174696F6E206973206661696C65640A0D00537461727420416464726583
:204141007373206F662062756666657230203D20307825780A0D00537461727420416464A9
:2041610072657373206F662062756666657231203D20307825780A0D004275666665725F2F
:204181003020616E64204275666665725F31207375636365737366756C6C79206372656191
:2041A1007465640A0D000A0D204F5054494F4E5320544F2043484F4F5345200A0D00596FA4
:2041C100752063616E20656E746572206368617261637465727320746F2062652073746F39
:2041E10072656420696E2062756666657220300A0D00456E746572202B20746F20637265E5
:204201006174652061206E657720627566666572206F662073697A65206265747765656E04
:2042210020323020616E64203430302062797465730A0D00456E746572202D20746F2064C4
:20424100656C6574652061206275666665722E0A0D00456E746572203F20746F2067656E34
:20426100657261746520612068656170207265706F72742E0A0D00456E746572203D2074FD
:204281006F20646973706C61792063757272656E7420636F6E74656E7473206F66206275FB
:2042A1006666657220302E0A0D00456E746572204020746F206672656520616C6C20627552
:2042C100666665727320616E642073746172742070726F6772616D20616761696E2E0A0DA9
:2042E100000A0D2A2A2A2A2A2A2A2A2A2A2A2A2A2A2A2A2A2A2A2A2A2A2A2A2A2A2A2A54BA
:2043010048414E4B20594F552A2A2A2A2A2A2A2A2A2A2A2A2A2A2A2A2A2A2A2A2A2A2A2A6D
:204321002A2A2A2A0A0D000A0D000A0D62756666657220302069732066756C6C2E0A0D00B1
:204341000A0D20437265617465732061206E657720627566666572200A0D000A0D456E7464
:20436100657220746865206E6577206275666665722073697A65206265747765656E2032C9
:204381003020616E64203430300A0D000A0D4D656D6F727920416C6C6F636174696F6E20F8
:2043A100666F72204275666665725F2564204661696C65640A0D507265737320272B272011
:2043C100746F2054727920616761696E0A0D000A0D205375636365737366756C20616C6CB3
:2043E1006F6361746564206D656D6F727920666F72204275666665725F25640A0D000A0D9C
:204401004275666665725F25642068617320616C6C6F636174656420612073697A65206F49
:20442100662025640A0D000A0D53746172742041646472657373206F6620627566666572BB
:204441005F2564203D20307825780A0D000A0D456E74657220612076616C69642062756677
:20446100666572206E756D6265720A0D000A0D42756666657220302063616E6E6F74206258
:20448100652064656C65746564210A0D000A0D44656C6574696E6720627566666572203159
:2044A1000A0D0042756666657220312069732066726565000A0D44656C6574696E672062B6
:2044C1007566666572202564200A0D000A0D42756666657220256420697320467265650A21
:2044E1000D000A0D456E74657220612076616C696420627566666572206E756D6265720A9B
:204501000D507265737320272D2720746F2064656C65746520616E792076616C6964206235
:2045210075666665720A0D000A0D5468652053746F72656420436861726163746572732042
:20454100696E204275666665722030206172650A0D0030782578203E3E20257800202578EF
:20456100000A0D307825783E3E202578000A0D44656C6574696E6720427566666572203098
:20458100200A0D000A0D427566666572203020697320667265650A0D000A0D44656C657448
:2045A100696E67204275666665722031200A0D000A0D427566666572203120697320667204
:2045C10065650A0D000A0D44656C6574696E67206275666665725F2564200A0D000A0D42A4
:2045E10075666665722025642069732066726565200A0D002A2A2A2A2A2A2A2A2A2A2A2A0C
:204601002A2A2A2A2A2A2A2A205245504F5254204F462048454150202A2A2A2A2A2A2A2AEA
:204621002A2A2A2A2A2A2A2A2A2A2A2A2A000A0D42756666657220300A0D000A0D49747338
:20464100205374617274204164647265737320203D20307825780A0D000A0D4974732045A0
:204661006E64696E672041646472657373203D20307825780A0D000A0D4974732053697ACD
:2046810065203D2025640A0D000A0D43757272656E742053746F7261676520636861726189
:2046A100637465727320696E206275666665722030203D2025640A0D000A0D4375727265C2
:2046C1006E7420467265652053706163657320696E20627566666572203D2025640A0D0028
:2046E1000A0D2D2D2D2D2D2D2D2D2D2D2D2D2D2D2D2D2D2D2D2D2D2D2D2D2D2D2D2D2D2D5C
:204701002D2D2D2D2D2D2D2D2D2D2D2D2D2D2D2D2D2D2D2D2D2D2D2D2D2D2D2D2D2D2D2DF8
:204721002D2D2D2D2D2D2D2D2D0A0D000A0D42756666657220310A0D000A0D497473205339
:20474100746172742041646472657373203D20307825780A0D000A0D53746F7261676520D2
:204761006368617261637465727320696E20627566666572203D302C2062656361757365D6
:204781002073746F7261676520636861726163746572732061726520402062756666657271
:2047A10020300A0D000A0D4275666665722025640A0D000A0D53746172742041646472653B
:2047C1007373203D20307825780A0D000A0D456E64696E672041646472657373203D20301A
:2047E1007825780A0D000A0D4275666665722053697A65203D2025640A0D000A0D53746FF6
:2048010072616765206368617261637465727320696E20627566666572203D20300A0D0063
:204821000A0D467265652053706163657320696E20627566666572203D2025640A0D000AA7
:204841000D4E756D626572206F662073746F726167652063686172616374657273203D201A
:2048610025640A0D000A0D546F74616C206E756D626572206F662063686172616374657211
:2048810073207265636569766564203D2025640A0D000A0D546F74616C206E756D6265725C
:2048A100206F6620627566666572732074686174207765726520616C6C6F63617465642068
:2048C10073696E636520746865207374617274206F66207468652070726F6772616D203D4B
:2048E1002025640A0D000A0D546F74616C2073746F72616765206368617261637465727387
:1E4901002073746F7265642073696E6365206C61737420273F27203D2025640A0D0017
:20309000AFF0AE83E5829016BBF0EEA3F0EFA3F09016BBE0FDA3E0FEA3E09016BBE0F5F02D
:2030B000A3E045F07001229016C0E4F0A3F09016C4E0FBA3E0FC9016BEEBF0ECA3F09016C0
:2030D000C274C4F07416A3F09016BEE0FBA3E0FC4B60418B018C02C003C0048D008E04C3AC
:2030F000E998EA9CD004D003502A9016C0EBF0ECA3F074022BFBE43CFC9016C2EBF0ECA34E
:20311000F08B828C83E0FBA3E0FC9016BEEBF0ECA3F080B49016BEE0FEA3E0FF9016BBE042
:20313000FBA3E0FCA3E0EB24FEFBEC34FFFC74022BFAE43CFD8A828D83EEF0EFA3F0901685
:20315000C2E0F8A3E0F988828983EBF0ECA3F08B828C83E0F8A3E0F9EEB50033EFB5012FBF
:2031700088828983A3A3E0FEA3E0FF8A828D83EEF0EFA3F08B828C83E0FEA3E0FF8E828FEC
:2031900083E0FEA3E0FF8B828C83EEF0EFA3F09016C0E0FEA3E0FF4E603C8E828F83E0F816
:2031B000A3E0F9E8B5032FE9B5042B8B828C83E0FBA3E0FC8E828F83EBF0ECA3F074022E51
:1731D000FEE43FFF8A828D83E0FAA3E0FD8E828F83EAF0EDA3F022B4
:06203500E478FFF6D8FD7F
:202013007900E94400601B7A0090492A780E75A017E493F2A308B8000205A0D9F4DAF275DC
:02203300A0FF0C
:2031E700C01B85811BE51B24FDF8868318868218E493A324DB600C242560051232D580F0B6
:203207000232EDD2D5E493A3C083C082B4731486F0188683188682181240436054A3123206
:20322700D580F5B4630818E6181232D58043B46417E630E74618E6F42401F608E6F4340097
:20324700F6742D1232D58033B4782D868318868218E41232C6E5831232C5E5831232C6E5B4
:20326700821232C5E5821232C630D50574301232D5D082D0830231F7B475F6E6FA18E6F9BF
:20328700187C107D271232B0FF7CE87D031232B0C4F5837C647D001232B04283E975F00A6A
:2032A70084C445F0F582EF80A97B000BC3E99CF9EA9DFA50F61BE92CF9EA3DFAEB22C454FE
:2032C7000F700320D51FC2D52490D43440D4C083C082C0F0F582E8C0E012207CD0E0F8D090
:0932E700F0D082D08322D01B221A
:2032F0009016C47401F07400A3F090405FE493FE740193FF1EBEFF011FEE2401FEEF34000E
:20331000FF900001EEF0EFA3F09016C4E0FEA3E0FF8E828F83A3A3E4F0A3F022AF83E58259
:203330009016C6F0EFA3F09016C4E0F5F0A3E045F070031232F09016C6E0FEA3E0FF4E6097
:203350000E74022EFCE43FFDC3EC9EED9F5004900000229016C674022EF0E43FA3F0901654
:20337000C6E0FEA3E0FFC3EE9404EF940050099016C67404F0E4A3F09016C4E0FEA3E0FFDD
:203390009016C8EEF0EFA3F09016CA74C4F07416A3F09016C8E0FEA3E0FF4E700302349144
:2033B0008E828F83E0FCA3E0FD8C028D038E008F01EAC398FAEB99FB8A008B019016C6E023
:2033D000F519A3E0F51AC3E89519E9951A500302346E74042519F8E4351AF9C3EA98EB99B2
:2033F000404C8E028F03E5192AFAE51A3BFB8A828B83ECF0EDA3F074022AFCE43BFD8E827A
:203410008F83A3A3E0F8A3E0F98C828D83E8F0E9A3F09016CAE0FCA3E0FD8C828D83EAF0BA
:20343000EBA3F08E828F83EAF0EBA3F0801C9016CAE0FCA3E0FD8E828F83A3A3E0FAA3E057
:20345000FB8C828D83EAF0EBA3F09016C8E0FCA3E0FD74022CFCE43DFD8C828D83227402AF
:203470002EFEE43FFF9016CAEEF0EFA3F08E828F83E0FEA3E0FF9016C8EEF0EFA3F0023399
:05349000A290000022E3
:20349500AA83AB828BF09016CCE0A4F8A9F08AF0E0A429F98BF0A3E0A429F583888222220A
:2034B500AF83E5829016D0F0EFA3F09016D0E0FEA3E0FF30E709C3E49EFCE49FFD80048EAD
:2034D500048F059016CEE0FEA3E0FF30E709C3E49EFAE49FFB80048E028F039016D2EAF096
:2034F500EBA3F08C828D8312351DAE82AF839016D0E0A3E030E70CC3E49EFCE49FFD8C828A
:083515008D83228E828F832238
:20351D00AF83E5829016D4F0EFA3F09016D6E4F09016D4E0FEA3E0FF7D009016D2E0FBA36C
:20353D00E0FC235401FA7036EB2BFBEC33FC9016D2EBF0ECA3F09016D2E0FBA3E0FCC3EEF9
:20355D009BEF9C5011ECC313CB13CBFC9016D2EBF0ECA3F080080D9016D6EDF080BC9016BE
:20357D00D6E0FF9016D4E0FDA3E0FE9016D2E0FBA3E0FCC3ED9BEE9C400B9016D4EDC39BEA
:20359D00F0EE9CA3F09016D2E0FDA3E0C313CD13CDFE9016D2EDF0EEA3F08F061FEE70C3FD
:0C35BD009016D4E0FEA3E08E82F583227D
:20203B007800E84400600A790175A000E4F309D8FC780DE84417600C7918900001E4F0A367
:04205B00D8FCD9FADA
:2035C900C01B85811B7E008E8312207CD01B22AFF0AE83E5829016D8F0EEA3F0EFA3F09064
:2035E90016D8E0FDA3E0FEA3E0FF9016D7E0FC9016ECE4F0A3F0A3F09016EFEDF0EEA3F01C
:20360900EFA3F09016F2ECF09035C902371DC01BE581F51B24FBFF9016ECE4F0A3F0A3F0CC
:20362900E51B24FBF89016EFE6F008E6A3F008E6A3F09016F2EFF09035C912371DD01B2285
:20364900E5829016E8F0E0FF9016DEE0C0E0A3E0C0E0A3E0C0E0123664800D9016DCE0C0F8
:20366900E0A3E0C0E08F82221581158115819016E6E02401F0A3E03400F022E5829016E909
:20368900F0E02430FF24C6500D74072FFF9016DBE060034307208F82023649E5829016EA57
:2036A900F0E0FFC4540FF582C007123684D00753070F8F82023684E5829016EBF09016E185
:2036C900E0FCA3E0FDA3E0FEA3E0FF9016E5E0FB9016EBE0FA79208B00E828F526EF2354FC
:2036E900014526FBEC2CFCED33FDEE33FEEF33FFC3EB9A4007EBC39AFB43040119E970D786
:203709009016E1ECF0EDA3F0EEA3F0EFA3F09016E5EBF022AF83E5829016F3F0EFA3F090FE
:2037290016F3E0FEA3E0FF9016DCEEF0EFA3F09016ECE0FDA3E0FEA3E0FF9016DEEDF0EE74
:20374900A3F0EFA3F09016E6E4F0A3F09016EFE0FDA3E0FEA3E0FF8D828E838FF0124043AF
:20376900FC9016EF74012DF0E43EA3F0EFA3F0EC700302401FBC250280030240179016F5CC
:20378900E4F09016F6F09016F7F09016F8F09016F9F09016FAF09016FBF09016FCF09016BD
:2037A900FEF09016FFF0A3F090170114F0A3F09016EFE0FDA3E0FEA3E0FF8D828E838FF097
:2037C900124043FBA3AD82AE839016EFEDF0EEA3F0EFA3F0901705EBF0BB25088B82123614
:2037E90049023755BB300050030238B6EB24C650030238B6901701E0F51CA3E0F51D74FF02
:20380900B51C63B51D60C005C006C0079016FFE0FAA3E0FF9016CCEAF0EFA3F090000AC0BE
:2038290005C003123495AE82AF83D003D0058B027D00EA2EFEED3FFFEE24D0FEEF34FFFF86
:203849009016FFEEF0EFA3F0D007D006D0059016FFE0F5F0A3E045F060030237C39016F6BB
:203869007401F00237C3C005C006C0079016CCE51CF0E51DA3F090000AC006C005C003129A
:203889003495AA82AF83D003D005D0067E00EB2AFAEE3FFFEA24D0FAEF34FFFF901701EA36
:2038A900F0EFA3F0D007D006D0050237C3901705E0FBBB2E2FC005C006C007901701E0FA9C
:2038C900A3E0FFBAFF05BFFF028009D007D006D0050237C3D007D006D005901701E4F0A337
:2038E900F00237C3BB61004014EB2485400F90170574DF5BF09016DB7401F080059016DB4A
:20390900E4F0901705E0FBBB20028075BB2B028067BB2D028059BB4202806FBB4302807CF5
:20392900BB4403023BADBB4603023BD3BB48030237C3BB4903023BADBB4A030237C3BB4C80
:20394900028050BB4F03023BBBBB5003023B1BBB53028077BB54030237C3BB5503023BC3F9
:20396900BB5803023BCBBB5A030237C3023BDB9016F57401F00237C39016F77401F00237BD
:20398900C39016F87401F00237C39016FA7401F00237C39016FB7401F00237C39016FAE0D9
:2039A900600E9016F2E014F9F0901705E7F0800F9016F2E024FEFFF08F01901705E7F090DD
:2039C9001705E0F582123649023BEA9016F2E024FDFFF08F01870509870609870719199020
:2039E90016E1EDF0EEA3F0EFA3F08D828E838FF012402B85821C85831D901701E0FAA3E07E
:203A0900FDBAFF0DBDFF0A901701E51CF0E51DA3F09016F5E0704B9016FFE0FAA3E0FDC3EE
:203A2900E51C9AE51D9D503A9016FFEAC3951CF0ED951DA3F09016FFE0FAA3E0FD8A068D78
:203A4900071ABAFF011DEE4F6010758220C005C002123649D002D00580E39016FFEAF0ED13
:203A6900A3F0901701E0F51FA3E0F5209016E1E0FAA3E0FDA3E0FF8A828D838FF0124043E3
:203A8900F51E603CC3E4951F74808520F063F08095F0502C151F74FFB51F021520851E82DF
:203AA9001236499016E1E0FAA3E0FDA3E0FF0ABA00010D9016E1EAF0EDA3F0EFA3F080ACA8
:203AC9009016F5E07003023BEA9016FFE0FEA3E0FFC3E51C9EE51D9F4003023BEA9016FFB1
:203AE900EEC3951CF0EF951DA3F09016FFE0FEA3E0FF8E028F051EBEFF011FEA4D70030267
:203B09003BE2758220C007C006123649D006D00780E09016F2E024FDFDF08D0187210987F1
:203B29002209872319199016E1E521F0E522A3F0E523A3F09016E3E0FDBD80004008901731
:203B4900057443F08020BD600040089017057450F08013BD400040089017057449F0800694
:203B69009017057458F0901705E0FDF582C00512364975823A12364975823012364975820D
:203B890078123649D005BD4902800EBD500280099016E2E0F5821236A49016E1E0F5821255
:203BA90036A4803D9016F97401F09016FE740AF0802F9016FE7408F080279016FE740AF0D7
:203BC900801F9016FE7410F080179016FC7401F0800F8B8212364980089016FFEEF0EFA3BD
:203BE900F09016FCE060719016F2E024FCFFF08F018703098705098706098707191919903B
:203C090016E1EBF0EDA3F0EEA3F0EFA3F09016E1741FF07449A3F07480A3F09016E1E0F509
:203C290021A3E0F522A3E0F52374012521FAE43522FBAF239016E1EAF0EBA3F0EFA3F08582
:203C490021828522838523F0124043FF70030237558F8212364980C39016FEE0700302374C
:203C6900559016FAE060479016F2E014F9F087077E007D007B009016E1EFF0EEA3F0EDA3CF
:203C8900F0EBA3F09016F9E06003023D2D9016E1E0FBA3E0A3E0A3E07D007E007F00901654
:203CA900E1EBF0EDA3F0EEA3F0EFA3F080769016FBE060289016F2E024FCFFF08F0187031C
:203CC9000987050987060987071919199016E1EBF0EDA3F0EEA3F0EFA3F080489016F2E0A9
:203CE90024FEFFF08F01870609870719EF3395E0FDFB9016E1EEF0EFA3F0EDA3F0EBA3F069
:203D09009016F9E0701E9016E1E0FBA3E0FDA3E0A3E07E007F009016E1EBF0EDA3F0EEA335
:203D2900F0EFA3F09016F9E060419016E1E0FBA3E0FDA3E0FEA3E0FF30E72B9016E1E0FB5F
:203D4900A3E0FDA3E0FEA3E0FFC3E49BFBE49DFDE49EFEE49FFF9016E1EBF0EDA3F0EEA3A7
:203D6900F0EFA3F080059016F9E4F09016FD7401F09016FEE0F51F75240B752517E4F51CE6
:203D8900F51D9016E5E4F0851F821236C09016FDE070339016E5E0C454F0F5219016E5E061
:203DA900C4540F4521F521852482852583E0FFE5214207852482852583EFF0152474FFB539
:203DC90024021525800C9016E5E0FF852482852583F0051CE4B51C02051D9016FDE0B4010A
:203DE90000E433F09016E1E0FAA3E0FBA3E0FEA3E0FFEA4B4E4F708A90170CE524F0E5254F
:203E0900A3F0901703E51CF0E51DA3F09016FFE0F5F0A3E045F070099016FF7401F0E4A3AA
:203E2900F09016F6E0FFE070479016F5E07041851C24851D259016FFE0FAA3E0FBC007AF4C
:203E4900240F8F067F00C3EE9AEF9BD0075019758220C007C003C002123649D002D003D094
:203E6900071ABAFF011B80D59016FFEAF0EBA3F09016F9E0602075822DC007123649D0079F
:203E89009016FFE024FFFDA3E034FFFE9016FFEDF0EEA3F08056901703E0F5F0A3E045F0C0
:203EA900604A9016F7E0602075822BC007123649D0079016FFE024FFFDA3E034FFFE901602
:203EC900FFEDF0EEA3F080249016F8E0601E758220C007123649D0079016FFE024FFFDA34E
:203EE900E034FFFE9016FFEDF0EEA3F09016F5E07048901703E0F524A3E0F5259016FFE0AD
:203F0900FAA3E0FBC0078A068B071ABAFF011BC3E5249EE5259FD0075053EF60067D307E3B
:203F29000080047D207E008D82C007C003C002123649D002D003D00780CA9016FFE0FEA301
:203F4900E0FF901703E0F524A3E0F525C3E5249EE5259F500F9016FFEEC39524F0EF95251F
:203F6900A3F080119016FFE4F0A3F080089016FFEAF0EBA3F090170CE0FEA3E0FF901703C6
:203F8900E0F524A3E0F525AA24AD25152474FFB524021525EA4D60459016FDE0B40100E429
:203FA90033F09016FDE070140EBE00010F8E828F83E0C4540FFD9016E5F0800E8E828F83A1
:203FC900E0FD53050F9016E5EDF09016E5E0F582C007C006123684D006D00780AA9016F57F
:203FE900E070030237559016FFE0FEA3E0FF8E038F051EBEFF011FEB4D7003023755758282
:2040090020C007C006123649D006D00780E08C821236490237559016E6E0FEA3E08E82F52D
:024029008322F0
:0B491F003C4E4F20464C4F41543E00E0
:18402B00AA82AB831240436003A380F8C3E5829AF582E5839BF5832238
:0D200600758126122062E58260030220032E
:1C40430020F71430F6148883A88220F507E6A88375830022E280F7E49322E0228C
:00000001FF
